{
  "_format": "hh-sol-artifact-1",
  "contractName": "LoveDistributor",
  "sourceName": "contracts/LoveDistributor.sol",
  "abi": [
    {
      "inputs": [
        {
          "internalType": "address",
          "name": "_initialGameContractAddress",
          "type": "address"
        },
        {
          "internalType": "address",
          "name": "_loveTokenAddress",
          "type": "address"
        }
      ],
      "stateMutability": "nonpayable",
      "type": "constructor"
    },
    {
      "inputs": [],
      "name": "AlreadyClaimed",
      "type": "error"
    },
    {
      "inputs": [],
      "name": "AmountMustBeGreaterThanZero",
      "type": "error"
    },
    {
      "inputs": [],
      "name": "DistributorPausedErr",
      "type": "error"
    },
    {
      "inputs": [],
      "name": "EthTransferFailed",
      "type": "error"
    },
    {
      "inputs": [],
      "name": "InvalidArgument",
      "type": "error"
    },
    {
      "inputs": [],
      "name": "InvalidProof",
      "type": "error"
    },
    {
      "inputs": [],
      "name": "LoveTransferFailed",
      "type": "error"
    },
    {
      "inputs": [],
      "name": "ZeroAddress",
      "type": "error"
    },
    {
      "anonymous": false,
      "inputs": [
        {
          "indexed": true,
          "internalType": "uint256",
          "name": "season",
          "type": "uint256"
        },
        {
          "indexed": true,
          "internalType": "address",
          "name": "user",
          "type": "address"
        },
        {
          "indexed": false,
          "internalType": "uint256",
          "name": "amount",
          "type": "uint256"
        }
      ],
      "name": "Claimed",
      "type": "event"
    },
    {
      "anonymous": false,
      "inputs": [
        {
          "indexed": false,
          "internalType": "bool",
          "name": "active",
          "type": "bool"
        }
      ],
      "name": "DistributorPaused",
      "type": "event"
    },
    {
      "anonymous": false,
      "inputs": [
        {
          "indexed": true,
          "internalType": "address",
          "name": "oldGameAddress",
          "type": "address"
        },
        {
          "indexed": true,
          "internalType": "address",
          "name": "newGameAddress",
          "type": "address"
        }
      ],
      "name": "GameContractAddressSet",
      "type": "event"
    },
    {
      "anonymous": false,
      "inputs": [
        {
          "indexed": false,
          "internalType": "uint256",
          "name": "amount",
          "type": "uint256"
        }
      ],
      "name": "MigratedEth",
      "type": "event"
    },
    {
      "anonymous": false,
      "inputs": [
        {
          "indexed": false,
          "internalType": "uint256",
          "name": "amount",
          "type": "uint256"
        }
      ],
      "name": "MigratedLove",
      "type": "event"
    },
    {
      "anonymous": false,
      "inputs": [
        {
          "indexed": true,
          "internalType": "address",
          "name": "previousOwner",
          "type": "address"
        },
        {
          "indexed": true,
          "internalType": "address",
          "name": "newOwner",
          "type": "address"
        }
      ],
      "name": "OwnershipTransferred",
      "type": "event"
    },
    {
      "anonymous": false,
      "inputs": [
        {
          "indexed": true,
          "internalType": "uint256",
          "name": "season",
          "type": "uint256"
        },
        {
          "indexed": false,
          "internalType": "bytes32",
          "name": "merkleRoot",
          "type": "bytes32"
        },
        {
          "indexed": false,
          "internalType": "uint256",
          "name": "monIn",
          "type": "uint256"
        },
        {
          "indexed": false,
          "internalType": "uint256",
          "name": "loveForUsers",
          "type": "uint256"
        },
        {
          "indexed": false,
          "internalType": "uint256",
          "name": "loveForLP",
          "type": "uint256"
        }
      ],
      "name": "SeasonExecuted",
      "type": "event"
    },
    {
      "inputs": [
        {
          "internalType": "uint256",
          "name": "_season",
          "type": "uint256"
        },
        {
          "internalType": "uint256",
          "name": "index",
          "type": "uint256"
        },
        {
          "internalType": "uint256",
          "name": "amount",
          "type": "uint256"
        },
        {
          "internalType": "bytes32[]",
          "name": "proof",
          "type": "bytes32[]"
        }
      ],
      "name": "claim",
      "outputs": [],
      "stateMutability": "nonpayable",
      "type": "function"
    },
    {
      "inputs": [
        {
          "internalType": "bytes32",
          "name": "root",
          "type": "bytes32"
        },
        {
          "internalType": "uint256",
          "name": "loveForUsers",
          "type": "uint256"
        }
      ],
      "name": "executeSeason",
      "outputs": [],
      "stateMutability": "nonpayable",
      "type": "function"
    },
    {
      "inputs": [],
      "name": "gameContractAddress",
      "outputs": [
        {
          "internalType": "address",
          "name": "",
          "type": "address"
        }
      ],
      "stateMutability": "view",
      "type": "function"
    },
    {
      "inputs": [],
      "name": "isActive",
      "outputs": [
        {
          "internalType": "bool",
          "name": "",
          "type": "bool"
        }
      ],
      "stateMutability": "view",
      "type": "function"
    },
    {
      "inputs": [],
      "name": "love",
      "outputs": [
        {
          "internalType": "contract ILoveToken",
          "name": "",
          "type": "address"
        }
      ],
      "stateMutability": "view",
      "type": "function"
    },
    {
      "inputs": [],
      "name": "owner",
      "outputs": [
        {
          "internalType": "address",
          "name": "",
          "type": "address"
        }
      ],
      "stateMutability": "view",
      "type": "function"
    },
    {
      "inputs": [],
      "name": "renounceOwnership",
      "outputs": [],
      "stateMutability": "nonpayable",
      "type": "function"
    },
    {
      "inputs": [],
      "name": "season",
      "outputs": [
        {
          "internalType": "uint256",
          "name": "",
          "type": "uint256"
        }
      ],
      "stateMutability": "view",
      "type": "function"
    },
    {
      "inputs": [
        {
          "internalType": "uint256",
          "name": "",
          "type": "uint256"
        }
      ],
      "name": "seasons",
      "outputs": [
        {
          "internalType": "bytes32",
          "name": "root",
          "type": "bytes32"
        },
        {
          "internalType": "uint256",
          "name": "loveLeft",
          "type": "uint256"
        }
      ],
      "stateMutability": "view",
      "type": "function"
    },
    {
      "inputs": [
        {
          "internalType": "bool",
          "name": "_active",
          "type": "bool"
        }
      ],
      "name": "setActive",
      "outputs": [],
      "stateMutability": "nonpayable",
      "type": "function"
    },
    {
      "inputs": [
        {
          "internalType": "address",
          "name": "_newGameContractAddress",
          "type": "address"
        }
      ],
      "name": "setGameContractAddress",
      "outputs": [],
      "stateMutability": "nonpayable",
      "type": "function"
    },
    {
      "inputs": [
        {
          "internalType": "address",
          "name": "newOwner",
          "type": "address"
        }
      ],
      "name": "transferOwnership",
      "outputs": [],
      "stateMutability": "nonpayable",
      "type": "function"
    },
    {
      "inputs": [
        {
          "internalType": "uint256",
          "name": "amt",
          "type": "uint256"
        }
      ],
      "name": "withdrawEth",
      "outputs": [],
      "stateMutability": "nonpayable",
      "type": "function"
    },
    {
      "inputs": [
        {
          "internalType": "uint256",
          "name": "amt",
          "type": "uint256"
        }
      ],
      "name": "withdrawLove",
      "outputs": [],
      "stateMutability": "nonpayable",
      "type": "function"
    },
    {
      "stateMutability": "payable",
      "type": "receive"
    }
  ],
  "bytecode": "0x60a06040526001600260146101000a81548160ff0219169083151502179055503480156200002c57600080fd5b5060405162001eaa38038062001eaa833981810160405281019062000052919062000355565b62000072620000666200021f60201b60201c565b6200022760201b60201c565b60018081905550600073ffffffffffffffffffffffffffffffffffffffff168273ffffffffffffffffffffffffffffffffffffffff1603620000e0576040517fd92e233d00000000000000000000000000000000000000000000000000000000815260040160405180910390fd5b600073ffffffffffffffffffffffffffffffffffffffff168173ffffffffffffffffffffffffffffffffffffffff160362000147576040517fd92e233d00000000000000000000000000000000000000000000000000000000815260040160405180910390fd5b81600260006101000a81548173ffffffffffffffffffffffffffffffffffffffff021916908373ffffffffffffffffffffffffffffffffffffffff1602179055508073ffffffffffffffffffffffffffffffffffffffff1660808173ffffffffffffffffffffffffffffffffffffffff16815250508173ffffffffffffffffffffffffffffffffffffffff16600073ffffffffffffffffffffffffffffffffffffffff167ffa067b9fbdd121ff0f8e7efac5d05bdd652e904dbcc408447b2c5a8b7df9cd7f60405160405180910390a350506200039c565b600033905090565b60008060009054906101000a900473ffffffffffffffffffffffffffffffffffffffff169050816000806101000a81548173ffffffffffffffffffffffffffffffffffffffff021916908373ffffffffffffffffffffffffffffffffffffffff1602179055508173ffffffffffffffffffffffffffffffffffffffff168173ffffffffffffffffffffffffffffffffffffffff167f8be0079c531659141344cd1fd0a4f28419497f9722a3daafe3b4186f6b6457e060405160405180910390a35050565b600080fd5b600073ffffffffffffffffffffffffffffffffffffffff82169050919050565b60006200031d82620002f0565b9050919050565b6200032f8162000310565b81146200033b57600080fd5b50565b6000815190506200034f8162000324565b92915050565b600080604083850312156200036f576200036e620002eb565b5b60006200037f858286016200033e565b925050602062000392858286016200033e565b9150509250929050565b608051611acf620003db60003960008181610354015281816104280152818161063b0152818161073f01528181610b620152610d730152611acf6000f3fe6080604052600436106100e15760003560e01c8063acec338a1161007f578063dff5323111610059578063dff532311461027d578063ea25e176146102a8578063f2fde38b146102d1578063f5d709a1146102fa576100e8565b8063acec338a14610200578063c311d04914610229578063c50b0fb014610252576100e8565b806363df0ef7116100bb57806363df0ef71461016a578063715018a61461019557806377f08cd6146101ac5780638da5cb5b146101d5576100e8565b806303c33296146100ed5780630affb8f61461011657806322f3e2d41461013f576100e8565b366100e857005b600080fd5b3480156100f957600080fd5b50610114600480360381019061010f91906111e3565b610338565b005b34801561012257600080fd5b5061013d60048036038101906101389190611246565b61053c565b005b34801561014b57600080fd5b50610154610819565b60405161016191906112a1565b60405180910390f35b34801561017657600080fd5b5061017f61082c565b60405161018c91906112fd565b60405180910390f35b3480156101a157600080fd5b506101aa610852565b005b3480156101b857600080fd5b506101d360048036038101906101ce9190611344565b610866565b005b3480156101e157600080fd5b506101ea61099a565b6040516101f791906112fd565b60405180910390f35b34801561020c57600080fd5b506102276004803603810190610222919061139d565b6109c3565b005b34801561023557600080fd5b50610250600480360381019061024b91906111e3565b610a1f565b005b34801561025e57600080fd5b50610267610b5a565b60405161027491906113d9565b60405180910390f35b34801561028957600080fd5b50610292610b60565b60405161029f9190611453565b60405180910390f35b3480156102b457600080fd5b506102cf60048036038101906102ca91906114d3565b610b84565b005b3480156102dd57600080fd5b506102f860048036038101906102f39190611344565b610ea7565b005b34801561030657600080fd5b50610321600480360381019061031c91906111e3565b610f2a565b60405161032f92919061156a565b60405180910390f35b610340610f4e565b610348610fcc565b60008114806103ef57507f000000000000000000000000000000000000000000000000000000000000000073ffffffffffffffffffffffffffffffffffffffff166370a08231306040518263ffffffff1660e01b81526004016103ab91906112fd565b602060405180830381865afa1580156103c8573d6000803e3d6000fd5b505050506040513d601f19601f820116820180604052508101906103ec91906115a8565b81115b15610426576040517fa9cb9e0d00000000000000000000000000000000000000000000000000000000815260040160405180910390fd5b7f000000000000000000000000000000000000000000000000000000000000000073ffffffffffffffffffffffffffffffffffffffff1663a9059cbb33836040518363ffffffff1660e01b81526004016104819291906115d5565b6020604051808303816000875af11580156104a0573d6000803e3d6000fd5b505050506040513d601f19601f820116820180604052508101906104c49190611613565b6104fa576040517fe6b015f300000000000000000000000000000000000000000000000000000000815260040160405180910390fd5b7f5036f713b70fa99084d7b7a231fd6c0ad88df9706ac0422b874e6e7ae2eda7248160405161052991906113d9565b60405180910390a161053961101b565b50565b610544610f4e565b61054c610fcc565b600260149054906101000a900460ff16610592576040517fd44b3e9600000000000000000000000000000000000000000000000000000000815260040160405180910390fd5b6000479050600081036105d1576040517f5e85ae7300000000000000000000000000000000000000000000000000000000815260040160405180910390fd5b60006002826105e0919061166f565b90506002816105ef91906116e0565b831115610628576040517fa9cb9e0d00000000000000000000000000000000000000000000000000000000815260040160405180910390fd5b600060028261063791906116e0565b90507f000000000000000000000000000000000000000000000000000000000000000073ffffffffffffffffffffffffffffffffffffffff166340c10f1930846040518363ffffffff1660e01b81526004016106949291906115d5565b600060405180830381600087803b1580156106ae57600080fd5b505af11580156106c2573d6000803e3d6000fd5b50505050604051806040016040528086815260200185815250600460006003600081546106ee90611711565b9190508190558152602001908152602001600020600082015181600001556020820151816001015590505060008185846107289190611759565b6107329190611759565b905060008111156107c9577f000000000000000000000000000000000000000000000000000000000000000073ffffffffffffffffffffffffffffffffffffffff166342966c68826040518263ffffffff1660e01b815260040161079691906113d9565b600060405180830381600087803b1580156107b057600080fd5b505af11580156107c4573d6000803e3d6000fd5b505050505b6003547f53daa19dc1d4511a1df6bd75faf38748ccf9e3e2f0db042a82a9d7d52a2cb9e187868886604051610801949392919061178d565b60405180910390a25050505061081561101b565b5050565b600260149054906101000a900460ff1681565b600260009054906101000a900473ffffffffffffffffffffffffffffffffffffffff1681565b61085a610f4e565b6108646000611024565b565b61086e610f4e565b600073ffffffffffffffffffffffffffffffffffffffff168173ffffffffffffffffffffffffffffffffffffffff16036108d4576040517fd92e233d00000000000000000000000000000000000000000000000000000000815260040160405180910390fd5b6000600260009054906101000a900473ffffffffffffffffffffffffffffffffffffffff16905081600260006101000a81548173ffffffffffffffffffffffffffffffffffffffff021916908373ffffffffffffffffffffffffffffffffffffffff1602179055508173ffffffffffffffffffffffffffffffffffffffff168173ffffffffffffffffffffffffffffffffffffffff167ffa067b9fbdd121ff0f8e7efac5d05bdd652e904dbcc408447b2c5a8b7df9cd7f60405160405180910390a35050565b60008060009054906101000a900473ffffffffffffffffffffffffffffffffffffffff16905090565b6109cb610f4e565b80600260146101000a81548160ff0219169083151502179055507f75a7135630b952083008b93c895b449e3553ce56919e976d19997f97a13332da81604051610a1491906112a1565b60405180910390a150565b610a27610f4e565b610a2f610fcc565b6000811480610a3d57504781115b15610a74576040517fa9cb9e0d00000000000000000000000000000000000000000000000000000000815260040160405180910390fd5b60003373ffffffffffffffffffffffffffffffffffffffff1682604051610a9a90611803565b60006040518083038185875af1925050503d8060008114610ad7576040519150601f19603f3d011682016040523d82523d6000602084013e610adc565b606091505b5050905080610b17576040517f6d963f8800000000000000000000000000000000000000000000000000000000815260040160405180910390fd5b7f5bcc720c6c8cad5d9d0f72598b44b511be3728ee9b842138ef0f235854d0d16a82604051610b4691906113d9565b60405180910390a150610b5761101b565b50565b60035481565b7f000000000000000000000000000000000000000000000000000000000000000081565b610b8c610fcc565b600260149054906101000a900460ff16610bd2576040517fd44b3e9600000000000000000000000000000000000000000000000000000000815260040160405180910390fd5b60006004600087815260200190815260200160002090508381600101541015610c27576040517fa9cb9e0d00000000000000000000000000000000000000000000000000000000815260040160405180910390fd5b600061010086610c3791906116e0565b9050600061010087610c499190611818565b6001901b9050600081600560008b81526020019081526020016000206000858152602001908152602001600020541614610caf576040517f646cf55800000000000000000000000000000000000000000000000000000000815260040160405180910390fd5b80600560008a81526020019081526020016000206000848152602001908152602001600020600082825417925050819055506000873388604051602001610cf8939291906118b2565b604051602081830303815290604052805190602001209050610d2086868660000154846110e8565b610d56576040517f09bde33900000000000000000000000000000000000000000000000000000000815260040160405180910390fd5b86846001016000828254610d6a9190611759565b925050819055507f000000000000000000000000000000000000000000000000000000000000000073ffffffffffffffffffffffffffffffffffffffff1663a9059cbb33896040518363ffffffff1660e01b8152600401610dcc9291906115d5565b6020604051808303816000875af1158015610deb573d6000803e3d6000fd5b505050506040513d601f19601f82011682018060405250810190610e0f9190611613565b610e45576040517fe6b015f300000000000000000000000000000000000000000000000000000000815260040160405180910390fd5b3373ffffffffffffffffffffffffffffffffffffffff16897f4ec90e965519d92681267467f775ada5bd214aa92c0dc93d90a5e880ce9ed02689604051610e8c91906113d9565b60405180910390a350505050610ea061101b565b5050505050565b610eaf610f4e565b600073ffffffffffffffffffffffffffffffffffffffff168173ffffffffffffffffffffffffffffffffffffffff1603610f1e576040517f08c379a0000000000000000000000000000000000000000000000000000000008152600401610f1590611972565b60405180910390fd5b610f2781611024565b50565b60046020528060005260406000206000915090508060000154908060010154905082565b610f56611101565b73ffffffffffffffffffffffffffffffffffffffff16610f7461099a565b73ffffffffffffffffffffffffffffffffffffffff1614610fca576040517f08c379a0000000000000000000000000000000000000000000000000000000008152600401610fc1906119de565b60405180910390fd5b565b600260015403611011576040517f08c379a000000000000000000000000000000000000000000000000000000000815260040161100890611a4a565b60405180910390fd5b6002600181905550565b60018081905550565b60008060009054906101000a900473ffffffffffffffffffffffffffffffffffffffff169050816000806101000a81548173ffffffffffffffffffffffffffffffffffffffff021916908373ffffffffffffffffffffffffffffffffffffffff1602179055508173ffffffffffffffffffffffffffffffffffffffff168173ffffffffffffffffffffffffffffffffffffffff167f8be0079c531659141344cd1fd0a4f28419497f9722a3daafe3b4186f6b6457e060405160405180910390a35050565b6000826110f6868685611109565b149050949350505050565b600033905090565b60008082905060005b85859050811015611155576111408287878481811061113457611133611a6a565b5b90506020020135611161565b9150808061114d90611711565b915050611112565b50809150509392505050565b600081831061117957611174828461118c565b611184565b611183838361118c565b5b905092915050565b600082600052816020526040600020905092915050565b600080fd5b600080fd5b6000819050919050565b6111c0816111ad565b81146111cb57600080fd5b50565b6000813590506111dd816111b7565b92915050565b6000602082840312156111f9576111f86111a3565b5b6000611207848285016111ce565b91505092915050565b6000819050919050565b61122381611210565b811461122e57600080fd5b50565b6000813590506112408161121a565b92915050565b6000806040838503121561125d5761125c6111a3565b5b600061126b85828601611231565b925050602061127c858286016111ce565b9150509250929050565b60008115159050919050565b61129b81611286565b82525050565b60006020820190506112b66000830184611292565b92915050565b600073ffffffffffffffffffffffffffffffffffffffff82169050919050565b60006112e7826112bc565b9050919050565b6112f7816112dc565b82525050565b600060208201905061131260008301846112ee565b92915050565b611321816112dc565b811461132c57600080fd5b50565b60008135905061133e81611318565b92915050565b60006020828403121561135a576113596111a3565b5b60006113688482850161132f565b91505092915050565b61137a81611286565b811461138557600080fd5b50565b60008135905061139781611371565b92915050565b6000602082840312156113b3576113b26111a3565b5b60006113c184828501611388565b91505092915050565b6113d3816111ad565b82525050565b60006020820190506113ee60008301846113ca565b92915050565b6000819050919050565b600061141961141461140f846112bc565b6113f4565b6112bc565b9050919050565b600061142b826113fe565b9050919050565b600061143d82611420565b9050919050565b61144d81611432565b82525050565b60006020820190506114686000830184611444565b92915050565b600080fd5b600080fd5b600080fd5b60008083601f8401126114935761149261146e565b5b8235905067ffffffffffffffff8111156114b0576114af611473565b5b6020830191508360208202830111156114cc576114cb611478565b5b9250929050565b6000806000806000608086880312156114ef576114ee6111a3565b5b60006114fd888289016111ce565b955050602061150e888289016111ce565b945050604061151f888289016111ce565b935050606086013567ffffffffffffffff8111156115405761153f6111a8565b5b61154c8882890161147d565b92509250509295509295909350565b61156481611210565b82525050565b600060408201905061157f600083018561155b565b61158c60208301846113ca565b9392505050565b6000815190506115a2816111b7565b92915050565b6000602082840312156115be576115bd6111a3565b5b60006115cc84828501611593565b91505092915050565b60006040820190506115ea60008301856112ee565b6115f760208301846113ca565b9392505050565b60008151905061160d81611371565b92915050565b600060208284031215611629576116286111a3565b5b6000611637848285016115fe565b91505092915050565b7f4e487b7100000000000000000000000000000000000000000000000000000000600052601160045260246000fd5b600061167a826111ad565b9150611685836111ad565b9250828202611693816111ad565b915082820484148315176116aa576116a9611640565b5b5092915050565b7f4e487b7100000000000000000000000000000000000000000000000000000000600052601260045260246000fd5b60006116eb826111ad565b91506116f6836111ad565b925082611706576117056116b1565b5b828204905092915050565b600061171c826111ad565b91507fffffffffffffffffffffffffffffffffffffffffffffffffffffffffffffffff820361174e5761174d611640565b5b600182019050919050565b6000611764826111ad565b915061176f836111ad565b925082820390508181111561178757611786611640565b5b92915050565b60006080820190506117a2600083018761155b565b6117af60208301866113ca565b6117bc60408301856113ca565b6117c960608301846113ca565b95945050505050565b600081905092915050565b50565b60006117ed6000836117d2565b91506117f8826117dd565b600082019050919050565b600061180e826117e0565b9150819050919050565b6000611823826111ad565b915061182e836111ad565b92508261183e5761183d6116b1565b5b828206905092915050565b6000819050919050565b61186461185f826111ad565b611849565b82525050565b60008160601b9050919050565b60006118828261186a565b9050919050565b600061189482611877565b9050919050565b6118ac6118a7826112dc565b611889565b82525050565b60006118be8286611853565b6020820191506118ce828561189b565b6014820191506118de8284611853565b602082019150819050949350505050565b600082825260208201905092915050565b7f4f776e61626c653a206e6577206f776e657220697320746865207a65726f206160008201527f6464726573730000000000000000000000000000000000000000000000000000602082015250565b600061195c6026836118ef565b915061196782611900565b604082019050919050565b6000602082019050818103600083015261198b8161194f565b9050919050565b7f4f776e61626c653a2063616c6c6572206973206e6f7420746865206f776e6572600082015250565b60006119c86020836118ef565b91506119d382611992565b602082019050919050565b600060208201905081810360008301526119f7816119bb565b9050919050565b7f5265656e7472616e637947756172643a207265656e7472616e742063616c6c00600082015250565b6000611a34601f836118ef565b9150611a3f826119fe565b602082019050919050565b60006020820190508181036000830152611a6381611a27565b9050919050565b7f4e487b7100000000000000000000000000000000000000000000000000000000600052603260045260246000fdfea2646970667358221220c158d63604010301d1aaf7ac163906bd468340b72ce47bb125423e9505dd9ead64736f6c63430008110033",
  "linkReferences": {},
  "deployedLinkReferences": {}
}