{
  "_format": "hh-sol-artifact-1",
  "contractName": "LoveDistributor",
  "sourceName": "contracts/LoveDistributor.sol",
  "abi": [
    {
      "inputs": [
        {
          "internalType": "contract LilnadNFT",
          "name": "_game",
          "type": "address"
        },
        {
          "internalType": "contract LoveToken",
          "name": "_love",
          "type": "address"
        }
      ],
      "stateMutability": "nonpayable",
      "type": "constructor"
    },
    {
      "anonymous": false,
      "inputs": [
        {
          "indexed": false,
          "internalType": "uint256",
          "name": "seasonId",
          "type": "uint256"
        },
        {
          "indexed": false,
          "internalType": "address",
          "name": "user",
          "type": "address"
        },
        {
          "indexed": false,
          "internalType": "uint256",
          "name": "amount",
          "type": "uint256"
        }
      ],
      "name": "Claimed",
      "type": "event"
    },
    {
      "anonymous": false,
      "inputs": [
        {
          "indexed": true,
          "internalType": "address",
          "name": "previousOwner",
          "type": "address"
        },
        {
          "indexed": true,
          "internalType": "address",
          "name": "newOwner",
          "type": "address"
        }
      ],
      "name": "OwnershipTransferred",
      "type": "event"
    },
    {
      "anonymous": false,
      "inputs": [
        {
          "indexed": false,
          "internalType": "uint256",
          "name": "seasonId",
          "type": "uint256"
        },
        {
          "indexed": false,
          "internalType": "uint256",
          "name": "monUsedForSeason",
          "type": "uint256"
        },
        {
          "indexed": false,
          "internalType": "uint256",
          "name": "totalLoveMinted",
          "type": "uint256"
        },
        {
          "indexed": false,
          "internalType": "uint256",
          "name": "loveReservedForUsers",
          "type": "uint256"
        },
        {
          "indexed": false,
          "internalType": "uint256",
          "name": "loveAllocatedForLP",
          "type": "uint256"
        }
      ],
      "name": "SeasonExecuted",
      "type": "event"
    },
    {
      "inputs": [
        {
          "internalType": "uint256",
          "name": "seasonId",
          "type": "uint256"
        },
        {
          "internalType": "uint256",
          "name": "amount",
          "type": "uint256"
        },
        {
          "internalType": "bytes32[]",
          "name": "proof",
          "type": "bytes32[]"
        }
      ],
      "name": "claim",
      "outputs": [],
      "stateMutability": "nonpayable",
      "type": "function"
    },
    {
      "inputs": [
        {
          "internalType": "uint256",
          "name": "",
          "type": "uint256"
        },
        {
          "internalType": "address",
          "name": "",
          "type": "address"
        }
      ],
      "name": "claimed",
      "outputs": [
        {
          "internalType": "bool",
          "name": "",
          "type": "bool"
        }
      ],
      "stateMutability": "view",
      "type": "function"
    },
    {
      "inputs": [
        {
          "internalType": "bytes32",
          "name": "root",
          "type": "bytes32"
        },
        {
          "internalType": "uint256",
          "name": "totalLoveForUsersExpected",
          "type": "uint256"
        }
      ],
      "name": "executeSeason",
      "outputs": [],
      "stateMutability": "nonpayable",
      "type": "function"
    },
    {
      "inputs": [],
      "name": "game",
      "outputs": [
        {
          "internalType": "contract LilnadNFT",
          "name": "",
          "type": "address"
        }
      ],
      "stateMutability": "view",
      "type": "function"
    },
    {
      "inputs": [],
      "name": "love",
      "outputs": [
        {
          "internalType": "contract LoveToken",
          "name": "",
          "type": "address"
        }
      ],
      "stateMutability": "view",
      "type": "function"
    },
    {
      "inputs": [],
      "name": "owner",
      "outputs": [
        {
          "internalType": "address",
          "name": "",
          "type": "address"
        }
      ],
      "stateMutability": "view",
      "type": "function"
    },
    {
      "inputs": [],
      "name": "renounceOwnership",
      "outputs": [],
      "stateMutability": "nonpayable",
      "type": "function"
    },
    {
      "inputs": [],
      "name": "seasonCounter",
      "outputs": [
        {
          "internalType": "uint256",
          "name": "",
          "type": "uint256"
        }
      ],
      "stateMutability": "view",
      "type": "function"
    },
    {
      "inputs": [
        {
          "internalType": "uint256",
          "name": "",
          "type": "uint256"
        }
      ],
      "name": "seasons",
      "outputs": [
        {
          "internalType": "bytes32",
          "name": "root",
          "type": "bytes32"
        },
        {
          "internalType": "uint256",
          "name": "loveReserved",
          "type": "uint256"
        }
      ],
      "stateMutability": "view",
      "type": "function"
    },
    {
      "inputs": [
        {
          "internalType": "address",
          "name": "newOwner",
          "type": "address"
        }
      ],
      "name": "transferOwnership",
      "outputs": [],
      "stateMutability": "nonpayable",
      "type": "function"
    },
    {
      "inputs": [
        {
          "internalType": "uint256",
          "name": "amount",
          "type": "uint256"
        }
      ],
      "name": "withdrawEth",
      "outputs": [],
      "stateMutability": "nonpayable",
      "type": "function"
    },
    {
      "inputs": [
        {
          "internalType": "uint256",
          "name": "amount",
          "type": "uint256"
        }
      ],
      "name": "withdrawLove",
      "outputs": [],
      "stateMutability": "nonpayable",
      "type": "function"
    },
    {
      "stateMutability": "payable",
      "type": "receive"
    }
  ],
  "bytecode": "0x60c06040523480156200001157600080fd5b5060405162001cf038038062001cf0833981810160405281019062000037919062000271565b620000576200004b620000ce60201b60201c565b620000d660201b60201c565b600180819055508173ffffffffffffffffffffffffffffffffffffffff1660808173ffffffffffffffffffffffffffffffffffffffff16815250508073ffffffffffffffffffffffffffffffffffffffff1660a08173ffffffffffffffffffffffffffffffffffffffff16815250505050620002b8565b600033905090565b60008060009054906101000a900473ffffffffffffffffffffffffffffffffffffffff169050816000806101000a81548173ffffffffffffffffffffffffffffffffffffffff021916908373ffffffffffffffffffffffffffffffffffffffff1602179055508173ffffffffffffffffffffffffffffffffffffffff168173ffffffffffffffffffffffffffffffffffffffff167f8be0079c531659141344cd1fd0a4f28419497f9722a3daafe3b4186f6b6457e060405160405180910390a35050565b600080fd5b600073ffffffffffffffffffffffffffffffffffffffff82169050919050565b6000620001cc826200019f565b9050919050565b6000620001e082620001bf565b9050919050565b620001f281620001d3565b8114620001fe57600080fd5b50565b6000815190506200021281620001e7565b92915050565b600062000225826200019f565b9050919050565b6000620002398262000218565b9050919050565b6200024b816200022c565b81146200025757600080fd5b50565b6000815190506200026b8162000240565b92915050565b600080604083850312156200028b576200028a6200019a565b5b60006200029b8582860162000201565b9250506020620002ae858286016200025a565b9150509250929050565b60805160a0516119f6620002fa600039600081816102cc0152818161042101528181610534015281816108630152610a7201526000610a4e01526119f66000f3fe6080604052600436106100ab5760003560e01c8063ae0b51df11610064578063ae0b51df146101b3578063c311d049146101dc578063c3fe3e2814610205578063dff5323114610230578063f2fde38b1461025b578063f5d709a114610284576100b2565b806303c33296146100b75780630affb8f6146100e0578063120aa877146101095780631ed29aae14610146578063715018a6146101715780638da5cb5b14610188576100b2565b366100b257005b600080fd5b3480156100c357600080fd5b506100de60048036038101906100d99190610e57565b6102c2565b005b3480156100ec57600080fd5b5061010760048036038101906101029190610eba565b610373565b005b34801561011557600080fd5b50610130600480360381019061012b9190610f58565b61060f565b60405161013d9190610fb3565b60405180910390f35b34801561015257600080fd5b5061015b61063e565b6040516101689190610fdd565b60405180910390f35b34801561017d57600080fd5b50610186610644565b005b34801561019457600080fd5b5061019d610658565b6040516101aa9190611007565b60405180910390f35b3480156101bf57600080fd5b506101da60048036038101906101d59190611087565b610681565b005b3480156101e857600080fd5b5061020360048036038101906101fe9190610e57565b61094a565b005b34801561021157600080fd5b5061021a610a4c565b604051610227919061115a565b60405180910390f35b34801561023c57600080fd5b50610245610a70565b60405161025291906111a8565b60405180910390f35b34801561026757600080fd5b50610282600480360381019061027d91906111c3565b610a94565b005b34801561029057600080fd5b506102ab60048036038101906102a69190610e57565b610b17565b6040516102b99291906111ff565b60405180910390f35b6102ca610b3b565b7f000000000000000000000000000000000000000000000000000000000000000073ffffffffffffffffffffffffffffffffffffffff1663a9059cbb61030e610658565b836040518363ffffffff1660e01b815260040161032c929190611228565b6020604051808303816000875af115801561034b573d6000803e3d6000fd5b505050506040513d601f19601f8201168201806040525081019061036f919061127d565b5050565b61037b610b3b565b610383610bb9565b6000479050600081116103cb576040517f08c379a00000000000000000000000000000000000000000000000000000000081526004016103c29061132d565b60405180910390fd5b60006002826103da919061137c565b90508083111561041f576040517f08c379a00000000000000000000000000000000000000000000000000000000081526004016104169061140a565b60405180910390fd5b7f000000000000000000000000000000000000000000000000000000000000000073ffffffffffffffffffffffffffffffffffffffff166340c10f1930836040518363ffffffff1660e01b815260040161047a929190611228565b600060405180830381600087803b15801561049457600080fd5b505af11580156104a8573d6000803e3d6000fd5b505050506000839050600083905060008282856104c5919061142a565b6104cf919061142a565b905060006004600081546104e29061145e565b919050819055905060405180604001604052808981526020018581525060026000838152602001908152602001600020600082015181600001556020820151816001015590505060008211156105be577f000000000000000000000000000000000000000000000000000000000000000073ffffffffffffffffffffffffffffffffffffffff166342966c68836040518263ffffffff1660e01b815260040161058b9190610fdd565b600060405180830381600087803b1580156105a557600080fd5b505af11580156105b9573d6000803e3d6000fd5b505050505b7f8203a4581e2adc0e9efb30bb6e5c127f2f189f9b8f402e8fddb84e6277803a8581878787876040516105f59594939291906114a6565b60405180910390a150505050505061060b610c08565b5050565b60036020528160005260406000206020528060005260406000206000915091509054906101000a900460ff1681565b60045481565b61064c610b3b565b6106566000610c11565b565b60008060009054906101000a900473ffffffffffffffffffffffffffffffffffffffff16905090565b610689610bb9565b60006002600086815260200190815260200160002090506003600086815260200190815260200160002060003373ffffffffffffffffffffffffffffffffffffffff1673ffffffffffffffffffffffffffffffffffffffff16815260200190815260200160002060009054906101000a900460ff161561073e576040517f08c379a000000000000000000000000000000000000000000000000000000000815260040161073590611545565b60405180910390fd5b61075781600001546107503387610cd5565b8585610d08565b610796576040517f08c379a000000000000000000000000000000000000000000000000000000000815260040161078d906115b1565b60405180910390fd5b60016003600087815260200190815260200160002060003373ffffffffffffffffffffffffffffffffffffffff1673ffffffffffffffffffffffffffffffffffffffff16815260200190815260200160002060006101000a81548160ff0219169083151502179055508381600101541015610846576040517f08c379a000000000000000000000000000000000000000000000000000000000815260040161083d9061161d565b60405180910390fd5b8381600101600082825461085a919061142a565b925050819055507f000000000000000000000000000000000000000000000000000000000000000073ffffffffffffffffffffffffffffffffffffffff1663a9059cbb33866040518363ffffffff1660e01b81526004016108bc929190611228565b6020604051808303816000875af11580156108db573d6000803e3d6000fd5b505050506040513d601f19601f820116820180604052508101906108ff919061127d565b507f4ec90e965519d92681267467f775ada5bd214aa92c0dc93d90a5e880ce9ed0268533866040516109339392919061163d565b60405180910390a150610944610c08565b50505050565b610952610b3b565b80471015610995576040517f08c379a000000000000000000000000000000000000000000000000000000000815260040161098c906116c0565b60405180910390fd5b600061099f610658565b73ffffffffffffffffffffffffffffffffffffffff16826040516109c290611711565b60006040518083038185875af1925050503d80600081146109ff576040519150601f19603f3d011682016040523d82523d6000602084013e610a04565b606091505b5050905080610a48576040517f08c379a0000000000000000000000000000000000000000000000000000000008152600401610a3f90611772565b60405180910390fd5b5050565b7f000000000000000000000000000000000000000000000000000000000000000081565b7f000000000000000000000000000000000000000000000000000000000000000081565b610a9c610b3b565b600073ffffffffffffffffffffffffffffffffffffffff168173ffffffffffffffffffffffffffffffffffffffff1603610b0b576040517f08c379a0000000000000000000000000000000000000000000000000000000008152600401610b0290611804565b60405180910390fd5b610b1481610c11565b50565b60026020528060005260406000206000915090508060000154908060010154905082565b610b43610d60565b73ffffffffffffffffffffffffffffffffffffffff16610b61610658565b73ffffffffffffffffffffffffffffffffffffffff1614610bb7576040517f08c379a0000000000000000000000000000000000000000000000000000000008152600401610bae90611870565b60405180910390fd5b565b600260015403610bfe576040517f08c379a0000000000000000000000000000000000000000000000000000000008152600401610bf5906118dc565b60405180910390fd5b6002600181905550565b60018081905550565b60008060009054906101000a900473ffffffffffffffffffffffffffffffffffffffff169050816000806101000a81548173ffffffffffffffffffffffffffffffffffffffff021916908373ffffffffffffffffffffffffffffffffffffffff1602179055508173ffffffffffffffffffffffffffffffffffffffff168173ffffffffffffffffffffffffffffffffffffffff167f8be0079c531659141344cd1fd0a4f28419497f9722a3daafe3b4186f6b6457e060405160405180910390a35050565b60008282604051602001610cea929190611965565b60405160208183030381529060405280519060200120905092915050565b6000610d56838380806020026020016040519081016040528093929190818152602001838360200280828437600081840152601f19601f820116905080830192505050505050508686610d68565b9050949350505050565b600033905090565b600082610d758584610d7f565b1490509392505050565b60008082905060005b8451811015610dca57610db582868381518110610da857610da7611991565b5b6020026020010151610dd5565b91508080610dc29061145e565b915050610d88565b508091505092915050565b6000818310610ded57610de88284610e00565b610df8565b610df78383610e00565b5b905092915050565b600082600052816020526040600020905092915050565b600080fd5b600080fd5b6000819050919050565b610e3481610e21565b8114610e3f57600080fd5b50565b600081359050610e5181610e2b565b92915050565b600060208284031215610e6d57610e6c610e17565b5b6000610e7b84828501610e42565b91505092915050565b6000819050919050565b610e9781610e84565b8114610ea257600080fd5b50565b600081359050610eb481610e8e565b92915050565b60008060408385031215610ed157610ed0610e17565b5b6000610edf85828601610ea5565b9250506020610ef085828601610e42565b9150509250929050565b600073ffffffffffffffffffffffffffffffffffffffff82169050919050565b6000610f2582610efa565b9050919050565b610f3581610f1a565b8114610f4057600080fd5b50565b600081359050610f5281610f2c565b92915050565b60008060408385031215610f6f57610f6e610e17565b5b6000610f7d85828601610e42565b9250506020610f8e85828601610f43565b9150509250929050565b60008115159050919050565b610fad81610f98565b82525050565b6000602082019050610fc86000830184610fa4565b92915050565b610fd781610e21565b82525050565b6000602082019050610ff26000830184610fce565b92915050565b61100181610f1a565b82525050565b600060208201905061101c6000830184610ff8565b92915050565b600080fd5b600080fd5b600080fd5b60008083601f84011261104757611046611022565b5b8235905067ffffffffffffffff81111561106457611063611027565b5b6020830191508360208202830111156110805761107f61102c565b5b9250929050565b600080600080606085870312156110a1576110a0610e17565b5b60006110af87828801610e42565b94505060206110c087828801610e42565b935050604085013567ffffffffffffffff8111156110e1576110e0610e1c565b5b6110ed87828801611031565b925092505092959194509250565b6000819050919050565b600061112061111b61111684610efa565b6110fb565b610efa565b9050919050565b600061113282611105565b9050919050565b600061114482611127565b9050919050565b61115481611139565b82525050565b600060208201905061116f600083018461114b565b92915050565b600061118082611105565b9050919050565b600061119282611175565b9050919050565b6111a281611187565b82525050565b60006020820190506111bd6000830184611199565b92915050565b6000602082840312156111d9576111d8610e17565b5b60006111e784828501610f43565b91505092915050565b6111f981610e84565b82525050565b600060408201905061121460008301856111f0565b6112216020830184610fce565b9392505050565b600060408201905061123d6000830185610ff8565b61124a6020830184610fce565b9392505050565b61125a81610f98565b811461126557600080fd5b50565b60008151905061127781611251565b92915050565b60006020828403121561129357611292610e17565b5b60006112a184828501611268565b91505092915050565b600082825260208201905092915050565b7f4c6f76654469737472696275746f723a204e6f204d4f4e20696e20726577617260008201527f6420706f6f6c20746f20737461727420736561736f6e00000000000000000000602082015250565b60006113176036836112aa565b9150611322826112bb565b604082019050919050565b600060208201905081810360008301526113468161130a565b9050919050565b7f4e487b7100000000000000000000000000000000000000000000000000000000600052601160045260246000fd5b600061138782610e21565b915061139283610e21565b92508282026113a081610e21565b915082820484148315176113b7576113b661134d565b5b5092915050565b7f6361700000000000000000000000000000000000000000000000000000000000600082015250565b60006113f46003836112aa565b91506113ff826113be565b602082019050919050565b60006020820190508181036000830152611423816113e7565b9050919050565b600061143582610e21565b915061144083610e21565b92508282039050818111156114585761145761134d565b5b92915050565b600061146982610e21565b91507fffffffffffffffffffffffffffffffffffffffffffffffffffffffffffffffff820361149b5761149a61134d565b5b600182019050919050565b600060a0820190506114bb6000830188610fce565b6114c86020830187610fce565b6114d56040830186610fce565b6114e26060830185610fce565b6114ef6080830184610fce565b9695505050505050565b7f636c61696d656400000000000000000000000000000000000000000000000000600082015250565b600061152f6007836112aa565b915061153a826114f9565b602082019050919050565b6000602082019050818103600083015261155e81611522565b9050919050565b7f6261642070726f6f660000000000000000000000000000000000000000000000600082015250565b600061159b6009836112aa565b91506115a682611565565b602082019050919050565b600060208201905081810360008301526115ca8161158e565b9050919050565b7f6578636565640000000000000000000000000000000000000000000000000000600082015250565b60006116076006836112aa565b9150611612826115d1565b602082019050919050565b60006020820190508181036000830152611636816115fa565b9050919050565b60006060820190506116526000830186610fce565b61165f6020830185610ff8565b61166c6040830184610fce565b949350505050565b7f696e73756666696369656e740000000000000000000000000000000000000000600082015250565b60006116aa600c836112aa565b91506116b582611674565b602082019050919050565b600060208201905081810360008301526116d98161169d565b9050919050565b600081905092915050565b50565b60006116fb6000836116e0565b9150611706826116eb565b600082019050919050565b600061171c826116ee565b9150819050919050565b7f7472616e73666572206661696c00000000000000000000000000000000000000600082015250565b600061175c600d836112aa565b915061176782611726565b602082019050919050565b6000602082019050818103600083015261178b8161174f565b9050919050565b7f4f776e61626c653a206e6577206f776e657220697320746865207a65726f206160008201527f6464726573730000000000000000000000000000000000000000000000000000602082015250565b60006117ee6026836112aa565b91506117f982611792565b604082019050919050565b6000602082019050818103600083015261181d816117e1565b9050919050565b7f4f776e61626c653a2063616c6c6572206973206e6f7420746865206f776e6572600082015250565b600061185a6020836112aa565b915061186582611824565b602082019050919050565b600060208201905081810360008301526118898161184d565b9050919050565b7f5265656e7472616e637947756172643a207265656e7472616e742063616c6c00600082015250565b60006118c6601f836112aa565b91506118d182611890565b602082019050919050565b600060208201905081810360008301526118f5816118b9565b9050919050565b60008160601b9050919050565b6000611914826118fc565b9050919050565b600061192682611909565b9050919050565b61193e61193982610f1a565b61191b565b82525050565b6000819050919050565b61195f61195a82610e21565b611944565b82525050565b6000611971828561192d565b601482019150611981828461194e565b6020820191508190509392505050565b7f4e487b7100000000000000000000000000000000000000000000000000000000600052603260045260246000fdfea26469706673582212208de2d7b0898d129edf5d28ea5422a0df146adb41f6544e4635248078a30b2cd964736f6c63430008110033",
  "linkReferences": {},
  "deployedLinkReferences": {}
}