{
  "_format": "hh-sol-artifact-1",
  "contractName": "LilnadNFT",
  "sourceName": "contracts/LilnadNFT.sol",
  "abi": [
    {
      "inputs": [
        {
          "internalType": "address",
          "name": "_initialDevWallet",
          "type": "address"
        }
      ],
      "stateMutability": "nonpayable",
      "type": "constructor"
    },
    {
      "inputs": [],
      "name": "AlreadyCommitted",
      "type": "error"
    },
    {
      "inputs": [],
      "name": "AmountMustBeGreaterThanZero",
      "type": "error"
    },
    {
      "inputs": [],
      "name": "BlockhashUnavailable",
      "type": "error"
    },
    {
      "inputs": [],
      "name": "BulkMintFee",
      "type": "error"
    },
    {
      "inputs": [],
      "name": "CommitCooldownActive",
      "type": "error"
    },
    {
      "inputs": [],
      "name": "DevWithdrawalFailed",
      "type": "error"
    },
    {
      "inputs": [],
      "name": "InsufficientBalanceForWithdrawal",
      "type": "error"
    },
    {
      "inputs": [],
      "name": "InvalidCommitReveal",
      "type": "error"
    },
    {
      "inputs": [],
      "name": "InvalidRank",
      "type": "error"
    },
    {
      "inputs": [],
      "name": "MintFeeRequired",
      "type": "error"
    },
    {
      "inputs": [],
      "name": "MonWithdrawalFailed",
      "type": "error"
    },
    {
      "inputs": [],
      "name": "NewMinRevealLagInvalid",
      "type": "error"
    },
    {
      "inputs": [],
      "name": "NewMintFeeMustBePositive",
      "type": "error"
    },
    {
      "inputs": [],
      "name": "NewRevealBlockLimitInvalid",
      "type": "error"
    },
    {
      "inputs": [],
      "name": "NoPendingCommit",
      "type": "error"
    },
    {
      "inputs": [],
      "name": "RevealTooEarly",
      "type": "error"
    },
    {
      "inputs": [],
      "name": "SoulboundToken",
      "type": "error"
    },
    {
      "inputs": [],
      "name": "URIsLengthMismatch",
      "type": "error"
    },
    {
      "inputs": [],
      "name": "UserAddressCannotBeZero",
      "type": "error"
    },
    {
      "inputs": [],
      "name": "UserHasNoPendingCommitment",
      "type": "error"
    },
    {
      "anonymous": false,
      "inputs": [
        {
          "indexed": true,
          "internalType": "address",
          "name": "user",
          "type": "address"
        },
        {
          "indexed": true,
          "internalType": "address",
          "name": "admin",
          "type": "address"
        }
      ],
      "name": "AdminCommitmentCleared",
      "type": "event"
    },
    {
      "anonymous": false,
      "inputs": [
        {
          "indexed": true,
          "internalType": "address",
          "name": "owner",
          "type": "address"
        },
        {
          "indexed": true,
          "internalType": "address",
          "name": "approved",
          "type": "address"
        },
        {
          "indexed": true,
          "internalType": "uint256",
          "name": "tokenId",
          "type": "uint256"
        }
      ],
      "name": "Approval",
      "type": "event"
    },
    {
      "anonymous": false,
      "inputs": [
        {
          "indexed": true,
          "internalType": "address",
          "name": "owner",
          "type": "address"
        },
        {
          "indexed": true,
          "internalType": "address",
          "name": "operator",
          "type": "address"
        },
        {
          "indexed": false,
          "internalType": "bool",
          "name": "approved",
          "type": "bool"
        }
      ],
      "name": "ApprovalForAll",
      "type": "event"
    },
    {
      "anonymous": false,
      "inputs": [
        {
          "indexed": false,
          "internalType": "string",
          "name": "newBaseURI",
          "type": "string"
        }
      ],
      "name": "BaseURISet",
      "type": "event"
    },
    {
      "anonymous": false,
      "inputs": [
        {
          "indexed": true,
          "internalType": "address",
          "name": "user",
          "type": "address"
        },
        {
          "indexed": false,
          "internalType": "bytes32",
          "name": "commitment",
          "type": "bytes32"
        }
      ],
      "name": "Commit",
      "type": "event"
    },
    {
      "anonymous": false,
      "inputs": [
        {
          "indexed": true,
          "internalType": "address",
          "name": "to",
          "type": "address"
        },
        {
          "indexed": false,
          "internalType": "uint256",
          "name": "amount",
          "type": "uint256"
        }
      ],
      "name": "DevFeeTransferred",
      "type": "event"
    },
    {
      "anonymous": false,
      "inputs": [
        {
          "indexed": true,
          "internalType": "uint256",
          "name": "tokenId",
          "type": "uint256"
        }
      ],
      "name": "Died",
      "type": "event"
    },
    {
      "anonymous": false,
      "inputs": [
        {
          "indexed": false,
          "internalType": "uint32",
          "name": "oldLag",
          "type": "uint32"
        },
        {
          "indexed": false,
          "internalType": "uint32",
          "name": "newLag",
          "type": "uint32"
        }
      ],
      "name": "MinRevealLagBlocksSet",
      "type": "event"
    },
    {
      "anonymous": false,
      "inputs": [
        {
          "indexed": false,
          "internalType": "uint256",
          "name": "newMintFee",
          "type": "uint256"
        }
      ],
      "name": "MintFeeSet",
      "type": "event"
    },
    {
      "anonymous": false,
      "inputs": [
        {
          "indexed": true,
          "internalType": "address",
          "name": "previousOwner",
          "type": "address"
        },
        {
          "indexed": true,
          "internalType": "address",
          "name": "newOwner",
          "type": "address"
        }
      ],
      "name": "OwnershipTransferred",
      "type": "event"
    },
    {
      "anonymous": false,
      "inputs": [
        {
          "indexed": true,
          "internalType": "address",
          "name": "user",
          "type": "address"
        },
        {
          "indexed": true,
          "internalType": "uint256",
          "name": "tokenId",
          "type": "uint256"
        },
        {
          "indexed": false,
          "internalType": "string",
          "name": "uri",
          "type": "string"
        }
      ],
      "name": "RankFApplied",
      "type": "event"
    },
    {
      "anonymous": false,
      "inputs": [
        {
          "indexed": true,
          "internalType": "address",
          "name": "user",
          "type": "address"
        },
        {
          "indexed": true,
          "internalType": "uint256",
          "name": "tokenId",
          "type": "uint256"
        },
        {
          "indexed": false,
          "internalType": "uint8",
          "name": "rank",
          "type": "uint8"
        },
        {
          "indexed": false,
          "internalType": "string",
          "name": "uri",
          "type": "string"
        }
      ],
      "name": "RevealAndMint",
      "type": "event"
    },
    {
      "anonymous": false,
      "inputs": [
        {
          "indexed": false,
          "internalType": "uint256",
          "name": "oldLimit",
          "type": "uint256"
        },
        {
          "indexed": false,
          "internalType": "uint256",
          "name": "newLimit",
          "type": "uint256"
        }
      ],
      "name": "RevealBlockLimitSet",
      "type": "event"
    },
    {
      "anonymous": false,
      "inputs": [
        {
          "indexed": true,
          "internalType": "address",
          "name": "from",
          "type": "address"
        },
        {
          "indexed": true,
          "internalType": "address",
          "name": "to",
          "type": "address"
        },
        {
          "indexed": true,
          "internalType": "uint256",
          "name": "tokenId",
          "type": "uint256"
        }
      ],
      "name": "Transfer",
      "type": "event"
    },
    {
      "stateMutability": "payable",
      "type": "fallback"
    },
    {
      "inputs": [],
      "name": "COMMIT_COOLDOWN_BLOCKS",
      "outputs": [
        {
          "internalType": "uint32",
          "name": "",
          "type": "uint32"
        }
      ],
      "stateMutability": "view",
      "type": "function"
    },
    {
      "inputs": [],
      "name": "MINT_FEE",
      "outputs": [
        {
          "internalType": "uint256",
          "name": "",
          "type": "uint256"
        }
      ],
      "stateMutability": "view",
      "type": "function"
    },
    {
      "inputs": [],
      "name": "RANK_F_ID",
      "outputs": [
        {
          "internalType": "uint8",
          "name": "",
          "type": "uint8"
        }
      ],
      "stateMutability": "view",
      "type": "function"
    },
    {
      "inputs": [
        {
          "internalType": "address",
          "name": "userAddress",
          "type": "address"
        }
      ],
      "name": "adminClearUserCommitment",
      "outputs": [],
      "stateMutability": "nonpayable",
      "type": "function"
    },
    {
      "inputs": [
        {
          "internalType": "address",
          "name": "",
          "type": "address"
        },
        {
          "internalType": "uint256",
          "name": "",
          "type": "uint256"
        }
      ],
      "name": "approve",
      "outputs": [],
      "stateMutability": "nonpayable",
      "type": "function"
    },
    {
      "inputs": [
        {
          "internalType": "address",
          "name": "owner",
          "type": "address"
        }
      ],
      "name": "balanceOf",
      "outputs": [
        {
          "internalType": "uint256",
          "name": "",
          "type": "uint256"
        }
      ],
      "stateMutability": "view",
      "type": "function"
    },
    {
      "inputs": [
        {
          "internalType": "address",
          "name": "",
          "type": "address"
        }
      ],
      "name": "commitData",
      "outputs": [
        {
          "internalType": "bytes32",
          "name": "commitment",
          "type": "bytes32"
        },
        {
          "internalType": "uint32",
          "name": "blockNumber",
          "type": "uint32"
        }
      ],
      "stateMutability": "view",
      "type": "function"
    },
    {
      "inputs": [
        {
          "internalType": "string",
          "name": "uri",
          "type": "string"
        },
        {
          "internalType": "bytes32",
          "name": "salt",
          "type": "bytes32"
        }
      ],
      "name": "commitMint",
      "outputs": [],
      "stateMutability": "payable",
      "type": "function"
    },
    {
      "inputs": [
        {
          "internalType": "string[]",
          "name": "uris",
          "type": "string[]"
        },
        {
          "internalType": "bytes32",
          "name": "salt",
          "type": "bytes32"
        }
      ],
      "name": "commitMintPack10",
      "outputs": [],
      "stateMutability": "payable",
      "type": "function"
    },
    {
      "inputs": [
        {
          "internalType": "string[]",
          "name": "uris",
          "type": "string[]"
        },
        {
          "internalType": "bytes32",
          "name": "salt",
          "type": "bytes32"
        }
      ],
      "name": "commitMintPack25",
      "outputs": [],
      "stateMutability": "payable",
      "type": "function"
    },
    {
      "inputs": [],
      "name": "devPool",
      "outputs": [
        {
          "internalType": "uint256",
          "name": "",
          "type": "uint256"
        }
      ],
      "stateMutability": "view",
      "type": "function"
    },
    {
      "inputs": [],
      "name": "devWallet",
      "outputs": [
        {
          "internalType": "address",
          "name": "",
          "type": "address"
        }
      ],
      "stateMutability": "view",
      "type": "function"
    },
    {
      "inputs": [
        {
          "internalType": "uint256",
          "name": "tokenId",
          "type": "uint256"
        }
      ],
      "name": "getApproved",
      "outputs": [
        {
          "internalType": "address",
          "name": "",
          "type": "address"
        }
      ],
      "stateMutability": "view",
      "type": "function"
    },
    {
      "inputs": [
        {
          "internalType": "uint256",
          "name": "tokenId",
          "type": "uint256"
        }
      ],
      "name": "getNftDetails",
      "outputs": [
        {
          "internalType": "uint256",
          "name": "startTimestamp",
          "type": "uint256"
        },
        {
          "internalType": "uint256",
          "name": "expirationTimestamp",
          "type": "uint256"
        },
        {
          "internalType": "uint8",
          "name": "rank",
          "type": "uint8"
        },
        {
          "internalType": "bool",
          "name": "isDead",
          "type": "bool"
        },
        {
          "internalType": "uint256",
          "name": "scorePerSecond",
          "type": "uint256"
        },
        {
          "internalType": "string",
          "name": "currentTokenURI",
          "type": "string"
        }
      ],
      "stateMutability": "view",
      "type": "function"
    },
    {
      "inputs": [
        {
          "internalType": "address",
          "name": "owner",
          "type": "address"
        },
        {
          "internalType": "address",
          "name": "operator",
          "type": "address"
        }
      ],
      "name": "isApprovedForAll",
      "outputs": [
        {
          "internalType": "bool",
          "name": "",
          "type": "bool"
        }
      ],
      "stateMutability": "view",
      "type": "function"
    },
    {
      "inputs": [
        {
          "internalType": "address",
          "name": "",
          "type": "address"
        }
      ],
      "name": "lastCommitBlockOf",
      "outputs": [
        {
          "internalType": "uint256",
          "name": "",
          "type": "uint256"
        }
      ],
      "stateMutability": "view",
      "type": "function"
    },
    {
      "inputs": [],
      "name": "minRevealLagBlocks",
      "outputs": [
        {
          "internalType": "uint32",
          "name": "",
          "type": "uint32"
        }
      ],
      "stateMutability": "view",
      "type": "function"
    },
    {
      "inputs": [],
      "name": "name",
      "outputs": [
        {
          "internalType": "string",
          "name": "",
          "type": "string"
        }
      ],
      "stateMutability": "view",
      "type": "function"
    },
    {
      "inputs": [],
      "name": "owner",
      "outputs": [
        {
          "internalType": "address",
          "name": "",
          "type": "address"
        }
      ],
      "stateMutability": "view",
      "type": "function"
    },
    {
      "inputs": [
        {
          "internalType": "uint256",
          "name": "tokenId",
          "type": "uint256"
        }
      ],
      "name": "ownerOf",
      "outputs": [
        {
          "internalType": "address",
          "name": "",
          "type": "address"
        }
      ],
      "stateMutability": "view",
      "type": "function"
    },
    {
      "inputs": [
        {
          "internalType": "uint8",
          "name": "",
          "type": "uint8"
        }
      ],
      "name": "rankData",
      "outputs": [
        {
          "internalType": "uint256",
          "name": "S",
          "type": "uint256"
        },
        {
          "internalType": "uint256",
          "name": "T",
          "type": "uint256"
        }
      ],
      "stateMutability": "view",
      "type": "function"
    },
    {
      "inputs": [],
      "name": "renounceOwnership",
      "outputs": [],
      "stateMutability": "nonpayable",
      "type": "function"
    },
    {
      "inputs": [],
      "name": "revealBlockLimit",
      "outputs": [
        {
          "internalType": "uint256",
          "name": "",
          "type": "uint256"
        }
      ],
      "stateMutability": "view",
      "type": "function"
    },
    {
      "inputs": [
        {
          "internalType": "string",
          "name": "uri",
          "type": "string"
        },
        {
          "internalType": "bytes32",
          "name": "salt",
          "type": "bytes32"
        }
      ],
      "name": "revealMint",
      "outputs": [],
      "stateMutability": "nonpayable",
      "type": "function"
    },
    {
      "inputs": [
        {
          "internalType": "string[]",
          "name": "uris",
          "type": "string[]"
        },
        {
          "internalType": "bytes32",
          "name": "salt",
          "type": "bytes32"
        }
      ],
      "name": "revealMintPack10",
      "outputs": [],
      "stateMutability": "nonpayable",
      "type": "function"
    },
    {
      "inputs": [
        {
          "internalType": "string[]",
          "name": "uris",
          "type": "string[]"
        },
        {
          "internalType": "bytes32",
          "name": "salt",
          "type": "bytes32"
        }
      ],
      "name": "revealMintPack25",
      "outputs": [],
      "stateMutability": "nonpayable",
      "type": "function"
    },
    {
      "inputs": [
        {
          "internalType": "address",
          "name": "",
          "type": "address"
        },
        {
          "internalType": "address",
          "name": "",
          "type": "address"
        },
        {
          "internalType": "uint256",
          "name": "",
          "type": "uint256"
        }
      ],
      "name": "safeTransferFrom",
      "outputs": [],
      "stateMutability": "nonpayable",
      "type": "function"
    },
    {
      "inputs": [
        {
          "internalType": "address",
          "name": "",
          "type": "address"
        },
        {
          "internalType": "address",
          "name": "",
          "type": "address"
        },
        {
          "internalType": "uint256",
          "name": "",
          "type": "uint256"
        },
        {
          "internalType": "bytes",
          "name": "",
          "type": "bytes"
        }
      ],
      "name": "safeTransferFrom",
      "outputs": [],
      "stateMutability": "nonpayable",
      "type": "function"
    },
    {
      "inputs": [
        {
          "internalType": "uint256",
          "name": "",
          "type": "uint256"
        }
      ],
      "name": "sbtInfo",
      "outputs": [
        {
          "internalType": "uint256",
          "name": "startTimestamp",
          "type": "uint256"
        },
        {
          "internalType": "bool",
          "name": "isDead",
          "type": "bool"
        },
        {
          "internalType": "uint8",
          "name": "rank",
          "type": "uint8"
        }
      ],
      "stateMutability": "view",
      "type": "function"
    },
    {
      "inputs": [
        {
          "internalType": "address",
          "name": "",
          "type": "address"
        },
        {
          "internalType": "bool",
          "name": "",
          "type": "bool"
        }
      ],
      "name": "setApprovalForAll",
      "outputs": [],
      "stateMutability": "nonpayable",
      "type": "function"
    },
    {
      "inputs": [
        {
          "internalType": "string",
          "name": "baseURI_",
          "type": "string"
        }
      ],
      "name": "setBaseURI",
      "outputs": [],
      "stateMutability": "nonpayable",
      "type": "function"
    },
    {
      "inputs": [
        {
          "internalType": "address",
          "name": "_newDevWallet",
          "type": "address"
        }
      ],
      "name": "setDevWallet",
      "outputs": [],
      "stateMutability": "nonpayable",
      "type": "function"
    },
    {
      "inputs": [
        {
          "internalType": "uint32",
          "name": "_newMinRevealLagBlocks",
          "type": "uint32"
        }
      ],
      "name": "setMinRevealLagBlocks",
      "outputs": [],
      "stateMutability": "nonpayable",
      "type": "function"
    },
    {
      "inputs": [
        {
          "internalType": "uint256",
          "name": "_newMintFee",
          "type": "uint256"
        }
      ],
      "name": "setMintFee",
      "outputs": [],
      "stateMutability": "nonpayable",
      "type": "function"
    },
    {
      "inputs": [
        {
          "internalType": "uint256",
          "name": "_newRevealBlockLimit",
          "type": "uint256"
        }
      ],
      "name": "setRevealBlockLimit",
      "outputs": [],
      "stateMutability": "nonpayable",
      "type": "function"
    },
    {
      "inputs": [
        {
          "internalType": "bytes4",
          "name": "interfaceId",
          "type": "bytes4"
        }
      ],
      "name": "supportsInterface",
      "outputs": [
        {
          "internalType": "bool",
          "name": "",
          "type": "bool"
        }
      ],
      "stateMutability": "view",
      "type": "function"
    },
    {
      "inputs": [],
      "name": "symbol",
      "outputs": [
        {
          "internalType": "string",
          "name": "",
          "type": "string"
        }
      ],
      "stateMutability": "view",
      "type": "function"
    },
    {
      "inputs": [
        {
          "internalType": "uint256",
          "name": "tokenId",
          "type": "uint256"
        }
      ],
      "name": "tokenURI",
      "outputs": [
        {
          "internalType": "string",
          "name": "",
          "type": "string"
        }
      ],
      "stateMutability": "view",
      "type": "function"
    },
    {
      "inputs": [
        {
          "internalType": "address",
          "name": "",
          "type": "address"
        },
        {
          "internalType": "address",
          "name": "",
          "type": "address"
        },
        {
          "internalType": "uint256",
          "name": "",
          "type": "uint256"
        }
      ],
      "name": "transferFrom",
      "outputs": [],
      "stateMutability": "nonpayable",
      "type": "function"
    },
    {
      "inputs": [
        {
          "internalType": "address",
          "name": "newOwner",
          "type": "address"
        }
      ],
      "name": "transferOwnership",
      "outputs": [],
      "stateMutability": "nonpayable",
      "type": "function"
    },
    {
      "inputs": [],
      "name": "withdrawDevPool",
      "outputs": [],
      "stateMutability": "nonpayable",
      "type": "function"
    },
    {
      "inputs": [
        {
          "internalType": "uint256",
          "name": "amount",
          "type": "uint256"
        }
      ],
      "name": "withdrawMon",
      "outputs": [],
      "stateMutability": "nonpayable",
      "type": "function"
    },
    {
      "stateMutability": "payable",
      "type": "receive"
    }
  ],
  "bytecode": "0x60806040526040518060200160405280600081525060129081620000249190620006db565b503480156200003257600080fd5b50604051620055213803806200552183398181016040528101906200005891906200082c565b6040518060400160405280600681526020017f4c696c6e616400000000000000000000000000000000000000000000000000008152506040518060400160405280600381526020017f4c4e4400000000000000000000000000000000000000000000000000000000008152508160009081620000d59190620006db565b508060019081620000e79190620006db565b5050506200010a620000fe6200039360201b60201c565b6200039b60201b60201c565b600160078190555080601060006101000a81548173ffffffffffffffffffffffffffffffffffffffff021916908373ffffffffffffffffffffffffffffffffffffffff160217905550670de0b6b3a76400006009819055506020600a819055506004600b60006101000a81548163ffffffff021916908363ffffffff16021790555060405180604001604052806204e20081526020016203f480815250600c60008060ff168152602001908152602001600020600082015181600001556020820151816001015590505060405180604001604052806203a980815260200162093a80815250600c6000600160ff16815260200190815260200160002060008201518160000155602082015181600101559050506040518060400160405280620249f0815260200162127500815250600c6000600260ff168152602001908152602001600020600082015181600001556020820151816001015590505060405180604001604052806201d4c0815260200162127500815250600c6000600360ff16815260200190815260200160002060008201518160000155602082015181600101559050506040518060400160405280620186a081526020016224ea00815250600c6000600460ff168152602001908152602001600020600082015181600001556020820151816001015590505060405180604001604052806201388081526020016224ea00815250600c6000600560ff168152602001908152602001600020600082015181600001556020820151816001015590505060405180604001604052806103e8815260200162278d00815250600c6000600660ff1660ff1681526020019081526020016000206000820151816000015560208201518160010155905050506200085e565b600033905090565b6000600660009054906101000a900473ffffffffffffffffffffffffffffffffffffffff16905081600660006101000a81548173ffffffffffffffffffffffffffffffffffffffff021916908373ffffffffffffffffffffffffffffffffffffffff1602179055508173ffffffffffffffffffffffffffffffffffffffff168173ffffffffffffffffffffffffffffffffffffffff167f8be0079c531659141344cd1fd0a4f28419497f9722a3daafe3b4186f6b6457e060405160405180910390a35050565b600081519050919050565b7f4e487b7100000000000000000000000000000000000000000000000000000000600052604160045260246000fd5b7f4e487b7100000000000000000000000000000000000000000000000000000000600052602260045260246000fd5b60006002820490506001821680620004e357607f821691505b602082108103620004f957620004f86200049b565b5b50919050565b60008190508160005260206000209050919050565b60006020601f8301049050919050565b600082821b905092915050565b600060088302620005637fffffffffffffffffffffffffffffffffffffffffffffffffffffffffffffffff8262000524565b6200056f868362000524565b95508019841693508086168417925050509392505050565b6000819050919050565b6000819050919050565b6000620005bc620005b6620005b08462000587565b62000591565b62000587565b9050919050565b6000819050919050565b620005d8836200059b565b620005f0620005e782620005c3565b84845462000531565b825550505050565b600090565b62000607620005f8565b62000614818484620005cd565b505050565b5b818110156200063c5762000630600082620005fd565b6001810190506200061a565b5050565b601f8211156200068b576200065581620004ff565b620006608462000514565b8101602085101562000670578190505b620006886200067f8562000514565b83018262000619565b50505b505050565b600082821c905092915050565b6000620006b06000198460080262000690565b1980831691505092915050565b6000620006cb83836200069d565b9150826002028217905092915050565b620006e68262000461565b67ffffffffffffffff8111156200070257620007016200046c565b5b6200070e8254620004ca565b6200071b82828562000640565b600060209050601f8311600181146200075357600084156200073e578287015190505b6200074a8582620006bd565b865550620007ba565b601f1984166200076386620004ff565b60005b828110156200078d5784890151825560018201915060208501945060208101905062000766565b86831015620007ad5784890151620007a9601f8916826200069d565b8355505b6001600288020188555050505b505050505050565b600080fd5b600073ffffffffffffffffffffffffffffffffffffffff82169050919050565b6000620007f482620007c7565b9050919050565b6200080681620007e7565b81146200081257600080fd5b50565b6000815190506200082681620007fb565b92915050565b600060208284031215620008455762000844620007c2565b5b6000620008558482850162000815565b91505092915050565b614cb3806200086e6000396000f3fe6080604052600436106102555760003560e01c8063715018a611610139578063b8042d04116100b6578063db0d20e41161007a578063db0d20e41461088f578063dbb0a7da146108b8578063e85cd748146108f5578063e985e9c514610937578063eddd0d9c14610974578063f2fde38b1461099d5761025c565b8063b8042d04146107ac578063b88d4fde146107d5578063c87b56dd146107fe578063cdcbe2871461083b578063d7bf81a3146108645761025c565b806395d89b41116100fd57806395d89b41146106e6578063a22cb46514610711578063a75dc9b81461073a578063b5838a2714610765578063b738353f146107905761025c565b8063715018a614610625578063738c712f1461063c5780638da5cb5b146106655780638df1efef146106905780638ea5220f146106bb5761025c565b80632707afaf116101d257806342842e0e1161019657806342842e0e14610507578063443e5c681461053057806355f804b3146105595780636352211e146105825780636fed1ea7146105bf57806370a08231146105e85761025c565b80632707afaf14610442578063277f71b71461046b5780632e1ca8201461048257806332dace12146104ad57806337e23d7a146104c95761025c565b80630acb9366116102195780630acb9366146103575780631078bc42146103955780631f53ac02146103d457806321c52071146103fd57806323b872dd146104195761025c565b806301ffc9a71461025e578063035695421461029b57806306fdde03146102c6578063081812fc146102f1578063095ea7b31461032e5761025c565b3661025c57005b005b34801561026a57600080fd5b5061028560048036038101906102809190613342565b6109c6565b604051610292919061338a565b60405180910390f35b3480156102a757600080fd5b506102b0610aa8565b6040516102bd91906133be565b60405180910390f35b3480156102d257600080fd5b506102db610aae565b6040516102e89190613469565b60405180910390f35b3480156102fd57600080fd5b50610318600480360381019061031391906134b7565b610b40565b6040516103259190613525565b60405180910390f35b34801561033a57600080fd5b506103556004803603810190610350919061356c565b610b86565b005b34801561036357600080fd5b5061037e600480360381019061037991906135ac565b610bb8565b60405161038c929190613611565b60405180910390f35b3480156103a157600080fd5b506103bc60048036038101906103b791906134b7565b610bec565b6040516103cb93929190613656565b60405180910390f35b3480156103e057600080fd5b506103fb60048036038101906103f691906135ac565b610c30565b005b610417600480360381019061041291906137ee565b610c7c565b005b34801561042557600080fd5b50610440600480360381019061043b919061384a565b610cf2565b005b34801561044e57600080fd5b50610469600480360381019061046491906134b7565b610d24565b005b34801561047757600080fd5b50610480610dc8565b005b34801561048e57600080fd5b50610497610fa9565b6040516104a4919061389d565b60405180910390f35b6104c760048036038101906104c2919061399e565b610fae565b005b3480156104d557600080fd5b506104f060048036038101906104eb9190613a26565b61107b565b6040516104fe929190613a53565b60405180910390f35b34801561051357600080fd5b5061052e6004803603810190610529919061384a565b61109f565b005b34801561053c57600080fd5b5061055760048036038101906105529190613aa8565b6110d1565b005b34801561056557600080fd5b50610580600480360381019061057b9190613ad5565b6111b3565b005b34801561058e57600080fd5b506105a960048036038101906105a491906134b7565b611205565b6040516105b69190613525565b60405180910390f35b3480156105cb57600080fd5b506105e660048036038101906105e191906134b7565b61128b565b005b3480156105f457600080fd5b5061060f600480360381019061060a91906135ac565b6113d8565b60405161061c91906133be565b60405180910390f35b34801561063157600080fd5b5061063a61148f565b005b34801561064857600080fd5b50610663600480360381019061065e919061399e565b6114a3565b005b34801561067157600080fd5b5061067a6114d3565b6040516106879190613525565b60405180910390f35b34801561069c57600080fd5b506106a56114fd565b6040516106b29190613b1e565b60405180910390f35b3480156106c757600080fd5b506106d0611513565b6040516106dd9190613525565b60405180910390f35b3480156106f257600080fd5b506106fb611539565b6040516107089190613469565b60405180910390f35b34801561071d57600080fd5b5061073860048036038101906107339190613b65565b6115cb565b005b34801561074657600080fd5b5061074f6115fd565b60405161075c9190613b1e565b60405180910390f35b34801561077157600080fd5b5061077a611602565b60405161078791906133be565b60405180910390f35b6107aa60048036038101906107a5919061399e565b611608565b005b3480156107b857600080fd5b506107d360048036038101906107ce91906135ac565b6116d5565b005b3480156107e157600080fd5b506107fc60048036038101906107f79190613c46565b611885565b005b34801561080a57600080fd5b50610825600480360381019061082091906134b7565b6118b7565b6040516108329190613469565b60405180910390f35b34801561084757600080fd5b50610862600480360381019061085d91906137ee565b611a2d565b005b34801561087057600080fd5b50610879611db8565b60405161088691906133be565b60405180910390f35b34801561089b57600080fd5b506108b660048036038101906108b1919061399e565b611dbe565b005b3480156108c457600080fd5b506108df60048036038101906108da91906135ac565b611dee565b6040516108ec91906133be565b60405180910390f35b34801561090157600080fd5b5061091c600480360381019061091791906134b7565b611e06565b60405161092e96959493929190613cc9565b60405180910390f35b34801561094357600080fd5b5061095e60048036038101906109599190613d31565b611f4f565b60405161096b919061338a565b60405180910390f35b34801561098057600080fd5b5061099b600480360381019061099691906134b7565b611fe3565b005b3480156109a957600080fd5b506109c460048036038101906109bf91906135ac565b612066565b005b60007f80ac58cd000000000000000000000000000000000000000000000000000000007bffffffffffffffffffffffffffffffffffffffffffffffffffffffff1916827bffffffffffffffffffffffffffffffffffffffffffffffffffffffff19161480610a9157507f5b5e139f000000000000000000000000000000000000000000000000000000007bffffffffffffffffffffffffffffffffffffffffffffffffffffffff1916827bffffffffffffffffffffffffffffffffffffffffffffffffffffffff1916145b80610aa15750610aa0826120e9565b5b9050919050565b600a5481565b606060008054610abd90613da0565b80601f0160208091040260200160405190810160405280929190818152602001828054610ae990613da0565b8015610b365780601f10610b0b57610100808354040283529160200191610b36565b820191906000526020600020905b815481529060010190602001808311610b1957829003601f168201915b5050505050905090565b6000610b4b82612153565b6004600083815260200190815260200160002060009054906101000a900473ffffffffffffffffffffffffffffffffffffffff169050919050565b6040517f6e10574900000000000000000000000000000000000000000000000000000000815260040160405180910390fd5b600e6020528060005260406000206000915090508060000154908060010160009054906101000a900463ffffffff16905082565b600d6020528060005260406000206000915090508060000154908060010160009054906101000a900460ff16908060010160019054906101000a900460ff16905083565b610c3861219e565b80601060006101000a81548173ffffffffffffffffffffffffffffffffffffffff021916908373ffffffffffffffffffffffffffffffffffffffff16021790555050565b6009543414610cb7576040517f4046b62500000000000000000000000000000000000000000000000000000000815260040160405180910390fd5b60008282604051602001610ccc929190613dd1565b604051602081830303815290604052805190602001209050610ced8161221c565b505050565b6040517f6e10574900000000000000000000000000000000000000000000000000000000815260040160405180910390fd5b610d2c61219e565b600b60009054906101000a900463ffffffff1663ffffffff168111610d7d576040517f0ff9dddd00000000000000000000000000000000000000000000000000000000815260040160405180910390fd5b6000600a54905081600a819055507fc21132423eff2a3d7fe70bf4c17c2793d14275e91385c556868a12c8f7d7311a8183604051610dbc929190613a53565b60405180910390a15050565b610dd061219e565b610dd8612429565b6000601154905060008103610e19576040517f5e85ae7300000000000000000000000000000000000000000000000000000000815260040160405180910390fd5b600060118190555060008073ffffffffffffffffffffffffffffffffffffffff16601060009054906101000a900473ffffffffffffffffffffffffffffffffffffffff1673ffffffffffffffffffffffffffffffffffffffff1614610ea057601060009054906101000a900473ffffffffffffffffffffffffffffffffffffffff16610ea9565b610ea86114d3565b5b905060008173ffffffffffffffffffffffffffffffffffffffff1683604051610ed190613e32565b60006040518083038185875af1925050503d8060008114610f0e576040519150601f19603f3d011682016040523d82523d6000602084013e610f13565b606091505b5050905080610f4e576040517f047cdddd00000000000000000000000000000000000000000000000000000000815260040160405180910390fd5b8173ffffffffffffffffffffffffffffffffffffffff167feb5f9d0f77ca1b4235da3a889df2e60673bcf3cdb66c14b903940a7c8f30136784604051610f9491906133be565b60405180910390a2505050610fa7612478565b565b600681565b6001600a610fbc9190613e84565b61ffff16825114610ff9576040517f8df760a400000000000000000000000000000000000000000000000000000000815260040160405180910390fd5b600a6009546110089190613eba565b3414611040576040517fbfa3b5b800000000000000000000000000000000000000000000000000000000815260040160405180910390fd5b60008282604051602001611055929190614008565b6040516020818303038152906040528051906020012090506110768161221c565b505050565b600c6020528060005260406000206000915090508060000154908060010154905082565b6040517f6e10574900000000000000000000000000000000000000000000000000000000815260040160405180910390fd5b6110d961219e565b60008163ffffffff1614806110f65750600a548163ffffffff1610155b80611107575060fa8163ffffffff16115b1561113e576040517f0b290a8800000000000000000000000000000000000000000000000000000000815260040160405180910390fd5b6000600b60009054906101000a900463ffffffff16905081600b60006101000a81548163ffffffff021916908363ffffffff1602179055507f18331471bfbc1c15f617f27271004b8928747c9c60e82e22de3366b3a046ef1c81836040516111a7929190614038565b60405180910390a15050565b6111bb61219e565b80601290816111ca919061420d565b507ff9c7803e94e0d3c02900d8a90893a6d5e90dd04d32a4cfe825520f82bf9f32f6816040516111fa9190613469565b60405180910390a150565b60008061121183612482565b9050600073ffffffffffffffffffffffffffffffffffffffff168173ffffffffffffffffffffffffffffffffffffffff1603611282576040517f08c379a00000000000000000000000000000000000000000000000000000000081526004016112799061432b565b60405180910390fd5b80915050919050565b61129361219e565b61129b612429565b600081036112d5576040517f5e85ae7300000000000000000000000000000000000000000000000000000000815260040160405180910390fd5b6000601154476112e5919061434b565b905080821115611321576040517f9ba049a200000000000000000000000000000000000000000000000000000000815260040160405180910390fd5b600061132b6114d3565b73ffffffffffffffffffffffffffffffffffffffff168360405161134e90613e32565b60006040518083038185875af1925050503d806000811461138b576040519150601f19603f3d011682016040523d82523d6000602084013e611390565b606091505b50509050806113cb576040517f04d78fe700000000000000000000000000000000000000000000000000000000815260040160405180910390fd5b50506113d5612478565b50565b60008073ffffffffffffffffffffffffffffffffffffffff168273ffffffffffffffffffffffffffffffffffffffff1603611448576040517f08c379a000000000000000000000000000000000000000000000000000000000815260040161143f906143f1565b60405180910390fd5b600360008373ffffffffffffffffffffffffffffffffffffffff1673ffffffffffffffffffffffffffffffffffffffff168152602001908152602001600020549050919050565b61149761219e565b6114a160006124bf565b565b6114ab612429565b6114c782826001600a6114be9190613e84565b61ffff16612585565b6114cf612478565b5050565b6000600660009054906101000a900473ffffffffffffffffffffffffffffffffffffffff16905090565b600b60009054906101000a900463ffffffff1681565b601060009054906101000a900473ffffffffffffffffffffffffffffffffffffffff1681565b60606001805461154890613da0565b80601f016020809104026020016040519081016040528092919081815260200182805461157490613da0565b80156115c15780601f10611596576101008083540402835291602001916115c1565b820191906000526020600020905b8154815290600101906020018083116115a457829003601f168201915b5050505050905090565b6040517f6e10574900000000000000000000000000000000000000000000000000000000815260040160405180910390fd5b600381565b60115481565b600360196116169190613e84565b61ffff16825114611653576040517f8df760a400000000000000000000000000000000000000000000000000000000815260040160405180910390fd5b60196009546116629190613eba565b341461169a576040517fbfa3b5b800000000000000000000000000000000000000000000000000000000815260040160405180910390fd5b600082826040516020016116af929190614008565b6040516020818303038152906040528051906020012090506116d08161221c565b505050565b6116dd61219e565b600073ffffffffffffffffffffffffffffffffffffffff168173ffffffffffffffffffffffffffffffffffffffff1603611743576040517f844bd70600000000000000000000000000000000000000000000000000000000815260040160405180910390fd5b6000600e60008373ffffffffffffffffffffffffffffffffffffffff1673ffffffffffffffffffffffffffffffffffffffff16815260200190815260200160002090506000801b8160000154036117c6576040517f9046b6c400000000000000000000000000000000000000000000000000000000815260040160405180910390fd5b600e60008373ffffffffffffffffffffffffffffffffffffffff1673ffffffffffffffffffffffffffffffffffffffff1681526020019081526020016000206000808201600090556001820160006101000a81549063ffffffff021916905550503373ffffffffffffffffffffffffffffffffffffffff168273ffffffffffffffffffffffffffffffffffffffff167f9d7f7f591a5b59dfe0e6b52ac1ff754c1c60024ef22770e077ea78da8a48a08b60405160405180910390a35050565b6040517f6e10574900000000000000000000000000000000000000000000000000000000815260040160405180910390fd5b60606118c28261299b565b611901576040517f08c379a00000000000000000000000000000000000000000000000000000000081526004016118f890614483565b60405180910390fd5b6000600f6000848152602001908152602001600020805461192190613da0565b905011156119cc57600f6000838152602001908152602001600020805461194790613da0565b80601f016020809104026020016040519081016040528092919081815260200182805461197390613da0565b80156119c05780601f10611995576101008083540402835291602001916119c0565b820191906000526020600020905b8154815290600101906020018083116119a357829003601f168201915b50505050509050611a28565b6000601280546119db90613da0565b90501115611a155760126119ee836129dc565b6040516020016119ff929190614562565b6040516020818303038152906040529050611a28565b6040518060200160405280600081525090505b919050565b611a35612429565b6000600e60003373ffffffffffffffffffffffffffffffffffffffff1673ffffffffffffffffffffffffffffffffffffffff168152602001908152602001600020604051806040016040529081600082015481526020016001820160009054906101000a900463ffffffff1663ffffffff1663ffffffff1681525050905060008160200151905060008163ffffffff1603611afc576040517f89940b8200000000000000000000000000000000000000000000000000000000815260040160405180910390fd5b600b60009054906101000a900463ffffffff1681611b1a9190614586565b63ffffffff16431015611b59576040517fc349402d00000000000000000000000000000000000000000000000000000000815260040160405180910390fd5b60008163ffffffff16409050600a548263ffffffff16611b7991906145be565b431115611c4d57611b8c33600687612aaa565b611b966008612bc6565b3373ffffffffffffffffffffffffffffffffffffffff167f6ae727f7e1e7aad1b7023df2b8ed296984799799d3f28d457f514f088193031987604051611bdc9190613469565b60405180910390a3600e60003373ffffffffffffffffffffffffffffffffffffffff1673ffffffffffffffffffffffffffffffffffffffff1681526020019081526020016000206000808201600090556001820160006101000a81549063ffffffff02191690555050505050611dac565b6000801b8103611c89576040517f92555c0e00000000000000000000000000000000000000000000000000000000815260040160405180910390fd5b8484604051602001611c9c929190613dd1565b60405160208183030381529060405280519060200120836000015114611cee576040517f9227a43c00000000000000000000000000000000000000000000000000000000815260040160405180910390fd5b6000612710858333604051602001611d089392919061465b565b6040516020818303038152906040528051906020012060001c611d2b91906146c7565b90506000611d3882612bd4565b9050611d45338289612aaa565b600e60003373ffffffffffffffffffffffffffffffffffffffff1673ffffffffffffffffffffffffffffffffffffffff1681526020019081526020016000206000808201600090556001820160006101000a81549063ffffffff0219169055505050505050505b611db4612478565b5050565b60095481565b611dc6612429565b611de2828260036019611dd99190613e84565b61ffff16612585565b611dea612478565b5050565b60136020528060005260406000206000915090505481565b60008060008060006060611e198761299b565b611e58576040517f08c379a0000000000000000000000000000000000000000000000000000000008152600401611e4f90614744565b60405180910390fd5b6000600d600089815260200190815260200160002090506000600c60008360010160019054906101000a900460ff1660ff1660ff1681526020019081526020016000209050816000015497508160010160019054906101000a900460ff16955080600001549350611ec8896118b7565b92506000816001015403611f12577fffffffffffffffffffffffffffffffffffffffffffffffffffffffffffffffff96508160010160009054906101000a900460ff169450611f44565b806001015488611f2291906145be565b96508160010160009054906101000a900460ff1680611f415750864210155b94505b505091939550919395565b6000600560008473ffffffffffffffffffffffffffffffffffffffff1673ffffffffffffffffffffffffffffffffffffffff16815260200190815260200160002060008373ffffffffffffffffffffffffffffffffffffffff1673ffffffffffffffffffffffffffffffffffffffff16815260200190815260200160002060009054906101000a900460ff16905092915050565b611feb61219e565b60008103612025576040517f9a4d401100000000000000000000000000000000000000000000000000000000815260040160405180910390fd5b806009819055507f97aee230ba41961438e908e115df76fa8113f85a0586d85b19ba5be50e6a22748160405161205b91906133be565b60405180910390a150565b61206e61219e565b600073ffffffffffffffffffffffffffffffffffffffff168173ffffffffffffffffffffffffffffffffffffffff16036120dd576040517f08c379a00000000000000000000000000000000000000000000000000000000081526004016120d4906147d6565b60405180910390fd5b6120e6816124bf565b50565b60007f01ffc9a7000000000000000000000000000000000000000000000000000000007bffffffffffffffffffffffffffffffffffffffffffffffffffffffff1916827bffffffffffffffffffffffffffffffffffffffffffffffffffffffff1916149050919050565b61215c8161299b565b61219b576040517f08c379a00000000000000000000000000000000000000000000000000000000081526004016121929061432b565b60405180910390fd5b50565b6121a6612c66565b73ffffffffffffffffffffffffffffffffffffffff166121c46114d3565b73ffffffffffffffffffffffffffffffffffffffff161461221a576040517f08c379a000000000000000000000000000000000000000000000000000000000815260040161221190614842565b60405180910390fd5b565b600363ffffffff16601360003373ffffffffffffffffffffffffffffffffffffffff1673ffffffffffffffffffffffffffffffffffffffff1681526020019081526020016000205461226e91906145be565b4310156122a7576040517fab8a796800000000000000000000000000000000000000000000000000000000815260040160405180910390fd5b6000600e60003373ffffffffffffffffffffffffffffffffffffffff1673ffffffffffffffffffffffffffffffffffffffff16815260200190815260200160002090506000801b81600001541461232a576040517fbfec555800000000000000000000000000000000000000000000000000000000815260040160405180910390fd5b818160000181905550438160010160006101000a81548163ffffffff021916908363ffffffff16021790555060003490506000606460058361236c9190613eba565b6123769190614862565b9050806011600082825461238a91906145be565b9250508190555043601360003373ffffffffffffffffffffffffffffffffffffffff1673ffffffffffffffffffffffffffffffffffffffff168152602001908152602001600020819055503373ffffffffffffffffffffffffffffffffffffffff167f0b6cc2ecff3b94112d44f2dbac8aee8eb02772c07b1e52605f0dc6d726bf0e318560405161241b9190614893565b60405180910390a250505050565b60026007540361246e576040517f08c379a0000000000000000000000000000000000000000000000000000000008152600401612465906148fa565b60405180910390fd5b6002600781905550565b6001600781905550565b60006002600083815260200190815260200160002060009054906101000a900473ffffffffffffffffffffffffffffffffffffffff169050919050565b6000600660009054906101000a900473ffffffffffffffffffffffffffffffffffffffff16905081600660006101000a81548173ffffffffffffffffffffffffffffffffffffffff021916908373ffffffffffffffffffffffffffffffffffffffff1602179055508173ffffffffffffffffffffffffffffffffffffffff168173ffffffffffffffffffffffffffffffffffffffff167f8be0079c531659141344cd1fd0a4f28419497f9722a3daafe3b4186f6b6457e060405160405180910390a35050565b808351146125bf576040517f8df760a400000000000000000000000000000000000000000000000000000000815260040160405180910390fd5b6000600e60003373ffffffffffffffffffffffffffffffffffffffff1673ffffffffffffffffffffffffffffffffffffffff168152602001908152602001600020905060008160010160009054906101000a900463ffffffff16905060008163ffffffff160361265b576040517f89940b8200000000000000000000000000000000000000000000000000000000815260040160405180910390fd5b600b60009054906101000a900463ffffffff16816126799190614586565b63ffffffff164310156126b8576040517fc349402d00000000000000000000000000000000000000000000000000000000815260040160405180910390fd5b60008163ffffffff16409050600a548263ffffffff166126d891906145be565b4311156127fd5760005b84811015612793576127103360068984815181106127035761270261491a565b5b6020026020010151612aaa565b61271a6008612bc6565b3373ffffffffffffffffffffffffffffffffffffffff167f6ae727f7e1e7aad1b7023df2b8ed296984799799d3f28d457f514f08819303198984815181106127655761276461491a565b5b602002602001015160405161277a9190613469565b60405180910390a38061278c90614949565b90506126e2565b50600e60003373ffffffffffffffffffffffffffffffffffffffff1673ffffffffffffffffffffffffffffffffffffffff1681526020019081526020016000206000808201600090556001820160006101000a81549063ffffffff02191690555050505050612996565b6000801b8103612839576040517f92555c0e00000000000000000000000000000000000000000000000000000000815260040160405180910390fd5b858560405160200161284c929190614008565b6040516020818303038152906040528051906020012083600001541461289e576040517f9227a43c00000000000000000000000000000000000000000000000000000000815260040160405180910390fd5b60005b8651811015612930576000612710878433856040516020016128c694939291906149b2565b6040516020818303038152906040528051906020012060001c6128e991906146c7565b905060006128f682612bd4565b905061291d33828b86815181106129105761290f61491a565b5b6020026020010151612aaa565b50508061292990614949565b90506128a1565b50600e60003373ffffffffffffffffffffffffffffffffffffffff1673ffffffffffffffffffffffffffffffffffffffff1681526020019081526020016000206000808201600090556001820160006101000a81549063ffffffff021916905550505050505b505050565b60008073ffffffffffffffffffffffffffffffffffffffff166129bd83612482565b73ffffffffffffffffffffffffffffffffffffffff1614159050919050565b6060600060016129eb84612c6e565b01905060008167ffffffffffffffff811115612a0a57612a09613697565b5b6040519080825280601f01601f191660200182016040528015612a3c5781602001600182028036833780820191505090505b509050600082602001820190505b600115612a9f578080600190039150507f3031323334353637383961626364656600000000000000000000000000000000600a86061a8153600a8581612a9357612a92614698565b5b04945060008503612a4a575b819350505050919050565b612ab46008612dc1565b6000612ac06008612bc6565b9050612acc8482612dd7565b60405180606001604052804281526020016000151581526020018460ff16815250600d60008381526020019081526020016000206000820151816000015560208201518160010160006101000a81548160ff02191690831515021790555060408201518160010160016101000a81548160ff021916908360ff16021790555090505081600f60008381526020019081526020016000209081612b6e919061420d565b50808473ffffffffffffffffffffffffffffffffffffffff167f0fe979440580532b621e6c051114b9fb70153abf461fb807b9812ae5b7c86cc28585604051612bb8929190614a00565b60405180910390a350505050565b600081600001549050919050565b6000603261ffff168261ffff161015612bf05760009050612c61565b61015e61ffff168261ffff161015612c0b5760019050612c61565b61054661ffff168261ffff161015612c265760029050612c61565b610d1661ffff168261ffff161015612c415760039050612c61565b6118ce61ffff168261ffff161015612c5c5760049050612c61565b600590505b919050565b600033905090565b600080600090507a184f03e93ff9f4daa797ed6e38ed64bf6a1f0100000000000000008310612ccc577a184f03e93ff9f4daa797ed6e38ed64bf6a1f0100000000000000008381612cc257612cc1614698565b5b0492506040810190505b6d04ee2d6d415b85acef81000000008310612d09576d04ee2d6d415b85acef81000000008381612cff57612cfe614698565b5b0492506020810190505b662386f26fc100008310612d3857662386f26fc100008381612d2e57612d2d614698565b5b0492506010810190505b6305f5e1008310612d61576305f5e1008381612d5757612d56614698565b5b0492506008810190505b6127108310612d86576127108381612d7c57612d7b614698565b5b0492506004810190505b60648310612da95760648381612d9f57612d9e614698565b5b0492506002810190505b600a8310612db8576001810190505b80915050919050565b6001816000016000828254019250508190555050565b612df1828260405180602001604052806000815250612df5565b5050565b612dff8383612e50565b612e0c600084848461306d565b612e4b576040517f08c379a0000000000000000000000000000000000000000000000000000000008152600401612e4290614aa2565b60405180910390fd5b505050565b600073ffffffffffffffffffffffffffffffffffffffff168273ffffffffffffffffffffffffffffffffffffffff1603612ebf576040517f08c379a0000000000000000000000000000000000000000000000000000000008152600401612eb690614b0e565b60405180910390fd5b612ec88161299b565b15612f08576040517f08c379a0000000000000000000000000000000000000000000000000000000008152600401612eff90614b7a565b60405180910390fd5b612f166000838360016131f4565b612f1f8161299b565b15612f5f576040517f08c379a0000000000000000000000000000000000000000000000000000000008152600401612f5690614b7a565b60405180910390fd5b6001600360008473ffffffffffffffffffffffffffffffffffffffff1673ffffffffffffffffffffffffffffffffffffffff16815260200190815260200160002060008282540192505081905550816002600083815260200190815260200160002060006101000a81548173ffffffffffffffffffffffffffffffffffffffff021916908373ffffffffffffffffffffffffffffffffffffffff160217905550808273ffffffffffffffffffffffffffffffffffffffff16600073ffffffffffffffffffffffffffffffffffffffff167fddf252ad1be2c89b69c2b068fc378daa952ba7f163c4a11628f55a4df523b3ef60405160405180910390a46130696000838360016132a7565b5050565b600061308e8473ffffffffffffffffffffffffffffffffffffffff166132ad565b156131e7578373ffffffffffffffffffffffffffffffffffffffff1663150b7a026130b7612c66565b8786866040518563ffffffff1660e01b81526004016130d99493929190614bef565b6020604051808303816000875af192505050801561311557506040513d601f19601f820116820180604052508101906131129190614c50565b60015b613197573d8060008114613145576040519150601f19603f3d011682016040523d82523d6000602084013e61314a565b606091505b50600081510361318f576040517f08c379a000000000000000000000000000000000000000000000000000000000815260040161318690614aa2565b60405180910390fd5b805181602001fd5b63150b7a0260e01b7bffffffffffffffffffffffffffffffffffffffffffffffffffffffff1916817bffffffffffffffffffffffffffffffffffffffffffffffffffffffff1916149150506131ec565b600190505b949350505050565b613200848484846132d0565b600073ffffffffffffffffffffffffffffffffffffffff168473ffffffffffffffffffffffffffffffffffffffff161415801561326a5750600073ffffffffffffffffffffffffffffffffffffffff168373ffffffffffffffffffffffffffffffffffffffff1614155b156132a1576040517f6e10574900000000000000000000000000000000000000000000000000000000815260040160405180910390fd5b50505050565b50505050565b6000808273ffffffffffffffffffffffffffffffffffffffff163b119050919050565b50505050565b6000604051905090565b600080fd5b600080fd5b60007fffffffff0000000000000000000000000000000000000000000000000000000082169050919050565b61331f816132ea565b811461332a57600080fd5b50565b60008135905061333c81613316565b92915050565b600060208284031215613358576133576132e0565b5b60006133668482850161332d565b91505092915050565b60008115159050919050565b6133848161336f565b82525050565b600060208201905061339f600083018461337b565b92915050565b6000819050919050565b6133b8816133a5565b82525050565b60006020820190506133d360008301846133af565b92915050565b600081519050919050565b600082825260208201905092915050565b60005b838110156134135780820151818401526020810190506133f8565b60008484015250505050565b6000601f19601f8301169050919050565b600061343b826133d9565b61344581856133e4565b93506134558185602086016133f5565b61345e8161341f565b840191505092915050565b600060208201905081810360008301526134838184613430565b905092915050565b613494816133a5565b811461349f57600080fd5b50565b6000813590506134b18161348b565b92915050565b6000602082840312156134cd576134cc6132e0565b5b60006134db848285016134a2565b91505092915050565b600073ffffffffffffffffffffffffffffffffffffffff82169050919050565b600061350f826134e4565b9050919050565b61351f81613504565b82525050565b600060208201905061353a6000830184613516565b92915050565b61354981613504565b811461355457600080fd5b50565b60008135905061356681613540565b92915050565b60008060408385031215613583576135826132e0565b5b600061359185828601613557565b92505060206135a2858286016134a2565b9150509250929050565b6000602082840312156135c2576135c16132e0565b5b60006135d084828501613557565b91505092915050565b6000819050919050565b6135ec816135d9565b82525050565b600063ffffffff82169050919050565b61360b816135f2565b82525050565b600060408201905061362660008301856135e3565b6136336020830184613602565b9392505050565b600060ff82169050919050565b6136508161363a565b82525050565b600060608201905061366b60008301866133af565b613678602083018561337b565b6136856040830184613647565b949350505050565b600080fd5b600080fd5b7f4e487b7100000000000000000000000000000000000000000000000000000000600052604160045260246000fd5b6136cf8261341f565b810181811067ffffffffffffffff821117156136ee576136ed613697565b5b80604052505050565b60006137016132d6565b905061370d82826136c6565b919050565b600067ffffffffffffffff82111561372d5761372c613697565b5b6137368261341f565b9050602081019050919050565b82818337600083830152505050565b600061376561376084613712565b6136f7565b90508281526020810184848401111561378157613780613692565b5b61378c848285613743565b509392505050565b600082601f8301126137a9576137a861368d565b5b81356137b9848260208601613752565b91505092915050565b6137cb816135d9565b81146137d657600080fd5b50565b6000813590506137e8816137c2565b92915050565b60008060408385031215613805576138046132e0565b5b600083013567ffffffffffffffff811115613823576138226132e5565b5b61382f85828601613794565b9250506020613840858286016137d9565b9150509250929050565b600080600060608486031215613863576138626132e0565b5b600061387186828701613557565b935050602061388286828701613557565b9250506040613893868287016134a2565b9150509250925092565b60006020820190506138b26000830184613647565b92915050565b600067ffffffffffffffff8211156138d3576138d2613697565b5b602082029050602081019050919050565b600080fd5b60006138fc6138f7846138b8565b6136f7565b9050808382526020820190506020840283018581111561391f5761391e6138e4565b5b835b8181101561396657803567ffffffffffffffff8111156139445761394361368d565b5b8086016139518982613794565b85526020850194505050602081019050613921565b5050509392505050565b600082601f8301126139855761398461368d565b5b81356139958482602086016138e9565b91505092915050565b600080604083850312156139b5576139b46132e0565b5b600083013567ffffffffffffffff8111156139d3576139d26132e5565b5b6139df85828601613970565b92505060206139f0858286016137d9565b9150509250929050565b613a038161363a565b8114613a0e57600080fd5b50565b600081359050613a20816139fa565b92915050565b600060208284031215613a3c57613a3b6132e0565b5b6000613a4a84828501613a11565b91505092915050565b6000604082019050613a6860008301856133af565b613a7560208301846133af565b9392505050565b613a85816135f2565b8114613a9057600080fd5b50565b600081359050613aa281613a7c565b92915050565b600060208284031215613abe57613abd6132e0565b5b6000613acc84828501613a93565b91505092915050565b600060208284031215613aeb57613aea6132e0565b5b600082013567ffffffffffffffff811115613b0957613b086132e5565b5b613b1584828501613794565b91505092915050565b6000602082019050613b336000830184613602565b92915050565b613b428161336f565b8114613b4d57600080fd5b50565b600081359050613b5f81613b39565b92915050565b60008060408385031215613b7c57613b7b6132e0565b5b6000613b8a85828601613557565b9250506020613b9b85828601613b50565b9150509250929050565b600067ffffffffffffffff821115613bc057613bbf613697565b5b613bc98261341f565b9050602081019050919050565b6000613be9613be484613ba5565b6136f7565b905082815260208101848484011115613c0557613c04613692565b5b613c10848285613743565b509392505050565b600082601f830112613c2d57613c2c61368d565b5b8135613c3d848260208601613bd6565b91505092915050565b60008060008060808587031215613c6057613c5f6132e0565b5b6000613c6e87828801613557565b9450506020613c7f87828801613557565b9350506040613c90878288016134a2565b925050606085013567ffffffffffffffff811115613cb157613cb06132e5565b5b613cbd87828801613c18565b91505092959194509250565b600060c082019050613cde60008301896133af565b613ceb60208301886133af565b613cf86040830187613647565b613d05606083018661337b565b613d1260808301856133af565b81810360a0830152613d248184613430565b9050979650505050505050565b60008060408385031215613d4857613d476132e0565b5b6000613d5685828601613557565b9250506020613d6785828601613557565b9150509250929050565b7f4e487b7100000000000000000000000000000000000000000000000000000000600052602260045260246000fd5b60006002820490506001821680613db857607f821691505b602082108103613dcb57613dca613d71565b5b50919050565b60006040820190508181036000830152613deb8185613430565b9050613dfa60208301846135e3565b9392505050565b600081905092915050565b50565b6000613e1c600083613e01565b9150613e2782613e0c565b600082019050919050565b6000613e3d82613e0f565b9150819050919050565b600061ffff82169050919050565b7f4e487b7100000000000000000000000000000000000000000000000000000000600052601160045260246000fd5b6000613e8f82613e47565b9150613e9a83613e47565b9250828201905061ffff811115613eb457613eb3613e55565b5b92915050565b6000613ec5826133a5565b9150613ed0836133a5565b9250828202613ede816133a5565b91508282048414831517613ef557613ef4613e55565b5b5092915050565b600081519050919050565b600082825260208201905092915050565b6000819050602082019050919050565b600082825260208201905092915050565b6000613f44826133d9565b613f4e8185613f28565b9350613f5e8185602086016133f5565b613f678161341f565b840191505092915050565b6000613f7e8383613f39565b905092915050565b6000602082019050919050565b6000613f9e82613efc565b613fa88185613f07565b935083602082028501613fba85613f18565b8060005b85811015613ff65784840389528151613fd78582613f72565b9450613fe283613f86565b925060208a01995050600181019050613fbe565b50829750879550505050505092915050565b600060408201905081810360008301526140228185613f93565b905061403160208301846135e3565b9392505050565b600060408201905061404d6000830185613602565b61405a6020830184613602565b9392505050565b60008190508160005260206000209050919050565b60006020601f8301049050919050565b600082821b905092915050565b6000600883026140c37fffffffffffffffffffffffffffffffffffffffffffffffffffffffffffffffff82614086565b6140cd8683614086565b95508019841693508086168417925050509392505050565b6000819050919050565b600061410a614105614100846133a5565b6140e5565b6133a5565b9050919050565b6000819050919050565b614124836140ef565b61413861413082614111565b848454614093565b825550505050565b600090565b61414d614140565b61415881848461411b565b505050565b5b8181101561417c57614171600082614145565b60018101905061415e565b5050565b601f8211156141c15761419281614061565b61419b84614076565b810160208510156141aa578190505b6141be6141b685614076565b83018261415d565b50505b505050565b600082821c905092915050565b60006141e4600019846008026141c6565b1980831691505092915050565b60006141fd83836141d3565b9150826002028217905092915050565b614216826133d9565b67ffffffffffffffff81111561422f5761422e613697565b5b6142398254613da0565b614244828285614180565b600060209050601f8311600181146142775760008415614265578287015190505b61426f85826141f1565b8655506142d7565b601f19841661428586614061565b60005b828110156142ad57848901518255600182019150602085019450602081019050614288565b868310156142ca57848901516142c6601f8916826141d3565b8355505b6001600288020188555050505b505050505050565b7f4552433732313a20696e76616c696420746f6b656e2049440000000000000000600082015250565b60006143156018836133e4565b9150614320826142df565b602082019050919050565b6000602082019050818103600083015261434481614308565b9050919050565b6000614356826133a5565b9150614361836133a5565b925082820390508181111561437957614378613e55565b5b92915050565b7f4552433732313a2061646472657373207a65726f206973206e6f74206120766160008201527f6c6964206f776e65720000000000000000000000000000000000000000000000602082015250565b60006143db6029836133e4565b91506143e68261437f565b604082019050919050565b6000602082019050818103600083015261440a816143ce565b9050919050565b7f4552433732314d657461646174613a2055524920717565727920666f72206e6f60008201527f6e6578697374656e7420746f6b656e0000000000000000000000000000000000602082015250565b600061446d602f836133e4565b915061447882614411565b604082019050919050565b6000602082019050818103600083015261449c81614460565b9050919050565b600081905092915050565b600081546144bb81613da0565b6144c581866144a3565b945060018216600081146144e057600181146144f557614528565b60ff1983168652811515820286019350614528565b6144fe85614061565b60005b8381101561452057815481890152600182019150602081019050614501565b838801955050505b50505092915050565b600061453c826133d9565b61454681856144a3565b93506145568185602086016133f5565b80840191505092915050565b600061456e82856144ae565b915061457a8284614531565b91508190509392505050565b6000614591826135f2565b915061459c836135f2565b9250828201905063ffffffff8111156145b8576145b7613e55565b5b92915050565b60006145c9826133a5565b91506145d4836133a5565b92508282019050808211156145ec576145eb613e55565b5b92915050565b6000819050919050565b61460d614608826135d9565b6145f2565b82525050565b60008160601b9050919050565b600061462b82614613565b9050919050565b600061463d82614620565b9050919050565b61465561465082613504565b614632565b82525050565b600061466782866145fc565b60208201915061467782856145fc565b6020820191506146878284614644565b601482019150819050949350505050565b7f4e487b7100000000000000000000000000000000000000000000000000000000600052601260045260246000fd5b60006146d2826133a5565b91506146dd836133a5565b9250826146ed576146ec614698565b5b828206905092915050565b7f517565727920666f72206e6f6e6578697374656e7420746f6b656e0000000000600082015250565b600061472e601b836133e4565b9150614739826146f8565b602082019050919050565b6000602082019050818103600083015261475d81614721565b9050919050565b7f4f776e61626c653a206e6577206f776e657220697320746865207a65726f206160008201527f6464726573730000000000000000000000000000000000000000000000000000602082015250565b60006147c06026836133e4565b91506147cb82614764565b604082019050919050565b600060208201905081810360008301526147ef816147b3565b9050919050565b7f4f776e61626c653a2063616c6c6572206973206e6f7420746865206f776e6572600082015250565b600061482c6020836133e4565b9150614837826147f6565b602082019050919050565b6000602082019050818103600083015261485b8161481f565b9050919050565b600061486d826133a5565b9150614878836133a5565b92508261488857614887614698565b5b828204905092915050565b60006020820190506148a860008301846135e3565b92915050565b7f5265656e7472616e637947756172643a207265656e7472616e742063616c6c00600082015250565b60006148e4601f836133e4565b91506148ef826148ae565b602082019050919050565b60006020820190508181036000830152614913816148d7565b9050919050565b7f4e487b7100000000000000000000000000000000000000000000000000000000600052603260045260246000fd5b6000614954826133a5565b91507fffffffffffffffffffffffffffffffffffffffffffffffffffffffffffffffff820361498657614985613e55565b5b600182019050919050565b6000819050919050565b6149ac6149a7826133a5565b614991565b82525050565b60006149be82876145fc565b6020820191506149ce82866145fc565b6020820191506149de8285614644565b6014820191506149ee828461499b565b60208201915081905095945050505050565b6000604082019050614a156000830185613647565b8181036020830152614a278184613430565b90509392505050565b7f4552433732313a207472616e7366657220746f206e6f6e20455243373231526560008201527f63656976657220696d706c656d656e7465720000000000000000000000000000602082015250565b6000614a8c6032836133e4565b9150614a9782614a30565b604082019050919050565b60006020820190508181036000830152614abb81614a7f565b9050919050565b7f4552433732313a206d696e7420746f20746865207a65726f2061646472657373600082015250565b6000614af86020836133e4565b9150614b0382614ac2565b602082019050919050565b60006020820190508181036000830152614b2781614aeb565b9050919050565b7f4552433732313a20746f6b656e20616c7265616479206d696e74656400000000600082015250565b6000614b64601c836133e4565b9150614b6f82614b2e565b602082019050919050565b60006020820190508181036000830152614b9381614b57565b9050919050565b600081519050919050565b600082825260208201905092915050565b6000614bc182614b9a565b614bcb8185614ba5565b9350614bdb8185602086016133f5565b614be48161341f565b840191505092915050565b6000608082019050614c046000830187613516565b614c116020830186613516565b614c1e60408301856133af565b8181036060830152614c308184614bb6565b905095945050505050565b600081519050614c4a81613316565b92915050565b600060208284031215614c6657614c656132e0565b5b6000614c7484828501614c3b565b9150509291505056fea2646970667358221220cfa9c55cf8a93ddbb74cb9b28a48e896158b4781b5948d19a87af2ca7319b16c64736f6c63430008110033",
  "linkReferences": {},
  "deployedLinkReferences": {}
}