{
  "_format": "hh-sol-artifact-1",
  "contractName": "LilnadNFT",
  "sourceName": "contracts/LilnadNFT.sol",
  "abi": [
    {
      "inputs": [
        {
          "internalType": "address",
          "name": "_initialDevWallet",
          "type": "address"
        }
      ],
      "stateMutability": "nonpayable",
      "type": "constructor"
    },
    {
      "inputs": [],
      "name": "AlreadyCommitted",
      "type": "error"
    },
    {
      "inputs": [],
      "name": "BlockhashUnavailable",
      "type": "error"
    },
    {
      "inputs": [],
      "name": "BulkMintFee",
      "type": "error"
    },
    {
      "inputs": [],
      "name": "CommitExpiredTryNormalReveal",
      "type": "error"
    },
    {
      "inputs": [],
      "name": "CommitNotExpiredTryExpiredReveal",
      "type": "error"
    },
    {
      "inputs": [],
      "name": "InvalidCommitReveal",
      "type": "error"
    },
    {
      "inputs": [],
      "name": "MintFeeRequired",
      "type": "error"
    },
    {
      "inputs": [],
      "name": "NoPendingCommit",
      "type": "error"
    },
    {
      "inputs": [],
      "name": "RevealTooEarly",
      "type": "error"
    },
    {
      "inputs": [],
      "name": "RevealTooLate",
      "type": "error"
    },
    {
      "inputs": [],
      "name": "URIsLengthMismatch",
      "type": "error"
    },
    {
      "anonymous": false,
      "inputs": [
        {
          "indexed": true,
          "internalType": "address",
          "name": "owner",
          "type": "address"
        },
        {
          "indexed": true,
          "internalType": "address",
          "name": "approved",
          "type": "address"
        },
        {
          "indexed": true,
          "internalType": "uint256",
          "name": "tokenId",
          "type": "uint256"
        }
      ],
      "name": "Approval",
      "type": "event"
    },
    {
      "anonymous": false,
      "inputs": [
        {
          "indexed": true,
          "internalType": "address",
          "name": "owner",
          "type": "address"
        },
        {
          "indexed": true,
          "internalType": "address",
          "name": "operator",
          "type": "address"
        },
        {
          "indexed": false,
          "internalType": "bool",
          "name": "approved",
          "type": "bool"
        }
      ],
      "name": "ApprovalForAll",
      "type": "event"
    },
    {
      "anonymous": false,
      "inputs": [
        {
          "indexed": true,
          "internalType": "address",
          "name": "user",
          "type": "address"
        },
        {
          "indexed": true,
          "internalType": "uint256",
          "name": "tokenId",
          "type": "uint256"
        },
        {
          "indexed": false,
          "internalType": "uint256",
          "name": "amount",
          "type": "uint256"
        }
      ],
      "name": "Collected",
      "type": "event"
    },
    {
      "anonymous": false,
      "inputs": [
        {
          "indexed": true,
          "internalType": "address",
          "name": "user",
          "type": "address"
        },
        {
          "indexed": false,
          "internalType": "bytes32",
          "name": "commitment",
          "type": "bytes32"
        }
      ],
      "name": "Commit",
      "type": "event"
    },
    {
      "anonymous": false,
      "inputs": [
        {
          "indexed": true,
          "internalType": "address",
          "name": "to",
          "type": "address"
        },
        {
          "indexed": false,
          "internalType": "uint256",
          "name": "amount",
          "type": "uint256"
        }
      ],
      "name": "DevFeeTransferred",
      "type": "event"
    },
    {
      "anonymous": false,
      "inputs": [
        {
          "indexed": true,
          "internalType": "uint256",
          "name": "tokenId",
          "type": "uint256"
        }
      ],
      "name": "Died",
      "type": "event"
    },
    {
      "anonymous": false,
      "inputs": [
        {
          "indexed": true,
          "internalType": "address",
          "name": "previousOwner",
          "type": "address"
        },
        {
          "indexed": true,
          "internalType": "address",
          "name": "newOwner",
          "type": "address"
        }
      ],
      "name": "OwnershipTransferred",
      "type": "event"
    },
    {
      "anonymous": false,
      "inputs": [
        {
          "indexed": true,
          "internalType": "address",
          "name": "user",
          "type": "address"
        },
        {
          "indexed": true,
          "internalType": "uint256",
          "name": "tokenId",
          "type": "uint256"
        },
        {
          "indexed": false,
          "internalType": "uint8",
          "name": "rank",
          "type": "uint8"
        },
        {
          "indexed": false,
          "internalType": "string",
          "name": "uri",
          "type": "string"
        }
      ],
      "name": "RevealAndMint",
      "type": "event"
    },
    {
      "anonymous": false,
      "inputs": [
        {
          "indexed": true,
          "internalType": "address",
          "name": "from",
          "type": "address"
        },
        {
          "indexed": true,
          "internalType": "address",
          "name": "to",
          "type": "address"
        },
        {
          "indexed": true,
          "internalType": "uint256",
          "name": "tokenId",
          "type": "uint256"
        }
      ],
      "name": "Transfer",
      "type": "event"
    },
    {
      "stateMutability": "payable",
      "type": "fallback"
    },
    {
      "inputs": [],
      "name": "ACCRUAL_WINDOW",
      "outputs": [
        {
          "internalType": "uint256",
          "name": "",
          "type": "uint256"
        }
      ],
      "stateMutability": "view",
      "type": "function"
    },
    {
      "inputs": [],
      "name": "MINT_FEE",
      "outputs": [
        {
          "internalType": "uint256",
          "name": "",
          "type": "uint256"
        }
      ],
      "stateMutability": "view",
      "type": "function"
    },
    {
      "inputs": [],
      "name": "REVEAL_BLOCK_LIMIT",
      "outputs": [
        {
          "internalType": "uint256",
          "name": "",
          "type": "uint256"
        }
      ],
      "stateMutability": "view",
      "type": "function"
    },
    {
      "inputs": [
        {
          "internalType": "address",
          "name": "to",
          "type": "address"
        },
        {
          "internalType": "uint256",
          "name": "tokenId",
          "type": "uint256"
        }
      ],
      "name": "approve",
      "outputs": [],
      "stateMutability": "nonpayable",
      "type": "function"
    },
    {
      "inputs": [
        {
          "internalType": "address",
          "name": "owner",
          "type": "address"
        }
      ],
      "name": "balanceOf",
      "outputs": [
        {
          "internalType": "uint256",
          "name": "",
          "type": "uint256"
        }
      ],
      "stateMutability": "view",
      "type": "function"
    },
    {
      "inputs": [
        {
          "internalType": "uint256",
          "name": "tokenId",
          "type": "uint256"
        }
      ],
      "name": "collect",
      "outputs": [],
      "stateMutability": "nonpayable",
      "type": "function"
    },
    {
      "inputs": [
        {
          "internalType": "address",
          "name": "",
          "type": "address"
        }
      ],
      "name": "commitData",
      "outputs": [
        {
          "internalType": "bytes32",
          "name": "commitment",
          "type": "bytes32"
        },
        {
          "internalType": "uint32",
          "name": "blockNumber",
          "type": "uint32"
        }
      ],
      "stateMutability": "view",
      "type": "function"
    },
    {
      "inputs": [
        {
          "internalType": "bytes32",
          "name": "commitment",
          "type": "bytes32"
        }
      ],
      "name": "commitMint",
      "outputs": [],
      "stateMutability": "payable",
      "type": "function"
    },
    {
      "inputs": [
        {
          "internalType": "bytes32",
          "name": "commitment",
          "type": "bytes32"
        }
      ],
      "name": "commitMintPack10",
      "outputs": [],
      "stateMutability": "payable",
      "type": "function"
    },
    {
      "inputs": [
        {
          "internalType": "bytes32",
          "name": "commitment",
          "type": "bytes32"
        }
      ],
      "name": "commitMintPack100",
      "outputs": [],
      "stateMutability": "payable",
      "type": "function"
    },
    {
      "inputs": [
        {
          "internalType": "bytes32",
          "name": "commitment",
          "type": "bytes32"
        }
      ],
      "name": "commitMintPack25",
      "outputs": [],
      "stateMutability": "payable",
      "type": "function"
    },
    {
      "inputs": [
        {
          "internalType": "bytes32",
          "name": "commitment",
          "type": "bytes32"
        }
      ],
      "name": "commitMintPack50",
      "outputs": [],
      "stateMutability": "payable",
      "type": "function"
    },
    {
      "inputs": [],
      "name": "devPool",
      "outputs": [
        {
          "internalType": "uint256",
          "name": "",
          "type": "uint256"
        }
      ],
      "stateMutability": "view",
      "type": "function"
    },
    {
      "inputs": [],
      "name": "devWallet",
      "outputs": [
        {
          "internalType": "address",
          "name": "",
          "type": "address"
        }
      ],
      "stateMutability": "view",
      "type": "function"
    },
    {
      "inputs": [
        {
          "internalType": "uint256",
          "name": "tokenId",
          "type": "uint256"
        }
      ],
      "name": "getApproved",
      "outputs": [
        {
          "internalType": "address",
          "name": "",
          "type": "address"
        }
      ],
      "stateMutability": "view",
      "type": "function"
    },
    {
      "inputs": [
        {
          "internalType": "address",
          "name": "owner",
          "type": "address"
        },
        {
          "internalType": "address",
          "name": "operator",
          "type": "address"
        }
      ],
      "name": "isApprovedForAll",
      "outputs": [
        {
          "internalType": "bool",
          "name": "",
          "type": "bool"
        }
      ],
      "stateMutability": "view",
      "type": "function"
    },
    {
      "inputs": [],
      "name": "name",
      "outputs": [
        {
          "internalType": "string",
          "name": "",
          "type": "string"
        }
      ],
      "stateMutability": "view",
      "type": "function"
    },
    {
      "inputs": [],
      "name": "owner",
      "outputs": [
        {
          "internalType": "address",
          "name": "",
          "type": "address"
        }
      ],
      "stateMutability": "view",
      "type": "function"
    },
    {
      "inputs": [
        {
          "internalType": "uint256",
          "name": "tokenId",
          "type": "uint256"
        }
      ],
      "name": "ownerOf",
      "outputs": [
        {
          "internalType": "address",
          "name": "",
          "type": "address"
        }
      ],
      "stateMutability": "view",
      "type": "function"
    },
    {
      "inputs": [
        {
          "internalType": "uint8",
          "name": "",
          "type": "uint8"
        }
      ],
      "name": "rankData",
      "outputs": [
        {
          "internalType": "uint256",
          "name": "S",
          "type": "uint256"
        },
        {
          "internalType": "uint256",
          "name": "T",
          "type": "uint256"
        }
      ],
      "stateMutability": "view",
      "type": "function"
    },
    {
      "inputs": [],
      "name": "renounceOwnership",
      "outputs": [],
      "stateMutability": "nonpayable",
      "type": "function"
    },
    {
      "inputs": [
        {
          "internalType": "string",
          "name": "uri",
          "type": "string"
        }
      ],
      "name": "revealExpiredCommit",
      "outputs": [],
      "stateMutability": "nonpayable",
      "type": "function"
    },
    {
      "inputs": [
        {
          "internalType": "string[]",
          "name": "uris",
          "type": "string[]"
        }
      ],
      "name": "revealExpiredCommitPack10",
      "outputs": [],
      "stateMutability": "nonpayable",
      "type": "function"
    },
    {
      "inputs": [
        {
          "internalType": "string[]",
          "name": "uris",
          "type": "string[]"
        }
      ],
      "name": "revealExpiredCommitPack100",
      "outputs": [],
      "stateMutability": "nonpayable",
      "type": "function"
    },
    {
      "inputs": [
        {
          "internalType": "string[]",
          "name": "uris",
          "type": "string[]"
        }
      ],
      "name": "revealExpiredCommitPack25",
      "outputs": [],
      "stateMutability": "nonpayable",
      "type": "function"
    },
    {
      "inputs": [
        {
          "internalType": "string[]",
          "name": "uris",
          "type": "string[]"
        }
      ],
      "name": "revealExpiredCommitPack50",
      "outputs": [],
      "stateMutability": "nonpayable",
      "type": "function"
    },
    {
      "inputs": [
        {
          "internalType": "string",
          "name": "uri",
          "type": "string"
        },
        {
          "internalType": "bytes32",
          "name": "salt",
          "type": "bytes32"
        }
      ],
      "name": "revealMint",
      "outputs": [],
      "stateMutability": "nonpayable",
      "type": "function"
    },
    {
      "inputs": [
        {
          "internalType": "string[]",
          "name": "uris",
          "type": "string[]"
        },
        {
          "internalType": "bytes32",
          "name": "salt",
          "type": "bytes32"
        }
      ],
      "name": "revealMintPack10",
      "outputs": [],
      "stateMutability": "nonpayable",
      "type": "function"
    },
    {
      "inputs": [
        {
          "internalType": "string[]",
          "name": "uris",
          "type": "string[]"
        },
        {
          "internalType": "bytes32",
          "name": "salt",
          "type": "bytes32"
        }
      ],
      "name": "revealMintPack100",
      "outputs": [],
      "stateMutability": "nonpayable",
      "type": "function"
    },
    {
      "inputs": [
        {
          "internalType": "string[]",
          "name": "uris",
          "type": "string[]"
        },
        {
          "internalType": "bytes32",
          "name": "salt",
          "type": "bytes32"
        }
      ],
      "name": "revealMintPack25",
      "outputs": [],
      "stateMutability": "nonpayable",
      "type": "function"
    },
    {
      "inputs": [
        {
          "internalType": "string[]",
          "name": "uris",
          "type": "string[]"
        },
        {
          "internalType": "bytes32",
          "name": "salt",
          "type": "bytes32"
        }
      ],
      "name": "revealMintPack50",
      "outputs": [],
      "stateMutability": "nonpayable",
      "type": "function"
    },
    {
      "inputs": [
        {
          "internalType": "address",
          "name": "from",
          "type": "address"
        },
        {
          "internalType": "address",
          "name": "to",
          "type": "address"
        },
        {
          "internalType": "uint256",
          "name": "tokenId",
          "type": "uint256"
        }
      ],
      "name": "safeTransferFrom",
      "outputs": [],
      "stateMutability": "nonpayable",
      "type": "function"
    },
    {
      "inputs": [
        {
          "internalType": "address",
          "name": "from",
          "type": "address"
        },
        {
          "internalType": "address",
          "name": "to",
          "type": "address"
        },
        {
          "internalType": "uint256",
          "name": "tokenId",
          "type": "uint256"
        },
        {
          "internalType": "bytes",
          "name": "data",
          "type": "bytes"
        }
      ],
      "name": "safeTransferFrom",
      "outputs": [],
      "stateMutability": "nonpayable",
      "type": "function"
    },
    {
      "inputs": [
        {
          "internalType": "uint256",
          "name": "",
          "type": "uint256"
        }
      ],
      "name": "sbtInfo",
      "outputs": [
        {
          "internalType": "uint256",
          "name": "startTimestamp",
          "type": "uint256"
        },
        {
          "internalType": "uint256",
          "name": "lastCollect",
          "type": "uint256"
        },
        {
          "internalType": "uint256",
          "name": "collected",
          "type": "uint256"
        },
        {
          "internalType": "bool",
          "name": "isDead",
          "type": "bool"
        },
        {
          "internalType": "uint8",
          "name": "rank",
          "type": "uint8"
        }
      ],
      "stateMutability": "view",
      "type": "function"
    },
    {
      "inputs": [
        {
          "internalType": "address",
          "name": "operator",
          "type": "address"
        },
        {
          "internalType": "bool",
          "name": "approved",
          "type": "bool"
        }
      ],
      "name": "setApprovalForAll",
      "outputs": [],
      "stateMutability": "nonpayable",
      "type": "function"
    },
    {
      "inputs": [
        {
          "internalType": "string",
          "name": "baseURI",
          "type": "string"
        }
      ],
      "name": "setBaseURI",
      "outputs": [],
      "stateMutability": "nonpayable",
      "type": "function"
    },
    {
      "inputs": [
        {
          "internalType": "address",
          "name": "_newDevWallet",
          "type": "address"
        }
      ],
      "name": "setDevWallet",
      "outputs": [],
      "stateMutability": "nonpayable",
      "type": "function"
    },
    {
      "inputs": [
        {
          "internalType": "bytes4",
          "name": "interfaceId",
          "type": "bytes4"
        }
      ],
      "name": "supportsInterface",
      "outputs": [
        {
          "internalType": "bool",
          "name": "",
          "type": "bool"
        }
      ],
      "stateMutability": "view",
      "type": "function"
    },
    {
      "inputs": [],
      "name": "symbol",
      "outputs": [
        {
          "internalType": "string",
          "name": "",
          "type": "string"
        }
      ],
      "stateMutability": "view",
      "type": "function"
    },
    {
      "inputs": [
        {
          "internalType": "uint256",
          "name": "tokenId",
          "type": "uint256"
        }
      ],
      "name": "tokenURI",
      "outputs": [
        {
          "internalType": "string",
          "name": "",
          "type": "string"
        }
      ],
      "stateMutability": "view",
      "type": "function"
    },
    {
      "inputs": [
        {
          "internalType": "address",
          "name": "from",
          "type": "address"
        },
        {
          "internalType": "address",
          "name": "to",
          "type": "address"
        },
        {
          "internalType": "uint256",
          "name": "tokenId",
          "type": "uint256"
        }
      ],
      "name": "transferFrom",
      "outputs": [],
      "stateMutability": "nonpayable",
      "type": "function"
    },
    {
      "inputs": [
        {
          "internalType": "address",
          "name": "newOwner",
          "type": "address"
        }
      ],
      "name": "transferOwnership",
      "outputs": [],
      "stateMutability": "nonpayable",
      "type": "function"
    },
    {
      "inputs": [],
      "name": "withdrawDevPool",
      "outputs": [],
      "stateMutability": "nonpayable",
      "type": "function"
    },
    {
      "inputs": [
        {
          "internalType": "uint256",
          "name": "amount",
          "type": "uint256"
        }
      ],
      "name": "withdrawMon",
      "outputs": [],
      "stateMutability": "nonpayable",
      "type": "function"
    },
    {
      "stateMutability": "payable",
      "type": "receive"
    }
  ],
  "bytecode": "0x608060405260405180606001604052806026815260200162005dc560269139600e90816200002e91906200065b565b503480156200003c57600080fd5b5060405162005deb38038062005deb8339818101604052810190620000629190620007ac565b6040518060400160405280600681526020017f4c696c6e616400000000000000000000000000000000000000000000000000008152506040518060400160405280600381526020017f4c4e4400000000000000000000000000000000000000000000000000000000008152508160009081620000df91906200065b565b508060019081620000f191906200065b565b50505062000114620001086200031360201b60201c565b6200031b60201b60201c565b600160078190555080600c60006101000a81548173ffffffffffffffffffffffffffffffffffffffff021916908373ffffffffffffffffffffffffffffffffffffffff1602179055506040518060400160405280610c8081526020016203f480815250600960008060ff16815260200190815260200160002060008201518160000155602082015181600101559050506040518060400160405280610960815260200162093a8081525060096000600160ff168152602001908152602001600020600082015181600001556020820151816001015590505060405180604001604052806105dc81526020016212750081525060096000600260ff168152602001908152602001600020600082015181600001556020820151816001015590505060405180604001604052806104b081526020016212750081525060096000600360ff168152602001908152602001600020600082015181600001556020820151816001015590505060405180604001604052806103e881526020016224ea0081525060096000600460ff1681526020019081526020016000206000820151816000015560208201518160010155905050604051806040016040528061032081526020016224ea0081525060096000600560ff168152602001908152602001600020600082015181600001556020820151816001015590505050620007de565b600033905090565b6000600660009054906101000a900473ffffffffffffffffffffffffffffffffffffffff16905081600660006101000a81548173ffffffffffffffffffffffffffffffffffffffff021916908373ffffffffffffffffffffffffffffffffffffffff1602179055508173ffffffffffffffffffffffffffffffffffffffff168173ffffffffffffffffffffffffffffffffffffffff167f8be0079c531659141344cd1fd0a4f28419497f9722a3daafe3b4186f6b6457e060405160405180910390a35050565b600081519050919050565b7f4e487b7100000000000000000000000000000000000000000000000000000000600052604160045260246000fd5b7f4e487b7100000000000000000000000000000000000000000000000000000000600052602260045260246000fd5b600060028204905060018216806200046357607f821691505b6020821081036200047957620004786200041b565b5b50919050565b60008190508160005260206000209050919050565b60006020601f8301049050919050565b600082821b905092915050565b600060088302620004e37fffffffffffffffffffffffffffffffffffffffffffffffffffffffffffffffff82620004a4565b620004ef8683620004a4565b95508019841693508086168417925050509392505050565b6000819050919050565b6000819050919050565b60006200053c62000536620005308462000507565b62000511565b62000507565b9050919050565b6000819050919050565b62000558836200051b565b62000570620005678262000543565b848454620004b1565b825550505050565b600090565b6200058762000578565b620005948184846200054d565b505050565b5b81811015620005bc57620005b06000826200057d565b6001810190506200059a565b5050565b601f8211156200060b57620005d5816200047f565b620005e08462000494565b81016020851015620005f0578190505b62000608620005ff8562000494565b83018262000599565b50505b505050565b600082821c905092915050565b6000620006306000198460080262000610565b1980831691505092915050565b60006200064b83836200061d565b9150826002028217905092915050565b6200066682620003e1565b67ffffffffffffffff811115620006825762000681620003ec565b5b6200068e82546200044a565b6200069b828285620005c0565b600060209050601f831160018114620006d35760008415620006be578287015190505b620006ca85826200063d565b8655506200073a565b601f198416620006e3866200047f565b60005b828110156200070d57848901518255600182019150602085019450602081019050620006e6565b868310156200072d578489015162000729601f8916826200061d565b8355505b6001600288020188555050505b505050505050565b600080fd5b600073ffffffffffffffffffffffffffffffffffffffff82169050919050565b6000620007748262000747565b9050919050565b620007868162000767565b81146200079257600080fd5b50565b600081519050620007a6816200077b565b92915050565b600060208284031215620007c557620007c462000742565b5b6000620007d58482850162000795565b91505092915050565b6155d780620007ee6000396000f3fe60806040526004361061026b5760003560e01c8063715018a611610144578063b88d4fde116100b6578063d7bf81a31161007a578063d7bf81a3146108f3578063d90dce881461091e578063db0d20e41461093a578063db59e4c914610963578063e985e9c51461097f578063f2fde38b146109bc57610272565b8063b88d4fde1461081f578063bd2f1b5c14610848578063c87b56dd14610864578063cdcbe287146108a1578063ce3f865f146108ca57610272565b806391c690dd1161010857806391c690dd1461072557806395d89b411461074e578063a180521a14610779578063a22cb465146107a2578063a436e542146107cb578063b5838a27146107f457610272565b8063715018a614610666578063738c712f1461067d57806378584532146106a65780638da5cb5b146106cf5780638ea5220f146106fa57610272565b8063355771ff116101dd57806355f804b3116101a157806355f804b3146105465780636352211e1461056f57806366492358146105ac57806369dff5b8146105d75780636fed1ea71461060057806370a082311461062957610272565b8063355771ff1461046257806337e23d7a1461048d57806342842e0e146104cb57806343b3c543146104f45780635412f9261461051d57610272565b80631078bc421161022f5780631078bc42146103805780631ceaf8de146103c15780631f53ac02146103dd57806323b872dd14610406578063277f71b71461042f578063344286861461044657610272565b806301ffc9a71461027457806306fdde03146102b1578063081812fc146102dc578063095ea7b3146103195780630acb93661461034257610272565b3661027257005b005b34801561028057600080fd5b5061029b60048036038101906102969190613954565b6109e5565b6040516102a8919061399c565b60405180910390f35b3480156102bd57600080fd5b506102c6610ac7565b6040516102d39190613a47565b60405180910390f35b3480156102e857600080fd5b5061030360048036038101906102fe9190613a9f565b610b59565b6040516103109190613b0d565b60405180910390f35b34801561032557600080fd5b50610340600480360381019061033b9190613b54565b610b9f565b005b34801561034e57600080fd5b5061036960048036038101906103649190613b94565b610cb6565b604051610377929190613bf9565b60405180910390f35b34801561038c57600080fd5b506103a760048036038101906103a29190613a9f565b610cea565b6040516103b8959493929190613c4d565b60405180910390f35b6103db60048036038101906103d69190613ccc565b610d3a565b005b3480156103e957600080fd5b5061040460048036038101906103ff9190613b94565b610d92565b005b34801561041257600080fd5b5061042d60048036038101906104289190613cf9565b610dde565b005b34801561043b57600080fd5b50610444610e3e565b005b610460600480360381019061045b9190613ccc565b610fee565b005b34801561046e57600080fd5b50610477611046565b6040516104849190613d4c565b60405180910390f35b34801561049957600080fd5b506104b460048036038101906104af9190613d93565b61104d565b6040516104c2929190613dc0565b60405180910390f35b3480156104d757600080fd5b506104f260048036038101906104ed9190613cf9565b611071565b005b34801561050057600080fd5b5061051b60048036038101906105169190613f1e565b611091565b005b34801561052957600080fd5b50610544600480360381019061053f919061404d565b611236565b005b34801561055257600080fd5b5061056d60048036038101906105689190613f1e565b61126a565b005b34801561057b57600080fd5b5061059660048036038101906105919190613a9f565b611285565b6040516105a39190613b0d565b60405180910390f35b3480156105b857600080fd5b506105c161130b565b6040516105ce9190613d4c565b60405180910390f35b3480156105e357600080fd5b506105fe60048036038101906105f9919061404d565b611311565b005b34801561060c57600080fd5b5061062760048036038101906106229190613a9f565b611345565b005b34801561063557600080fd5b50610650600480360381019061064b9190613b94565b611457565b60405161065d9190613d4c565b60405180910390f35b34801561067257600080fd5b5061067b61150e565b005b34801561068957600080fd5b506106a4600480360381019061069f9190614096565b611522565b005b3480156106b257600080fd5b506106cd60048036038101906106c89190614096565b611552565b005b3480156106db57600080fd5b506106e4611582565b6040516106f19190613b0d565b60405180910390f35b34801561070657600080fd5b5061070f6115ac565b60405161071c9190613b0d565b60405180910390f35b34801561073157600080fd5b5061074c6004803603810190610747919061404d565b6115d2565b005b34801561075a57600080fd5b50610763611606565b6040516107709190613a47565b60405180910390f35b34801561078557600080fd5b506107a0600480360381019061079b9190614096565b611698565b005b3480156107ae57600080fd5b506107c960048036038101906107c4919061411e565b6116c8565b005b3480156107d757600080fd5b506107f260048036038101906107ed919061404d565b6116de565b005b34801561080057600080fd5b50610809611712565b6040516108169190613d4c565b60405180910390f35b34801561082b57600080fd5b50610846600480360381019061084191906141ff565b611718565b005b610862600480360381019061085d9190613ccc565b61177a565b005b34801561087057600080fd5b5061088b60048036038101906108869190613a9f565b6117d2565b6040516108989190613a47565b60405180910390f35b3480156108ad57600080fd5b506108c860048036038101906108c39190614282565b61184e565b005b3480156108d657600080fd5b506108f160048036038101906108ec9190613a9f565b611b29565b005b3480156108ff57600080fd5b50610908611de5565b6040516109159190613d4c565b60405180910390f35b61093860048036038101906109339190613ccc565b611df0565b005b34801561094657600080fd5b50610961600480360381019061095c9190614096565b611e48565b005b61097d60048036038101906109789190613ccc565b611e78565b005b34801561098b57600080fd5b506109a660048036038101906109a191906142de565b611ec4565b6040516109b3919061399c565b60405180910390f35b3480156109c857600080fd5b506109e360048036038101906109de9190613b94565b611f58565b005b60007f80ac58cd000000000000000000000000000000000000000000000000000000007bffffffffffffffffffffffffffffffffffffffffffffffffffffffff1916827bffffffffffffffffffffffffffffffffffffffffffffffffffffffff19161480610ab057507f5b5e139f000000000000000000000000000000000000000000000000000000007bffffffffffffffffffffffffffffffffffffffffffffffffffffffff1916827bffffffffffffffffffffffffffffffffffffffffffffffffffffffff1916145b80610ac05750610abf82611fdb565b5b9050919050565b606060008054610ad69061434d565b80601f0160208091040260200160405190810160405280929190818152602001828054610b029061434d565b8015610b4f5780601f10610b2457610100808354040283529160200191610b4f565b820191906000526020600020905b815481529060010190602001808311610b3257829003601f168201915b5050505050905090565b6000610b6482612045565b6004600083815260200190815260200160002060009054906101000a900473ffffffffffffffffffffffffffffffffffffffff169050919050565b6000610baa82611285565b90508073ffffffffffffffffffffffffffffffffffffffff168373ffffffffffffffffffffffffffffffffffffffff1603610c1a576040517f08c379a0000000000000000000000000000000000000000000000000000000008152600401610c11906143f0565b60405180910390fd5b8073ffffffffffffffffffffffffffffffffffffffff16610c39612090565b73ffffffffffffffffffffffffffffffffffffffff161480610c685750610c6781610c62612090565b611ec4565b5b610ca7576040517f08c379a0000000000000000000000000000000000000000000000000000000008152600401610c9e90614482565b60405180910390fd5b610cb18383612098565b505050565b600b6020528060005260406000206000915090508060000154908060010160009054906101000a900463ffffffff16905082565b600a6020528060005260406000206000915090508060000154908060010154908060020154908060030160009054906101000a900460ff16908060030160019054906101000a900460ff16905085565b6019662386f26fc10000610d4e91906144d1565b3414610d86576040517fbfa3b5b800000000000000000000000000000000000000000000000000000000815260040160405180910390fd5b610d8f81612151565b50565b610d9a612289565b80600c60006101000a81548173ffffffffffffffffffffffffffffffffffffffff021916908373ffffffffffffffffffffffffffffffffffffffff16021790555050565b610def610de9612090565b82612307565b610e2e576040517f08c379a0000000000000000000000000000000000000000000000000000000008152600401610e2590614585565b60405180910390fd5b610e3983838361239c565b505050565b610e46612289565b610e4e612695565b6000600d5490506000600d8190555060008073ffffffffffffffffffffffffffffffffffffffff16600c60009054906101000a900473ffffffffffffffffffffffffffffffffffffffff1673ffffffffffffffffffffffffffffffffffffffff1614610edc57600c60009054906101000a900473ffffffffffffffffffffffffffffffffffffffff16610ee5565b610ee4611582565b5b905060008173ffffffffffffffffffffffffffffffffffffffff1683604051610f0d906145d6565b60006040518083038185875af1925050503d8060008114610f4a576040519150601f19603f3d011682016040523d82523d6000602084013e610f4f565b606091505b5050905080610f93576040517f08c379a0000000000000000000000000000000000000000000000000000000008152600401610f8a90614637565b60405180910390fd5b8173ffffffffffffffffffffffffffffffffffffffff167feb5f9d0f77ca1b4235da3a889df2e60673bcf3cdb66c14b903940a7c8f30136784604051610fd99190613d4c565b60405180910390a2505050610fec6126e4565b565b600a662386f26fc1000061100291906144d1565b341461103a576040517fbfa3b5b800000000000000000000000000000000000000000000000000000000815260040160405180910390fd5b61104381612151565b50565b6203f48081565b60096020528060005260406000206000915090508060000154908060010154905082565b61108c83838360405180602001604052806000815250611718565b505050565b611099612695565b6000600b60003373ffffffffffffffffffffffffffffffffffffffff1673ffffffffffffffffffffffffffffffffffffffff168152602001908152602001600020604051806040016040529081600082015481526020016001820160009054906101000a900463ffffffff1663ffffffff1663ffffffff1681525050905060008160200151905060008163ffffffff1603611160576040517f89940b8200000000000000000000000000000000000000000000000000000000815260040160405180910390fd5b6101008163ffffffff166111749190614657565b43116111ac576040517f1a09566900000000000000000000000000000000000000000000000000000000815260040160405180910390fd5b6000600590506111c7336111c060086126ee565b83876126fc565b600b60003373ffffffffffffffffffffffffffffffffffffffff1673ffffffffffffffffffffffffffffffffffffffff1681526020019081526020016000206000808201600090556001820160006101000a81549063ffffffff021916905550505050506112336126e4565b50565b61123e612695565b60006006603261124e9190614699565b61ffff16905061125e8282612819565b506112676126e4565b50565b611272612289565b80600e9081611281919061487b565b5050565b60008061129183612a20565b9050600073ffffffffffffffffffffffffffffffffffffffff168173ffffffffffffffffffffffffffffffffffffffff1603611302576040517f08c379a00000000000000000000000000000000000000000000000000000000081526004016112f990614999565b60405180910390fd5b80915050919050565b61010081565b611319612695565b60006001600a6113299190614699565b61ffff1690506113398282612819565b506113426126e4565b50565b61134d612289565b611355612695565b80471015611398576040517f08c379a000000000000000000000000000000000000000000000000000000000815260040161138f90614a2b565b60405180910390fd5b60006113a2611582565b73ffffffffffffffffffffffffffffffffffffffff16826040516113c5906145d6565b60006040518083038185875af1925050503d8060008114611402576040519150601f19603f3d011682016040523d82523d6000602084013e611407565b606091505b505090508061144b576040517f08c379a000000000000000000000000000000000000000000000000000000000815260040161144290614a97565b60405180910390fd5b506114546126e4565b50565b60008073ffffffffffffffffffffffffffffffffffffffff168273ffffffffffffffffffffffffffffffffffffffff16036114c7576040517f08c379a00000000000000000000000000000000000000000000000000000000081526004016114be90614b29565b60405180910390fd5b600360008373ffffffffffffffffffffffffffffffffffffffff1673ffffffffffffffffffffffffffffffffffffffff168152602001908152602001600020549050919050565b611516612289565b6115206000612a5d565b565b61152a612695565b61154682826001600a61153d9190614699565b61ffff16612b23565b61154e6126e4565b5050565b61155a612695565b6115768282600c606461156d9190614699565b61ffff16612b23565b61157e6126e4565b5050565b6000600660009054906101000a900473ffffffffffffffffffffffffffffffffffffffff16905090565b600c60009054906101000a900473ffffffffffffffffffffffffffffffffffffffff1681565b6115da612695565b6000600360196115ea9190614699565b61ffff1690506115fa8282612819565b506116036126e4565b50565b6060600180546116159061434d565b80601f01602080910402602001604051908101604052809291908181526020018280546116419061434d565b801561168e5780601f106116635761010080835404028352916020019161168e565b820191906000526020600020905b81548152906001019060200180831161167157829003601f168201915b5050505050905090565b6116a0612695565b6116bc8282600660326116b39190614699565b61ffff16612b23565b6116c46126e4565b5050565b6116da6116d3612090565b8383612fca565b5050565b6116e6612695565b6000600c60646116f69190614699565b61ffff1690506117068282612819565b5061170f6126e4565b50565b600d5481565b611729611723612090565b83612307565b611768576040517f08c379a000000000000000000000000000000000000000000000000000000000815260040161175f90614585565b60405180910390fd5b61177484848484613136565b50505050565b6032662386f26fc1000061178e91906144d1565b34146117c6576040517fbfa3b5b800000000000000000000000000000000000000000000000000000000815260040160405180910390fd5b6117cf81612151565b50565b60606117dd82613192565b61181c576040517f08c379a000000000000000000000000000000000000000000000000000000000815260040161181390614bbb565b60405180910390fd5b600e611827836131d3565b604051602001611838929190614c9a565b6040516020818303038152906040529050919050565b611856612695565b6000600b60003373ffffffffffffffffffffffffffffffffffffffff1673ffffffffffffffffffffffffffffffffffffffff168152602001908152602001600020604051806040016040529081600082015481526020016001820160009054906101000a900463ffffffff1663ffffffff1663ffffffff1681525050905060008160200151905060008163ffffffff160361191d576040517f89940b8200000000000000000000000000000000000000000000000000000000815260040160405180910390fd5b8063ffffffff16431161195c576040517fc349402d00000000000000000000000000000000000000000000000000000000815260040160405180910390fd5b6101008163ffffffff166119709190614657565b4311156119a9576040517f387b915400000000000000000000000000000000000000000000000000000000815260040160405180910390fd5b60008163ffffffff164090506000801b81036119f1576040517f92555c0e00000000000000000000000000000000000000000000000000000000815260040160405180910390fd5b8484604051602001611a04929190614cdf565b60405160208183030381529060405280519060200120836000015114611a56576040517f9227a43c00000000000000000000000000000000000000000000000000000000815260040160405180910390fd5b6000612710858333604051602001611a7093929190614d4f565b6040516020818303038152906040528051906020012060001c611a939190614dbb565b90506000611aa0826132a1565b9050611ab733611ab060086126ee565b838a6126fc565b600b60003373ffffffffffffffffffffffffffffffffffffffff1673ffffffffffffffffffffffffffffffffffffffff1681526020019081526020016000206000808201600090556001820160006101000a81549063ffffffff021916905550505050505050611b256126e4565b5050565b611b31612695565b3373ffffffffffffffffffffffffffffffffffffffff16611b5182611285565b73ffffffffffffffffffffffffffffffffffffffff1614611ba7576040517f08c379a0000000000000000000000000000000000000000000000000000000008152600401611b9e90614e38565b60405180910390fd5b6000600a600083815260200190815260200160002090508060030160009054906101000a900460ff1615611c10576040517f08c379a0000000000000000000000000000000000000000000000000000000008152600401611c0790614ea4565b60405180910390fd5b6000600960008360030160019054906101000a900460ff1660ff1660ff1681526020019081526020016000206040518060400160405290816000820154815260200160018201548152505090506000826000015442611c6f9190614ec4565b905081602001518110611cce5760018360030160006101000a81548160ff021916908315150217905550837fb4228e78dcdc5f8ba5a633070b6bfe900e416549d3d7c65b0a495f0d028426bf60405160405180910390a2816020015190505b6000836001015442611ce09190614ec4565b905060006203f4808211611cf45781611cf9565b6203f4805b9050600080856020015111611d12578460000151611d32565b8460200151828660000151611d2791906144d1565b611d319190614ef8565b5b9050600086600201548660000151611d4a9190614ec4565b90506000818311611d5b5782611d5d565b815b905080886002016000828254611d739190614657565b92505081905550428860010181905550883373ffffffffffffffffffffffffffffffffffffffff167f8f0c3d4726e2d22ccf850efced91f2d0c1bea40229449223d795a6cff327623683604051611dca9190613d4c565b60405180910390a35050505050505050611de26126e4565b50565b662386f26fc1000081565b6064662386f26fc10000611e0491906144d1565b3414611e3c576040517fbfa3b5b800000000000000000000000000000000000000000000000000000000815260040160405180910390fd5b611e4581612151565b50565b611e50612695565b611e6c828260036019611e639190614699565b61ffff16612b23565b611e746126e4565b5050565b662386f26fc100003414611eb8576040517f4046b62500000000000000000000000000000000000000000000000000000000815260040160405180910390fd5b611ec181612151565b50565b6000600560008473ffffffffffffffffffffffffffffffffffffffff1673ffffffffffffffffffffffffffffffffffffffff16815260200190815260200160002060008373ffffffffffffffffffffffffffffffffffffffff1673ffffffffffffffffffffffffffffffffffffffff16815260200190815260200160002060009054906101000a900460ff16905092915050565b611f60612289565b600073ffffffffffffffffffffffffffffffffffffffff168173ffffffffffffffffffffffffffffffffffffffff1603611fcf576040517f08c379a0000000000000000000000000000000000000000000000000000000008152600401611fc690614f9b565b60405180910390fd5b611fd881612a5d565b50565b60007f01ffc9a7000000000000000000000000000000000000000000000000000000007bffffffffffffffffffffffffffffffffffffffffffffffffffffffff1916827bffffffffffffffffffffffffffffffffffffffffffffffffffffffff1916149050919050565b61204e81613192565b61208d576040517f08c379a000000000000000000000000000000000000000000000000000000000815260040161208490614999565b60405180910390fd5b50565b600033905090565b816004600083815260200190815260200160002060006101000a81548173ffffffffffffffffffffffffffffffffffffffff021916908373ffffffffffffffffffffffffffffffffffffffff160217905550808273ffffffffffffffffffffffffffffffffffffffff1661210b83611285565b73ffffffffffffffffffffffffffffffffffffffff167f8c5be1e5ebec7d5bd14f71427d1e84f3dd0314c0f7b2291e5b200ac8c7c3b92560405160405180910390a45050565b6000600b60003373ffffffffffffffffffffffffffffffffffffffff1673ffffffffffffffffffffffffffffffffffffffff16815260200190815260200160002090506000801b8160000154146121d4576040517fbfec555800000000000000000000000000000000000000000000000000000000815260040160405180910390fd5b818160000181905550438160010160006101000a81548163ffffffff021916908363ffffffff1602179055506000606460053461221191906144d1565b61221b9190614ef8565b905080600d600082825461222f9190614657565b925050819055503373ffffffffffffffffffffffffffffffffffffffff167f0b6cc2ecff3b94112d44f2dbac8aee8eb02772c07b1e52605f0dc6d726bf0e318460405161227c9190614fbb565b60405180910390a2505050565b612291612090565b73ffffffffffffffffffffffffffffffffffffffff166122af611582565b73ffffffffffffffffffffffffffffffffffffffff1614612305576040517f08c379a00000000000000000000000000000000000000000000000000000000081526004016122fc90615022565b60405180910390fd5b565b60008061231383611285565b90508073ffffffffffffffffffffffffffffffffffffffff168473ffffffffffffffffffffffffffffffffffffffff16148061235557506123548185611ec4565b5b8061239357508373ffffffffffffffffffffffffffffffffffffffff1661237b84610b59565b73ffffffffffffffffffffffffffffffffffffffff16145b91505092915050565b8273ffffffffffffffffffffffffffffffffffffffff166123bc82611285565b73ffffffffffffffffffffffffffffffffffffffff1614612412576040517f08c379a0000000000000000000000000000000000000000000000000000000008152600401612409906150b4565b60405180910390fd5b600073ffffffffffffffffffffffffffffffffffffffff168273ffffffffffffffffffffffffffffffffffffffff1603612481576040517f08c379a000000000000000000000000000000000000000000000000000000000815260040161247890615146565b60405180910390fd5b61248e8383836001613333565b8273ffffffffffffffffffffffffffffffffffffffff166124ae82611285565b73ffffffffffffffffffffffffffffffffffffffff1614612504576040517f08c379a00000000000000000000000000000000000000000000000000000000081526004016124fb906150b4565b60405180910390fd5b6004600082815260200190815260200160002060006101000a81549073ffffffffffffffffffffffffffffffffffffffff02191690556001600360008573ffffffffffffffffffffffffffffffffffffffff1673ffffffffffffffffffffffffffffffffffffffff168152602001908152602001600020600082825403925050819055506001600360008473ffffffffffffffffffffffffffffffffffffffff1673ffffffffffffffffffffffffffffffffffffffff16815260200190815260200160002060008282540192505081905550816002600083815260200190815260200160002060006101000a81548173ffffffffffffffffffffffffffffffffffffffff021916908373ffffffffffffffffffffffffffffffffffffffff160217905550808273ffffffffffffffffffffffffffffffffffffffff168473ffffffffffffffffffffffffffffffffffffffff167fddf252ad1be2c89b69c2b068fc378daa952ba7f163c4a11628f55a4df523b3ef60405160405180910390a46126908383836001613339565b505050565b6002600754036126da576040517f08c379a00000000000000000000000000000000000000000000000000000000081526004016126d1906151b2565b60405180910390fd5b6002600781905550565b6001600781905550565b600081600001549050919050565b612706600861333f565b600061271260086126ee565b905061271e8582613355565b6040518060a00160405280428152602001428152602001600081526020016000151581526020018460ff16815250600a600083815260200190815260200160002060008201518160000155602082015181600101556040820151816002015560608201518160030160006101000a81548160ff02191690831515021790555060808201518160030160016101000a81548160ff021916908360ff160217905550905050808573ffffffffffffffffffffffffffffffffffffffff167f0fe979440580532b621e6c051114b9fb70153abf461fb807b9812ae5b7c86cc2858560405161280a9291906151d2565b60405180910390a35050505050565b80825114612853576040517f8df760a400000000000000000000000000000000000000000000000000000000815260040160405180910390fd5b6000600b60003373ffffffffffffffffffffffffffffffffffffffff1673ffffffffffffffffffffffffffffffffffffffff168152602001908152602001600020604051806040016040529081600082015481526020016001820160009054906101000a900463ffffffff1663ffffffff1663ffffffff1681525050905060008160200151905060008163ffffffff160361291a576040517f89940b8200000000000000000000000000000000000000000000000000000000815260040160405180910390fd5b6101008163ffffffff1661292e9190614657565b4311612966576040517f1a09566900000000000000000000000000000000000000000000000000000000815260040160405180910390fd5b60006005905060005b848110156129b7576129a63361298560086126ee565b8489858151811061299957612998615202565b5b60200260200101516126fc565b806129b090615231565b905061296f565b50600b60003373ffffffffffffffffffffffffffffffffffffffff1673ffffffffffffffffffffffffffffffffffffffff1681526020019081526020016000206000808201600090556001820160006101000a81549063ffffffff021916905550505050505050565b60006002600083815260200190815260200160002060009054906101000a900473ffffffffffffffffffffffffffffffffffffffff169050919050565b6000600660009054906101000a900473ffffffffffffffffffffffffffffffffffffffff16905081600660006101000a81548173ffffffffffffffffffffffffffffffffffffffff021916908373ffffffffffffffffffffffffffffffffffffffff1602179055508173ffffffffffffffffffffffffffffffffffffffff168173ffffffffffffffffffffffffffffffffffffffff167f8be0079c531659141344cd1fd0a4f28419497f9722a3daafe3b4186f6b6457e060405160405180910390a35050565b80835114612b5d576040517f8df760a400000000000000000000000000000000000000000000000000000000815260040160405180910390fd5b6000600b60003373ffffffffffffffffffffffffffffffffffffffff1673ffffffffffffffffffffffffffffffffffffffff168152602001908152602001600020905060008160010160009054906101000a900463ffffffff16905060008163ffffffff1603612bf9576040517f89940b8200000000000000000000000000000000000000000000000000000000815260040160405180910390fd5b8063ffffffff164311612c38576040517fc349402d00000000000000000000000000000000000000000000000000000000815260040160405180910390fd5b6101008163ffffffff16612c4c9190614657565b431115612c85576040517f21a0de6c00000000000000000000000000000000000000000000000000000000815260040160405180910390fd5b60008163ffffffff164090506000801b8103612ccd576040517f92555c0e00000000000000000000000000000000000000000000000000000000815260040160405180910390fd5b85600081518110612ce157612ce0615202565b5b602002602001015185604051602001612cfb929190614cdf565b60405160208183030381529060405280519060200120836000015414612d4d576040517f9227a43c00000000000000000000000000000000000000000000000000000000815260040160405180910390fd5b60005b8651811015612f6057600061271087843385604051602001612d75949392919061529a565b6040516020818303038152906040528051906020012060001c612d989190614dbb565b90506000603261ffff168261ffff1610612e175761015e61ffff168261ffff1610612e0f5761054661ffff168261ffff1610612e0757610d1661ffff168261ffff1610612dff576118ce61ffff168261ffff1610612df7576005612dfa565b60045b612e02565b60035b612e0a565b60025b612e12565b60015b612e1a565b60005b9050612e26600861333f565b6000612e3260086126ee565b9050612e3e3382613355565b6040518060a00160405280428152602001428152602001600081526020016000151581526020018360ff16815250600a600083815260200190815260200160002060008201518160000155602082015181600101556040820151816002015560608201518160030160006101000a81548160ff02191690831515021790555060808201518160030160016101000a81548160ff021916908360ff160217905550905050803373ffffffffffffffffffffffffffffffffffffffff167f0fe979440580532b621e6c051114b9fb70153abf461fb807b9812ae5b7c86cc2848d8881518110612f2e57612f2d615202565b5b6020026020010151604051612f449291906151d2565b60405180910390a350505080612f5990615231565b9050612d50565b50600b60003373ffffffffffffffffffffffffffffffffffffffff1673ffffffffffffffffffffffffffffffffffffffff1681526020019081526020016000206000808201600090556001820160006101000a81549063ffffffff02191690555050505050505050565b8173ffffffffffffffffffffffffffffffffffffffff168373ffffffffffffffffffffffffffffffffffffffff1603613038576040517f08c379a000000000000000000000000000000000000000000000000000000000815260040161302f90615334565b60405180910390fd5b80600560008573ffffffffffffffffffffffffffffffffffffffff1673ffffffffffffffffffffffffffffffffffffffff16815260200190815260200160002060008473ffffffffffffffffffffffffffffffffffffffff1673ffffffffffffffffffffffffffffffffffffffff16815260200190815260200160002060006101000a81548160ff0219169083151502179055508173ffffffffffffffffffffffffffffffffffffffff168373ffffffffffffffffffffffffffffffffffffffff167f17307eab39ab6107e8899845ad3d59bd9653f200f220920489ca2b5937696c3183604051613129919061399c565b60405180910390a3505050565b61314184848461239c565b61314d84848484613373565b61318c576040517f08c379a0000000000000000000000000000000000000000000000000000000008152600401613183906153c6565b60405180910390fd5b50505050565b60008073ffffffffffffffffffffffffffffffffffffffff166131b483612a20565b73ffffffffffffffffffffffffffffffffffffffff1614159050919050565b6060600060016131e2846134fa565b01905060008167ffffffffffffffff81111561320157613200613df3565b5b6040519080825280601f01601f1916602001820160405280156132335781602001600182028036833780820191505090505b509050600082602001820190505b600115613296578080600190039150507f3031323334353637383961626364656600000000000000000000000000000000600a86061a8153600a858161328a57613289614d8c565b5b04945060008503613241575b819350505050919050565b6000603261ffff168261ffff1610156132bd576000905061332e565b61015e61ffff168261ffff1610156132d8576001905061332e565b61054661ffff168261ffff1610156132f3576002905061332e565b610d1661ffff168261ffff16101561330e576003905061332e565b6118ce61ffff168261ffff161015613329576004905061332e565b600590505b919050565b50505050565b50505050565b6001816000016000828254019250508190555050565b61336f82826040518060200160405280600081525061364d565b5050565b60006133948473ffffffffffffffffffffffffffffffffffffffff166136a8565b156134ed578373ffffffffffffffffffffffffffffffffffffffff1663150b7a026133bd612090565b8786866040518563ffffffff1660e01b81526004016133df949392919061543b565b6020604051808303816000875af192505050801561341b57506040513d601f19601f82011682018060405250810190613418919061549c565b60015b61349d573d806000811461344b576040519150601f19603f3d011682016040523d82523d6000602084013e613450565b606091505b506000815103613495576040517f08c379a000000000000000000000000000000000000000000000000000000000815260040161348c906153c6565b60405180910390fd5b805181602001fd5b63150b7a0260e01b7bffffffffffffffffffffffffffffffffffffffffffffffffffffffff1916817bffffffffffffffffffffffffffffffffffffffffffffffffffffffff1916149150506134f2565b600190505b949350505050565b600080600090507a184f03e93ff9f4daa797ed6e38ed64bf6a1f0100000000000000008310613558577a184f03e93ff9f4daa797ed6e38ed64bf6a1f010000000000000000838161354e5761354d614d8c565b5b0492506040810190505b6d04ee2d6d415b85acef81000000008310613595576d04ee2d6d415b85acef8100000000838161358b5761358a614d8c565b5b0492506020810190505b662386f26fc1000083106135c457662386f26fc1000083816135ba576135b9614d8c565b5b0492506010810190505b6305f5e10083106135ed576305f5e10083816135e3576135e2614d8c565b5b0492506008810190505b612710831061361257612710838161360857613607614d8c565b5b0492506004810190505b60648310613635576064838161362b5761362a614d8c565b5b0492506002810190505b600a8310613644576001810190505b80915050919050565b61365783836136cb565b6136646000848484613373565b6136a3576040517f08c379a000000000000000000000000000000000000000000000000000000000815260040161369a906153c6565b60405180910390fd5b505050565b6000808273ffffffffffffffffffffffffffffffffffffffff163b119050919050565b600073ffffffffffffffffffffffffffffffffffffffff168273ffffffffffffffffffffffffffffffffffffffff160361373a576040517f08c379a000000000000000000000000000000000000000000000000000000000815260040161373190615515565b60405180910390fd5b61374381613192565b15613783576040517f08c379a000000000000000000000000000000000000000000000000000000000815260040161377a90615581565b60405180910390fd5b613791600083836001613333565b61379a81613192565b156137da576040517f08c379a00000000000000000000000000000000000000000000000000000000081526004016137d190615581565b60405180910390fd5b6001600360008473ffffffffffffffffffffffffffffffffffffffff1673ffffffffffffffffffffffffffffffffffffffff16815260200190815260200160002060008282540192505081905550816002600083815260200190815260200160002060006101000a81548173ffffffffffffffffffffffffffffffffffffffff021916908373ffffffffffffffffffffffffffffffffffffffff160217905550808273ffffffffffffffffffffffffffffffffffffffff16600073ffffffffffffffffffffffffffffffffffffffff167fddf252ad1be2c89b69c2b068fc378daa952ba7f163c4a11628f55a4df523b3ef60405160405180910390a46138e4600083836001613339565b5050565b6000604051905090565b600080fd5b600080fd5b60007fffffffff0000000000000000000000000000000000000000000000000000000082169050919050565b613931816138fc565b811461393c57600080fd5b50565b60008135905061394e81613928565b92915050565b60006020828403121561396a576139696138f2565b5b60006139788482850161393f565b91505092915050565b60008115159050919050565b61399681613981565b82525050565b60006020820190506139b1600083018461398d565b92915050565b600081519050919050565b600082825260208201905092915050565b60005b838110156139f15780820151818401526020810190506139d6565b60008484015250505050565b6000601f19601f8301169050919050565b6000613a19826139b7565b613a2381856139c2565b9350613a338185602086016139d3565b613a3c816139fd565b840191505092915050565b60006020820190508181036000830152613a618184613a0e565b905092915050565b6000819050919050565b613a7c81613a69565b8114613a8757600080fd5b50565b600081359050613a9981613a73565b92915050565b600060208284031215613ab557613ab46138f2565b5b6000613ac384828501613a8a565b91505092915050565b600073ffffffffffffffffffffffffffffffffffffffff82169050919050565b6000613af782613acc565b9050919050565b613b0781613aec565b82525050565b6000602082019050613b226000830184613afe565b92915050565b613b3181613aec565b8114613b3c57600080fd5b50565b600081359050613b4e81613b28565b92915050565b60008060408385031215613b6b57613b6a6138f2565b5b6000613b7985828601613b3f565b9250506020613b8a85828601613a8a565b9150509250929050565b600060208284031215613baa57613ba96138f2565b5b6000613bb884828501613b3f565b91505092915050565b6000819050919050565b613bd481613bc1565b82525050565b600063ffffffff82169050919050565b613bf381613bda565b82525050565b6000604082019050613c0e6000830185613bcb565b613c1b6020830184613bea565b9392505050565b613c2b81613a69565b82525050565b600060ff82169050919050565b613c4781613c31565b82525050565b600060a082019050613c626000830188613c22565b613c6f6020830187613c22565b613c7c6040830186613c22565b613c89606083018561398d565b613c966080830184613c3e565b9695505050505050565b613ca981613bc1565b8114613cb457600080fd5b50565b600081359050613cc681613ca0565b92915050565b600060208284031215613ce257613ce16138f2565b5b6000613cf084828501613cb7565b91505092915050565b600080600060608486031215613d1257613d116138f2565b5b6000613d2086828701613b3f565b9350506020613d3186828701613b3f565b9250506040613d4286828701613a8a565b9150509250925092565b6000602082019050613d616000830184613c22565b92915050565b613d7081613c31565b8114613d7b57600080fd5b50565b600081359050613d8d81613d67565b92915050565b600060208284031215613da957613da86138f2565b5b6000613db784828501613d7e565b91505092915050565b6000604082019050613dd56000830185613c22565b613de26020830184613c22565b9392505050565b600080fd5b600080fd5b7f4e487b7100000000000000000000000000000000000000000000000000000000600052604160045260246000fd5b613e2b826139fd565b810181811067ffffffffffffffff82111715613e4a57613e49613df3565b5b80604052505050565b6000613e5d6138e8565b9050613e698282613e22565b919050565b600067ffffffffffffffff821115613e8957613e88613df3565b5b613e92826139fd565b9050602081019050919050565b82818337600083830152505050565b6000613ec1613ebc84613e6e565b613e53565b905082815260208101848484011115613edd57613edc613dee565b5b613ee8848285613e9f565b509392505050565b600082601f830112613f0557613f04613de9565b5b8135613f15848260208601613eae565b91505092915050565b600060208284031215613f3457613f336138f2565b5b600082013567ffffffffffffffff811115613f5257613f516138f7565b5b613f5e84828501613ef0565b91505092915050565b600067ffffffffffffffff821115613f8257613f81613df3565b5b602082029050602081019050919050565b600080fd5b6000613fab613fa684613f67565b613e53565b90508083825260208201905060208402830185811115613fce57613fcd613f93565b5b835b8181101561401557803567ffffffffffffffff811115613ff357613ff2613de9565b5b8086016140008982613ef0565b85526020850194505050602081019050613fd0565b5050509392505050565b600082601f83011261403457614033613de9565b5b8135614044848260208601613f98565b91505092915050565b600060208284031215614063576140626138f2565b5b600082013567ffffffffffffffff811115614081576140806138f7565b5b61408d8482850161401f565b91505092915050565b600080604083850312156140ad576140ac6138f2565b5b600083013567ffffffffffffffff8111156140cb576140ca6138f7565b5b6140d78582860161401f565b92505060206140e885828601613cb7565b9150509250929050565b6140fb81613981565b811461410657600080fd5b50565b600081359050614118816140f2565b92915050565b60008060408385031215614135576141346138f2565b5b600061414385828601613b3f565b925050602061415485828601614109565b9150509250929050565b600067ffffffffffffffff82111561417957614178613df3565b5b614182826139fd565b9050602081019050919050565b60006141a261419d8461415e565b613e53565b9050828152602081018484840111156141be576141bd613dee565b5b6141c9848285613e9f565b509392505050565b600082601f8301126141e6576141e5613de9565b5b81356141f684826020860161418f565b91505092915050565b60008060008060808587031215614219576142186138f2565b5b600061422787828801613b3f565b945050602061423887828801613b3f565b935050604061424987828801613a8a565b925050606085013567ffffffffffffffff81111561426a576142696138f7565b5b614276878288016141d1565b91505092959194509250565b60008060408385031215614299576142986138f2565b5b600083013567ffffffffffffffff8111156142b7576142b66138f7565b5b6142c385828601613ef0565b92505060206142d485828601613cb7565b9150509250929050565b600080604083850312156142f5576142f46138f2565b5b600061430385828601613b3f565b925050602061431485828601613b3f565b9150509250929050565b7f4e487b7100000000000000000000000000000000000000000000000000000000600052602260045260246000fd5b6000600282049050600182168061436557607f821691505b6020821081036143785761437761431e565b5b50919050565b7f4552433732313a20617070726f76616c20746f2063757272656e74206f776e6560008201527f7200000000000000000000000000000000000000000000000000000000000000602082015250565b60006143da6021836139c2565b91506143e58261437e565b604082019050919050565b60006020820190508181036000830152614409816143cd565b9050919050565b7f4552433732313a20617070726f76652063616c6c6572206973206e6f7420746f60008201527f6b656e206f776e6572206f7220617070726f76656420666f7220616c6c000000602082015250565b600061446c603d836139c2565b915061447782614410565b604082019050919050565b6000602082019050818103600083015261449b8161445f565b9050919050565b7f4e487b7100000000000000000000000000000000000000000000000000000000600052601160045260246000fd5b60006144dc82613a69565b91506144e783613a69565b92508282026144f581613a69565b9150828204841483151761450c5761450b6144a2565b5b5092915050565b7f4552433732313a2063616c6c6572206973206e6f7420746f6b656e206f776e6560008201527f72206f7220617070726f76656400000000000000000000000000000000000000602082015250565b600061456f602d836139c2565b915061457a82614513565b604082019050919050565b6000602082019050818103600083015261459e81614562565b9050919050565b600081905092915050565b50565b60006145c06000836145a5565b91506145cb826145b0565b600082019050919050565b60006145e1826145b3565b9150819050919050565b7f446576207769746864726177616c206661696c65640000000000000000000000600082015250565b60006146216015836139c2565b915061462c826145eb565b602082019050919050565b6000602082019050818103600083015261465081614614565b9050919050565b600061466282613a69565b915061466d83613a69565b9250828201905080821115614685576146846144a2565b5b92915050565b600061ffff82169050919050565b60006146a48261468b565b91506146af8361468b565b9250828201905061ffff8111156146c9576146c86144a2565b5b92915050565b60008190508160005260206000209050919050565b60006020601f8301049050919050565b600082821b905092915050565b6000600883026147317fffffffffffffffffffffffffffffffffffffffffffffffffffffffffffffffff826146f4565b61473b86836146f4565b95508019841693508086168417925050509392505050565b6000819050919050565b600061477861477361476e84613a69565b614753565b613a69565b9050919050565b6000819050919050565b6147928361475d565b6147a661479e8261477f565b848454614701565b825550505050565b600090565b6147bb6147ae565b6147c6818484614789565b505050565b5b818110156147ea576147df6000826147b3565b6001810190506147cc565b5050565b601f82111561482f57614800816146cf565b614809846146e4565b81016020851015614818578190505b61482c614824856146e4565b8301826147cb565b50505b505050565b600082821c905092915050565b600061485260001984600802614834565b1980831691505092915050565b600061486b8383614841565b9150826002028217905092915050565b614884826139b7565b67ffffffffffffffff81111561489d5761489c613df3565b5b6148a7825461434d565b6148b28282856147ee565b600060209050601f8311600181146148e557600084156148d3578287015190505b6148dd858261485f565b865550614945565b601f1984166148f3866146cf565b60005b8281101561491b578489015182556001820191506020850194506020810190506148f6565b868310156149385784890151614934601f891682614841565b8355505b6001600288020188555050505b505050505050565b7f4552433732313a20696e76616c696420746f6b656e2049440000000000000000600082015250565b60006149836018836139c2565b915061498e8261494d565b602082019050919050565b600060208201905081810360008301526149b281614976565b9050919050565b7f4c696c6e61644e46543a20496e73756666696369656e7420636f6e747261637460008201527f2062616c616e6365000000000000000000000000000000000000000000000000602082015250565b6000614a156028836139c2565b9150614a20826149b9565b604082019050919050565b60006020820190508181036000830152614a4481614a08565b9050919050565b7f4c696c6e61644e46543a204d4f4e207769746864726177616c206661696c6564600082015250565b6000614a816020836139c2565b9150614a8c82614a4b565b602082019050919050565b60006020820190508181036000830152614ab081614a74565b9050919050565b7f4552433732313a2061646472657373207a65726f206973206e6f74206120766160008201527f6c6964206f776e65720000000000000000000000000000000000000000000000602082015250565b6000614b136029836139c2565b9150614b1e82614ab7565b604082019050919050565b60006020820190508181036000830152614b4281614b06565b9050919050565b7f4552433732314d657461646174613a2055524920717565727920666f72206e6f60008201527f6e6578697374656e7420746f6b656e0000000000000000000000000000000000602082015250565b6000614ba5602f836139c2565b9150614bb082614b49565b604082019050919050565b60006020820190508181036000830152614bd481614b98565b9050919050565b600081905092915050565b60008154614bf38161434d565b614bfd8186614bdb565b94506001821660008114614c185760018114614c2d57614c60565b60ff1983168652811515820286019350614c60565b614c36856146cf565b60005b83811015614c5857815481890152600182019150602081019050614c39565b838801955050505b50505092915050565b6000614c74826139b7565b614c7e8185614bdb565b9350614c8e8185602086016139d3565b80840191505092915050565b6000614ca68285614be6565b9150614cb28284614c69565b91508190509392505050565b6000819050919050565b614cd9614cd482613bc1565b614cbe565b82525050565b6000614ceb8285614c69565b9150614cf78284614cc8565b6020820191508190509392505050565b60008160601b9050919050565b6000614d1f82614d07565b9050919050565b6000614d3182614d14565b9050919050565b614d49614d4482613aec565b614d26565b82525050565b6000614d5b8286614cc8565b602082019150614d6b8285614cc8565b602082019150614d7b8284614d38565b601482019150819050949350505050565b7f4e487b7100000000000000000000000000000000000000000000000000000000600052601260045260246000fd5b6000614dc682613a69565b9150614dd183613a69565b925082614de157614de0614d8c565b5b828206905092915050565b7f4e6f7420746f6b656e206f776e65720000000000000000000000000000000000600082015250565b6000614e22600f836139c2565b9150614e2d82614dec565b602082019050919050565b60006020820190508181036000830152614e5181614e15565b9050919050565b7f546f6b656e206973206465616400000000000000000000000000000000000000600082015250565b6000614e8e600d836139c2565b9150614e9982614e58565b602082019050919050565b60006020820190508181036000830152614ebd81614e81565b9050919050565b6000614ecf82613a69565b9150614eda83613a69565b9250828203905081811115614ef257614ef16144a2565b5b92915050565b6000614f0382613a69565b9150614f0e83613a69565b925082614f1e57614f1d614d8c565b5b828204905092915050565b7f4f776e61626c653a206e6577206f776e657220697320746865207a65726f206160008201527f6464726573730000000000000000000000000000000000000000000000000000602082015250565b6000614f856026836139c2565b9150614f9082614f29565b604082019050919050565b60006020820190508181036000830152614fb481614f78565b9050919050565b6000602082019050614fd06000830184613bcb565b92915050565b7f4f776e61626c653a2063616c6c6572206973206e6f7420746865206f776e6572600082015250565b600061500c6020836139c2565b915061501782614fd6565b602082019050919050565b6000602082019050818103600083015261503b81614fff565b9050919050565b7f4552433732313a207472616e736665722066726f6d20696e636f72726563742060008201527f6f776e6572000000000000000000000000000000000000000000000000000000602082015250565b600061509e6025836139c2565b91506150a982615042565b604082019050919050565b600060208201905081810360008301526150cd81615091565b9050919050565b7f4552433732313a207472616e7366657220746f20746865207a65726f2061646460008201527f7265737300000000000000000000000000000000000000000000000000000000602082015250565b60006151306024836139c2565b915061513b826150d4565b604082019050919050565b6000602082019050818103600083015261515f81615123565b9050919050565b7f5265656e7472616e637947756172643a207265656e7472616e742063616c6c00600082015250565b600061519c601f836139c2565b91506151a782615166565b602082019050919050565b600060208201905081810360008301526151cb8161518f565b9050919050565b60006040820190506151e76000830185613c3e565b81810360208301526151f98184613a0e565b90509392505050565b7f4e487b7100000000000000000000000000000000000000000000000000000000600052603260045260246000fd5b600061523c82613a69565b91507fffffffffffffffffffffffffffffffffffffffffffffffffffffffffffffffff820361526e5761526d6144a2565b5b600182019050919050565b6000819050919050565b61529461528f82613a69565b615279565b82525050565b60006152a68287614cc8565b6020820191506152b68286614cc8565b6020820191506152c68285614d38565b6014820191506152d68284615283565b60208201915081905095945050505050565b7f4552433732313a20617070726f766520746f2063616c6c657200000000000000600082015250565b600061531e6019836139c2565b9150615329826152e8565b602082019050919050565b6000602082019050818103600083015261534d81615311565b9050919050565b7f4552433732313a207472616e7366657220746f206e6f6e20455243373231526560008201527f63656976657220696d706c656d656e7465720000000000000000000000000000602082015250565b60006153b06032836139c2565b91506153bb82615354565b604082019050919050565b600060208201905081810360008301526153df816153a3565b9050919050565b600081519050919050565b600082825260208201905092915050565b600061540d826153e6565b61541781856153f1565b93506154278185602086016139d3565b615430816139fd565b840191505092915050565b60006080820190506154506000830187613afe565b61545d6020830186613afe565b61546a6040830185613c22565b818103606083015261547c8184615402565b905095945050505050565b60008151905061549681613928565b92915050565b6000602082840312156154b2576154b16138f2565b5b60006154c084828501615487565b91505092915050565b7f4552433732313a206d696e7420746f20746865207a65726f2061646472657373600082015250565b60006154ff6020836139c2565b915061550a826154c9565b602082019050919050565b6000602082019050818103600083015261552e816154f2565b9050919050565b7f4552433732313a20746f6b656e20616c7265616479206d696e74656400000000600082015250565b600061556b601c836139c2565b915061557682615535565b602082019050919050565b6000602082019050818103600083015261559a8161555e565b905091905056fea2646970667358221220a04e96a5ba9ebc3983a649e21aec2b79734096f4f3e17d7c44a3cc67d9a2810e64736f6c6343000811003368747470733a2f2f6170692e796f7572646170702e636f6d2f7362742f6d657461646174612f",
  "linkReferences": {},
  "deployedLinkReferences": {}
}