{
  "_format": "hh-sol-artifact-1",
  "contractName": "LilnadNFT",
  "sourceName": "contracts/LilnadNFT.sol",
  "abi": [
    {
      "inputs": [
        {
          "internalType": "address",
          "name": "_initialDevWallet",
          "type": "address"
        }
      ],
      "stateMutability": "nonpayable",
      "type": "constructor"
    },
    {
      "inputs": [],
      "name": "AlreadyCommitted",
      "type": "error"
    },
    {
      "inputs": [],
      "name": "BlockhashUnavailable",
      "type": "error"
    },
    {
      "inputs": [],
      "name": "BulkMintFee",
      "type": "error"
    },
    {
      "inputs": [],
      "name": "CommitExpiredTryNormalReveal",
      "type": "error"
    },
    {
      "inputs": [],
      "name": "CommitNotExpiredTryExpiredReveal",
      "type": "error"
    },
    {
      "inputs": [],
      "name": "InvalidCommitReveal",
      "type": "error"
    },
    {
      "inputs": [],
      "name": "MintFeeRequired",
      "type": "error"
    },
    {
      "inputs": [],
      "name": "NoPendingCommit",
      "type": "error"
    },
    {
      "inputs": [],
      "name": "RevealTooEarly",
      "type": "error"
    },
    {
      "inputs": [],
      "name": "RevealTooLate",
      "type": "error"
    },
    {
      "inputs": [],
      "name": "URIsLengthMismatch",
      "type": "error"
    },
    {
      "anonymous": false,
      "inputs": [
        {
          "indexed": true,
          "internalType": "address",
          "name": "owner",
          "type": "address"
        },
        {
          "indexed": true,
          "internalType": "address",
          "name": "approved",
          "type": "address"
        },
        {
          "indexed": true,
          "internalType": "uint256",
          "name": "tokenId",
          "type": "uint256"
        }
      ],
      "name": "Approval",
      "type": "event"
    },
    {
      "anonymous": false,
      "inputs": [
        {
          "indexed": true,
          "internalType": "address",
          "name": "owner",
          "type": "address"
        },
        {
          "indexed": true,
          "internalType": "address",
          "name": "operator",
          "type": "address"
        },
        {
          "indexed": false,
          "internalType": "bool",
          "name": "approved",
          "type": "bool"
        }
      ],
      "name": "ApprovalForAll",
      "type": "event"
    },
    {
      "anonymous": false,
      "inputs": [
        {
          "indexed": true,
          "internalType": "address",
          "name": "user",
          "type": "address"
        },
        {
          "indexed": true,
          "internalType": "uint256",
          "name": "tokenId",
          "type": "uint256"
        },
        {
          "indexed": false,
          "internalType": "uint256",
          "name": "amount",
          "type": "uint256"
        }
      ],
      "name": "Collected",
      "type": "event"
    },
    {
      "anonymous": false,
      "inputs": [
        {
          "indexed": true,
          "internalType": "address",
          "name": "user",
          "type": "address"
        },
        {
          "indexed": false,
          "internalType": "bytes32",
          "name": "commitment",
          "type": "bytes32"
        }
      ],
      "name": "Commit",
      "type": "event"
    },
    {
      "anonymous": false,
      "inputs": [
        {
          "indexed": true,
          "internalType": "address",
          "name": "to",
          "type": "address"
        },
        {
          "indexed": false,
          "internalType": "uint256",
          "name": "amount",
          "type": "uint256"
        }
      ],
      "name": "DevFeeTransferred",
      "type": "event"
    },
    {
      "anonymous": false,
      "inputs": [
        {
          "indexed": true,
          "internalType": "uint256",
          "name": "tokenId",
          "type": "uint256"
        }
      ],
      "name": "Died",
      "type": "event"
    },
    {
      "anonymous": false,
      "inputs": [
        {
          "indexed": true,
          "internalType": "address",
          "name": "previousOwner",
          "type": "address"
        },
        {
          "indexed": true,
          "internalType": "address",
          "name": "newOwner",
          "type": "address"
        }
      ],
      "name": "OwnershipTransferred",
      "type": "event"
    },
    {
      "anonymous": false,
      "inputs": [
        {
          "indexed": true,
          "internalType": "address",
          "name": "user",
          "type": "address"
        },
        {
          "indexed": true,
          "internalType": "uint256",
          "name": "tokenId",
          "type": "uint256"
        },
        {
          "indexed": false,
          "internalType": "uint8",
          "name": "rank",
          "type": "uint8"
        },
        {
          "indexed": false,
          "internalType": "string",
          "name": "uri",
          "type": "string"
        }
      ],
      "name": "RevealAndMint",
      "type": "event"
    },
    {
      "anonymous": false,
      "inputs": [
        {
          "indexed": true,
          "internalType": "address",
          "name": "from",
          "type": "address"
        },
        {
          "indexed": true,
          "internalType": "address",
          "name": "to",
          "type": "address"
        },
        {
          "indexed": true,
          "internalType": "uint256",
          "name": "tokenId",
          "type": "uint256"
        }
      ],
      "name": "Transfer",
      "type": "event"
    },
    {
      "stateMutability": "payable",
      "type": "fallback"
    },
    {
      "inputs": [],
      "name": "ACCRUAL_WINDOW",
      "outputs": [
        {
          "internalType": "uint256",
          "name": "",
          "type": "uint256"
        }
      ],
      "stateMutability": "view",
      "type": "function"
    },
    {
      "inputs": [],
      "name": "MINT_FEE",
      "outputs": [
        {
          "internalType": "uint256",
          "name": "",
          "type": "uint256"
        }
      ],
      "stateMutability": "view",
      "type": "function"
    },
    {
      "inputs": [],
      "name": "REVEAL_BLOCK_LIMIT",
      "outputs": [
        {
          "internalType": "uint256",
          "name": "",
          "type": "uint256"
        }
      ],
      "stateMutability": "view",
      "type": "function"
    },
    {
      "inputs": [
        {
          "internalType": "address",
          "name": "to",
          "type": "address"
        },
        {
          "internalType": "uint256",
          "name": "tokenId",
          "type": "uint256"
        }
      ],
      "name": "approve",
      "outputs": [],
      "stateMutability": "nonpayable",
      "type": "function"
    },
    {
      "inputs": [
        {
          "internalType": "address",
          "name": "owner",
          "type": "address"
        }
      ],
      "name": "balanceOf",
      "outputs": [
        {
          "internalType": "uint256",
          "name": "",
          "type": "uint256"
        }
      ],
      "stateMutability": "view",
      "type": "function"
    },
    {
      "inputs": [
        {
          "internalType": "uint256",
          "name": "tokenId",
          "type": "uint256"
        }
      ],
      "name": "collect",
      "outputs": [],
      "stateMutability": "nonpayable",
      "type": "function"
    },
    {
      "inputs": [
        {
          "internalType": "address",
          "name": "",
          "type": "address"
        }
      ],
      "name": "commitData",
      "outputs": [
        {
          "internalType": "bytes32",
          "name": "commitment",
          "type": "bytes32"
        },
        {
          "internalType": "uint32",
          "name": "blockNumber",
          "type": "uint32"
        }
      ],
      "stateMutability": "view",
      "type": "function"
    },
    {
      "inputs": [
        {
          "internalType": "bytes32",
          "name": "commitment",
          "type": "bytes32"
        }
      ],
      "name": "commitMint",
      "outputs": [],
      "stateMutability": "payable",
      "type": "function"
    },
    {
      "inputs": [
        {
          "internalType": "bytes32",
          "name": "commitment",
          "type": "bytes32"
        }
      ],
      "name": "commitMintPack10",
      "outputs": [],
      "stateMutability": "payable",
      "type": "function"
    },
    {
      "inputs": [
        {
          "internalType": "bytes32",
          "name": "commitment",
          "type": "bytes32"
        }
      ],
      "name": "commitMintPack100",
      "outputs": [],
      "stateMutability": "payable",
      "type": "function"
    },
    {
      "inputs": [
        {
          "internalType": "bytes32",
          "name": "commitment",
          "type": "bytes32"
        }
      ],
      "name": "commitMintPack25",
      "outputs": [],
      "stateMutability": "payable",
      "type": "function"
    },
    {
      "inputs": [
        {
          "internalType": "bytes32",
          "name": "commitment",
          "type": "bytes32"
        }
      ],
      "name": "commitMintPack50",
      "outputs": [],
      "stateMutability": "payable",
      "type": "function"
    },
    {
      "inputs": [],
      "name": "devPool",
      "outputs": [
        {
          "internalType": "uint256",
          "name": "",
          "type": "uint256"
        }
      ],
      "stateMutability": "view",
      "type": "function"
    },
    {
      "inputs": [],
      "name": "devWallet",
      "outputs": [
        {
          "internalType": "address",
          "name": "",
          "type": "address"
        }
      ],
      "stateMutability": "view",
      "type": "function"
    },
    {
      "inputs": [
        {
          "internalType": "uint256",
          "name": "tokenId",
          "type": "uint256"
        }
      ],
      "name": "getApproved",
      "outputs": [
        {
          "internalType": "address",
          "name": "",
          "type": "address"
        }
      ],
      "stateMutability": "view",
      "type": "function"
    },
    {
      "inputs": [
        {
          "internalType": "address",
          "name": "owner",
          "type": "address"
        },
        {
          "internalType": "address",
          "name": "operator",
          "type": "address"
        }
      ],
      "name": "isApprovedForAll",
      "outputs": [
        {
          "internalType": "bool",
          "name": "",
          "type": "bool"
        }
      ],
      "stateMutability": "view",
      "type": "function"
    },
    {
      "inputs": [],
      "name": "name",
      "outputs": [
        {
          "internalType": "string",
          "name": "",
          "type": "string"
        }
      ],
      "stateMutability": "view",
      "type": "function"
    },
    {
      "inputs": [],
      "name": "owner",
      "outputs": [
        {
          "internalType": "address",
          "name": "",
          "type": "address"
        }
      ],
      "stateMutability": "view",
      "type": "function"
    },
    {
      "inputs": [
        {
          "internalType": "uint256",
          "name": "tokenId",
          "type": "uint256"
        }
      ],
      "name": "ownerOf",
      "outputs": [
        {
          "internalType": "address",
          "name": "",
          "type": "address"
        }
      ],
      "stateMutability": "view",
      "type": "function"
    },
    {
      "inputs": [
        {
          "internalType": "uint8",
          "name": "",
          "type": "uint8"
        }
      ],
      "name": "rankData",
      "outputs": [
        {
          "internalType": "uint256",
          "name": "S",
          "type": "uint256"
        },
        {
          "internalType": "uint256",
          "name": "T",
          "type": "uint256"
        }
      ],
      "stateMutability": "view",
      "type": "function"
    },
    {
      "inputs": [],
      "name": "renounceOwnership",
      "outputs": [],
      "stateMutability": "nonpayable",
      "type": "function"
    },
    {
      "inputs": [
        {
          "internalType": "string",
          "name": "uri",
          "type": "string"
        }
      ],
      "name": "revealExpiredCommit",
      "outputs": [],
      "stateMutability": "nonpayable",
      "type": "function"
    },
    {
      "inputs": [
        {
          "internalType": "string[]",
          "name": "uris",
          "type": "string[]"
        }
      ],
      "name": "revealExpiredCommitPack10",
      "outputs": [],
      "stateMutability": "nonpayable",
      "type": "function"
    },
    {
      "inputs": [
        {
          "internalType": "string[]",
          "name": "uris",
          "type": "string[]"
        }
      ],
      "name": "revealExpiredCommitPack100",
      "outputs": [],
      "stateMutability": "nonpayable",
      "type": "function"
    },
    {
      "inputs": [
        {
          "internalType": "string[]",
          "name": "uris",
          "type": "string[]"
        }
      ],
      "name": "revealExpiredCommitPack25",
      "outputs": [],
      "stateMutability": "nonpayable",
      "type": "function"
    },
    {
      "inputs": [
        {
          "internalType": "string[]",
          "name": "uris",
          "type": "string[]"
        }
      ],
      "name": "revealExpiredCommitPack50",
      "outputs": [],
      "stateMutability": "nonpayable",
      "type": "function"
    },
    {
      "inputs": [
        {
          "internalType": "string",
          "name": "uri",
          "type": "string"
        },
        {
          "internalType": "bytes32",
          "name": "salt",
          "type": "bytes32"
        }
      ],
      "name": "revealMint",
      "outputs": [],
      "stateMutability": "nonpayable",
      "type": "function"
    },
    {
      "inputs": [
        {
          "internalType": "string[]",
          "name": "uris",
          "type": "string[]"
        },
        {
          "internalType": "bytes32",
          "name": "salt",
          "type": "bytes32"
        }
      ],
      "name": "revealMintPack10",
      "outputs": [],
      "stateMutability": "nonpayable",
      "type": "function"
    },
    {
      "inputs": [
        {
          "internalType": "string[]",
          "name": "uris",
          "type": "string[]"
        },
        {
          "internalType": "bytes32",
          "name": "salt",
          "type": "bytes32"
        }
      ],
      "name": "revealMintPack100",
      "outputs": [],
      "stateMutability": "nonpayable",
      "type": "function"
    },
    {
      "inputs": [
        {
          "internalType": "string[]",
          "name": "uris",
          "type": "string[]"
        },
        {
          "internalType": "bytes32",
          "name": "salt",
          "type": "bytes32"
        }
      ],
      "name": "revealMintPack25",
      "outputs": [],
      "stateMutability": "nonpayable",
      "type": "function"
    },
    {
      "inputs": [
        {
          "internalType": "string[]",
          "name": "uris",
          "type": "string[]"
        },
        {
          "internalType": "bytes32",
          "name": "salt",
          "type": "bytes32"
        }
      ],
      "name": "revealMintPack50",
      "outputs": [],
      "stateMutability": "nonpayable",
      "type": "function"
    },
    {
      "inputs": [
        {
          "internalType": "address",
          "name": "from",
          "type": "address"
        },
        {
          "internalType": "address",
          "name": "to",
          "type": "address"
        },
        {
          "internalType": "uint256",
          "name": "tokenId",
          "type": "uint256"
        }
      ],
      "name": "safeTransferFrom",
      "outputs": [],
      "stateMutability": "nonpayable",
      "type": "function"
    },
    {
      "inputs": [
        {
          "internalType": "address",
          "name": "from",
          "type": "address"
        },
        {
          "internalType": "address",
          "name": "to",
          "type": "address"
        },
        {
          "internalType": "uint256",
          "name": "tokenId",
          "type": "uint256"
        },
        {
          "internalType": "bytes",
          "name": "data",
          "type": "bytes"
        }
      ],
      "name": "safeTransferFrom",
      "outputs": [],
      "stateMutability": "nonpayable",
      "type": "function"
    },
    {
      "inputs": [
        {
          "internalType": "uint256",
          "name": "",
          "type": "uint256"
        }
      ],
      "name": "sbtInfo",
      "outputs": [
        {
          "internalType": "uint256",
          "name": "startTimestamp",
          "type": "uint256"
        },
        {
          "internalType": "uint256",
          "name": "lastCollect",
          "type": "uint256"
        },
        {
          "internalType": "uint256",
          "name": "collected",
          "type": "uint256"
        },
        {
          "internalType": "bool",
          "name": "isDead",
          "type": "bool"
        },
        {
          "internalType": "uint8",
          "name": "rank",
          "type": "uint8"
        }
      ],
      "stateMutability": "view",
      "type": "function"
    },
    {
      "inputs": [
        {
          "internalType": "address",
          "name": "operator",
          "type": "address"
        },
        {
          "internalType": "bool",
          "name": "approved",
          "type": "bool"
        }
      ],
      "name": "setApprovalForAll",
      "outputs": [],
      "stateMutability": "nonpayable",
      "type": "function"
    },
    {
      "inputs": [
        {
          "internalType": "string",
          "name": "baseURI",
          "type": "string"
        }
      ],
      "name": "setBaseURI",
      "outputs": [],
      "stateMutability": "nonpayable",
      "type": "function"
    },
    {
      "inputs": [
        {
          "internalType": "address",
          "name": "_newDevWallet",
          "type": "address"
        }
      ],
      "name": "setDevWallet",
      "outputs": [],
      "stateMutability": "nonpayable",
      "type": "function"
    },
    {
      "inputs": [
        {
          "internalType": "bytes4",
          "name": "interfaceId",
          "type": "bytes4"
        }
      ],
      "name": "supportsInterface",
      "outputs": [
        {
          "internalType": "bool",
          "name": "",
          "type": "bool"
        }
      ],
      "stateMutability": "view",
      "type": "function"
    },
    {
      "inputs": [],
      "name": "symbol",
      "outputs": [
        {
          "internalType": "string",
          "name": "",
          "type": "string"
        }
      ],
      "stateMutability": "view",
      "type": "function"
    },
    {
      "inputs": [
        {
          "internalType": "uint256",
          "name": "tokenId",
          "type": "uint256"
        }
      ],
      "name": "tokenURI",
      "outputs": [
        {
          "internalType": "string",
          "name": "",
          "type": "string"
        }
      ],
      "stateMutability": "view",
      "type": "function"
    },
    {
      "inputs": [
        {
          "internalType": "address",
          "name": "from",
          "type": "address"
        },
        {
          "internalType": "address",
          "name": "to",
          "type": "address"
        },
        {
          "internalType": "uint256",
          "name": "tokenId",
          "type": "uint256"
        }
      ],
      "name": "transferFrom",
      "outputs": [],
      "stateMutability": "nonpayable",
      "type": "function"
    },
    {
      "inputs": [
        {
          "internalType": "address",
          "name": "newOwner",
          "type": "address"
        }
      ],
      "name": "transferOwnership",
      "outputs": [],
      "stateMutability": "nonpayable",
      "type": "function"
    },
    {
      "inputs": [],
      "name": "withdrawDevPool",
      "outputs": [],
      "stateMutability": "nonpayable",
      "type": "function"
    },
    {
      "inputs": [
        {
          "internalType": "uint256",
          "name": "amount",
          "type": "uint256"
        }
      ],
      "name": "withdrawMon",
      "outputs": [],
      "stateMutability": "nonpayable",
      "type": "function"
    },
    {
      "stateMutability": "payable",
      "type": "receive"
    }
  ],
  "bytecode": "0x608060405260405180606001604052806026815260200162005dcb60269139600e90816200002e91906200065b565b503480156200003c57600080fd5b5060405162005df138038062005df18339818101604052810190620000629190620007ac565b6040518060400160405280600681526020017f4c696c6e616400000000000000000000000000000000000000000000000000008152506040518060400160405280600381526020017f4c4e4400000000000000000000000000000000000000000000000000000000008152508160009081620000df91906200065b565b508060019081620000f191906200065b565b50505062000114620001086200031360201b60201c565b6200031b60201b60201c565b600160078190555080600c60006101000a81548173ffffffffffffffffffffffffffffffffffffffff021916908373ffffffffffffffffffffffffffffffffffffffff1602179055506040518060400160405280610c8081526020016203f480815250600960008060ff16815260200190815260200160002060008201518160000155602082015181600101559050506040518060400160405280610960815260200162093a8081525060096000600160ff168152602001908152602001600020600082015181600001556020820151816001015590505060405180604001604052806105dc81526020016212750081525060096000600260ff168152602001908152602001600020600082015181600001556020820151816001015590505060405180604001604052806104b081526020016212750081525060096000600360ff168152602001908152602001600020600082015181600001556020820151816001015590505060405180604001604052806103e881526020016224ea0081525060096000600460ff1681526020019081526020016000206000820151816000015560208201518160010155905050604051806040016040528061032081526020016224ea0081525060096000600560ff168152602001908152602001600020600082015181600001556020820151816001015590505050620007de565b600033905090565b6000600660009054906101000a900473ffffffffffffffffffffffffffffffffffffffff16905081600660006101000a81548173ffffffffffffffffffffffffffffffffffffffff021916908373ffffffffffffffffffffffffffffffffffffffff1602179055508173ffffffffffffffffffffffffffffffffffffffff168173ffffffffffffffffffffffffffffffffffffffff167f8be0079c531659141344cd1fd0a4f28419497f9722a3daafe3b4186f6b6457e060405160405180910390a35050565b600081519050919050565b7f4e487b7100000000000000000000000000000000000000000000000000000000600052604160045260246000fd5b7f4e487b7100000000000000000000000000000000000000000000000000000000600052602260045260246000fd5b600060028204905060018216806200046357607f821691505b6020821081036200047957620004786200041b565b5b50919050565b60008190508160005260206000209050919050565b60006020601f8301049050919050565b600082821b905092915050565b600060088302620004e37fffffffffffffffffffffffffffffffffffffffffffffffffffffffffffffffff82620004a4565b620004ef8683620004a4565b95508019841693508086168417925050509392505050565b6000819050919050565b6000819050919050565b60006200053c62000536620005308462000507565b62000511565b62000507565b9050919050565b6000819050919050565b62000558836200051b565b62000570620005678262000543565b848454620004b1565b825550505050565b600090565b6200058762000578565b620005948184846200054d565b505050565b5b81811015620005bc57620005b06000826200057d565b6001810190506200059a565b5050565b601f8211156200060b57620005d5816200047f565b620005e08462000494565b81016020851015620005f0578190505b62000608620005ff8562000494565b83018262000599565b50505b505050565b600082821c905092915050565b6000620006306000198460080262000610565b1980831691505092915050565b60006200064b83836200061d565b9150826002028217905092915050565b6200066682620003e1565b67ffffffffffffffff811115620006825762000681620003ec565b5b6200068e82546200044a565b6200069b828285620005c0565b600060209050601f831160018114620006d35760008415620006be578287015190505b620006ca85826200063d565b8655506200073a565b601f198416620006e3866200047f565b60005b828110156200070d57848901518255600182019150602085019450602081019050620006e6565b868310156200072d578489015162000729601f8916826200061d565b8355505b6001600288020188555050505b505050505050565b600080fd5b600073ffffffffffffffffffffffffffffffffffffffff82169050919050565b6000620007748262000747565b9050919050565b620007868162000767565b81146200079257600080fd5b50565b600081519050620007a6816200077b565b92915050565b600060208284031215620007c557620007c462000742565b5b6000620007d58482850162000795565b91505092915050565b6155dd80620007ee6000396000f3fe60806040526004361061026b5760003560e01c8063715018a611610144578063b88d4fde116100b6578063d7bf81a31161007a578063d7bf81a3146108f3578063d90dce881461091e578063db0d20e41461093a578063db59e4c914610963578063e985e9c51461097f578063f2fde38b146109bc57610272565b8063b88d4fde1461081f578063bd2f1b5c14610848578063c87b56dd14610864578063cdcbe287146108a1578063ce3f865f146108ca57610272565b806391c690dd1161010857806391c690dd1461072557806395d89b411461074e578063a180521a14610779578063a22cb465146107a2578063a436e542146107cb578063b5838a27146107f457610272565b8063715018a614610666578063738c712f1461067d57806378584532146106a65780638da5cb5b146106cf5780638ea5220f146106fa57610272565b8063355771ff116101dd57806355f804b3116101a157806355f804b3146105465780636352211e1461056f57806366492358146105ac57806369dff5b8146105d75780636fed1ea71461060057806370a082311461062957610272565b8063355771ff1461046257806337e23d7a1461048d57806342842e0e146104cb57806343b3c543146104f45780635412f9261461051d57610272565b80631078bc421161022f5780631078bc42146103805780631ceaf8de146103c15780631f53ac02146103dd57806323b872dd14610406578063277f71b71461042f578063344286861461044657610272565b806301ffc9a71461027457806306fdde03146102b1578063081812fc146102dc578063095ea7b3146103195780630acb93661461034257610272565b3661027257005b005b34801561028057600080fd5b5061029b6004803603810190610296919061395a565b6109e5565b6040516102a891906139a2565b60405180910390f35b3480156102bd57600080fd5b506102c6610ac7565b6040516102d39190613a4d565b60405180910390f35b3480156102e857600080fd5b5061030360048036038101906102fe9190613aa5565b610b59565b6040516103109190613b13565b60405180910390f35b34801561032557600080fd5b50610340600480360381019061033b9190613b5a565b610b9f565b005b34801561034e57600080fd5b5061036960048036038101906103649190613b9a565b610cb6565b604051610377929190613bff565b60405180910390f35b34801561038c57600080fd5b506103a760048036038101906103a29190613aa5565b610cea565b6040516103b8959493929190613c53565b60405180910390f35b6103db60048036038101906103d69190613cd2565b610d3a565b005b3480156103e957600080fd5b5061040460048036038101906103ff9190613b9a565b610d93565b005b34801561041257600080fd5b5061042d60048036038101906104289190613cff565b610ddf565b005b34801561043b57600080fd5b50610444610e3f565b005b610460600480360381019061045b9190613cd2565b610fef565b005b34801561046e57600080fd5b50610477611048565b6040516104849190613d52565b60405180910390f35b34801561049957600080fd5b506104b460048036038101906104af9190613d99565b61104f565b6040516104c2929190613dc6565b60405180910390f35b3480156104d757600080fd5b506104f260048036038101906104ed9190613cff565b611073565b005b34801561050057600080fd5b5061051b60048036038101906105169190613f24565b611093565b005b34801561052957600080fd5b50610544600480360381019061053f9190614053565b611238565b005b34801561055257600080fd5b5061056d60048036038101906105689190613f24565b61126c565b005b34801561057b57600080fd5b5061059660048036038101906105919190613aa5565b611287565b6040516105a39190613b13565b60405180910390f35b3480156105b857600080fd5b506105c161130d565b6040516105ce9190613d52565b60405180910390f35b3480156105e357600080fd5b506105fe60048036038101906105f99190614053565b611313565b005b34801561060c57600080fd5b5061062760048036038101906106229190613aa5565b611347565b005b34801561063557600080fd5b50610650600480360381019061064b9190613b9a565b611459565b60405161065d9190613d52565b60405180910390f35b34801561067257600080fd5b5061067b611510565b005b34801561068957600080fd5b506106a4600480360381019061069f919061409c565b611524565b005b3480156106b257600080fd5b506106cd60048036038101906106c8919061409c565b611554565b005b3480156106db57600080fd5b506106e4611584565b6040516106f19190613b13565b60405180910390f35b34801561070657600080fd5b5061070f6115ae565b60405161071c9190613b13565b60405180910390f35b34801561073157600080fd5b5061074c60048036038101906107479190614053565b6115d4565b005b34801561075a57600080fd5b50610763611608565b6040516107709190613a4d565b60405180910390f35b34801561078557600080fd5b506107a0600480360381019061079b919061409c565b61169a565b005b3480156107ae57600080fd5b506107c960048036038101906107c49190614124565b6116ca565b005b3480156107d757600080fd5b506107f260048036038101906107ed9190614053565b6116e0565b005b34801561080057600080fd5b50610809611714565b6040516108169190613d52565b60405180910390f35b34801561082b57600080fd5b5061084660048036038101906108419190614205565b61171a565b005b610862600480360381019061085d9190613cd2565b61177c565b005b34801561087057600080fd5b5061088b60048036038101906108869190613aa5565b6117d5565b6040516108989190613a4d565b60405180910390f35b3480156108ad57600080fd5b506108c860048036038101906108c39190614288565b611851565b005b3480156108d657600080fd5b506108f160048036038101906108ec9190613aa5565b611b2c565b005b3480156108ff57600080fd5b50610908611de8565b6040516109159190613d52565b60405180910390f35b61093860048036038101906109339190613cd2565b611df4565b005b34801561094657600080fd5b50610961600480360381019061095c919061409c565b611e4d565b005b61097d60048036038101906109789190613cd2565b611e7d565b005b34801561098b57600080fd5b506109a660048036038101906109a191906142e4565b611eca565b6040516109b391906139a2565b60405180910390f35b3480156109c857600080fd5b506109e360048036038101906109de9190613b9a565b611f5e565b005b60007f80ac58cd000000000000000000000000000000000000000000000000000000007bffffffffffffffffffffffffffffffffffffffffffffffffffffffff1916827bffffffffffffffffffffffffffffffffffffffffffffffffffffffff19161480610ab057507f5b5e139f000000000000000000000000000000000000000000000000000000007bffffffffffffffffffffffffffffffffffffffffffffffffffffffff1916827bffffffffffffffffffffffffffffffffffffffffffffffffffffffff1916145b80610ac05750610abf82611fe1565b5b9050919050565b606060008054610ad690614353565b80601f0160208091040260200160405190810160405280929190818152602001828054610b0290614353565b8015610b4f5780601f10610b2457610100808354040283529160200191610b4f565b820191906000526020600020905b815481529060010190602001808311610b3257829003601f168201915b5050505050905090565b6000610b648261204b565b6004600083815260200190815260200160002060009054906101000a900473ffffffffffffffffffffffffffffffffffffffff169050919050565b6000610baa82611287565b90508073ffffffffffffffffffffffffffffffffffffffff168373ffffffffffffffffffffffffffffffffffffffff1603610c1a576040517f08c379a0000000000000000000000000000000000000000000000000000000008152600401610c11906143f6565b60405180910390fd5b8073ffffffffffffffffffffffffffffffffffffffff16610c39612096565b73ffffffffffffffffffffffffffffffffffffffff161480610c685750610c6781610c62612096565b611eca565b5b610ca7576040517f08c379a0000000000000000000000000000000000000000000000000000000008152600401610c9e90614488565b60405180910390fd5b610cb1838361209e565b505050565b600b6020528060005260406000206000915090508060000154908060010160009054906101000a900463ffffffff16905082565b600a6020528060005260406000206000915090508060000154908060010154908060020154908060030160009054906101000a900460ff16908060030160019054906101000a900460ff16905085565b6019670de0b6b3a7640000610d4f91906144d7565b3414610d87576040517fbfa3b5b800000000000000000000000000000000000000000000000000000000815260040160405180910390fd5b610d9081612157565b50565b610d9b61228f565b80600c60006101000a81548173ffffffffffffffffffffffffffffffffffffffff021916908373ffffffffffffffffffffffffffffffffffffffff16021790555050565b610df0610dea612096565b8261230d565b610e2f576040517f08c379a0000000000000000000000000000000000000000000000000000000008152600401610e269061458b565b60405180910390fd5b610e3a8383836123a2565b505050565b610e4761228f565b610e4f61269b565b6000600d5490506000600d8190555060008073ffffffffffffffffffffffffffffffffffffffff16600c60009054906101000a900473ffffffffffffffffffffffffffffffffffffffff1673ffffffffffffffffffffffffffffffffffffffff1614610edd57600c60009054906101000a900473ffffffffffffffffffffffffffffffffffffffff16610ee6565b610ee5611584565b5b905060008173ffffffffffffffffffffffffffffffffffffffff1683604051610f0e906145dc565b60006040518083038185875af1925050503d8060008114610f4b576040519150601f19603f3d011682016040523d82523d6000602084013e610f50565b606091505b5050905080610f94576040517f08c379a0000000000000000000000000000000000000000000000000000000008152600401610f8b9061463d565b60405180910390fd5b8173ffffffffffffffffffffffffffffffffffffffff167feb5f9d0f77ca1b4235da3a889df2e60673bcf3cdb66c14b903940a7c8f30136784604051610fda9190613d52565b60405180910390a2505050610fed6126ea565b565b600a670de0b6b3a764000061100491906144d7565b341461103c576040517fbfa3b5b800000000000000000000000000000000000000000000000000000000815260040160405180910390fd5b61104581612157565b50565b6203f48081565b60096020528060005260406000206000915090508060000154908060010154905082565b61108e8383836040518060200160405280600081525061171a565b505050565b61109b61269b565b6000600b60003373ffffffffffffffffffffffffffffffffffffffff1673ffffffffffffffffffffffffffffffffffffffff168152602001908152602001600020604051806040016040529081600082015481526020016001820160009054906101000a900463ffffffff1663ffffffff1663ffffffff1681525050905060008160200151905060008163ffffffff1603611162576040517f89940b8200000000000000000000000000000000000000000000000000000000815260040160405180910390fd5b6101008163ffffffff16611176919061465d565b43116111ae576040517f1a09566900000000000000000000000000000000000000000000000000000000815260040160405180910390fd5b6000600590506111c9336111c260086126f4565b8387612702565b600b60003373ffffffffffffffffffffffffffffffffffffffff1673ffffffffffffffffffffffffffffffffffffffff1681526020019081526020016000206000808201600090556001820160006101000a81549063ffffffff021916905550505050506112356126ea565b50565b61124061269b565b600060066032611250919061469f565b61ffff169050611260828261281f565b506112696126ea565b50565b61127461228f565b80600e90816112839190614881565b5050565b60008061129383612a26565b9050600073ffffffffffffffffffffffffffffffffffffffff168173ffffffffffffffffffffffffffffffffffffffff1603611304576040517f08c379a00000000000000000000000000000000000000000000000000000000081526004016112fb9061499f565b60405180910390fd5b80915050919050565b61010081565b61131b61269b565b60006001600a61132b919061469f565b61ffff16905061133b828261281f565b506113446126ea565b50565b61134f61228f565b61135761269b565b8047101561139a576040517f08c379a000000000000000000000000000000000000000000000000000000000815260040161139190614a31565b60405180910390fd5b60006113a4611584565b73ffffffffffffffffffffffffffffffffffffffff16826040516113c7906145dc565b60006040518083038185875af1925050503d8060008114611404576040519150601f19603f3d011682016040523d82523d6000602084013e611409565b606091505b505090508061144d576040517f08c379a000000000000000000000000000000000000000000000000000000000815260040161144490614a9d565b60405180910390fd5b506114566126ea565b50565b60008073ffffffffffffffffffffffffffffffffffffffff168273ffffffffffffffffffffffffffffffffffffffff16036114c9576040517f08c379a00000000000000000000000000000000000000000000000000000000081526004016114c090614b2f565b60405180910390fd5b600360008373ffffffffffffffffffffffffffffffffffffffff1673ffffffffffffffffffffffffffffffffffffffff168152602001908152602001600020549050919050565b61151861228f565b6115226000612a63565b565b61152c61269b565b61154882826001600a61153f919061469f565b61ffff16612b29565b6115506126ea565b5050565b61155c61269b565b6115788282600c606461156f919061469f565b61ffff16612b29565b6115806126ea565b5050565b6000600660009054906101000a900473ffffffffffffffffffffffffffffffffffffffff16905090565b600c60009054906101000a900473ffffffffffffffffffffffffffffffffffffffff1681565b6115dc61269b565b6000600360196115ec919061469f565b61ffff1690506115fc828261281f565b506116056126ea565b50565b60606001805461161790614353565b80601f016020809104026020016040519081016040528092919081815260200182805461164390614353565b80156116905780601f1061166557610100808354040283529160200191611690565b820191906000526020600020905b81548152906001019060200180831161167357829003601f168201915b5050505050905090565b6116a261269b565b6116be8282600660326116b5919061469f565b61ffff16612b29565b6116c66126ea565b5050565b6116dc6116d5612096565b8383612fd0565b5050565b6116e861269b565b6000600c60646116f8919061469f565b61ffff169050611708828261281f565b506117116126ea565b50565b600d5481565b61172b611725612096565b8361230d565b61176a576040517f08c379a00000000000000000000000000000000000000000000000000000000081526004016117619061458b565b60405180910390fd5b6117768484848461313c565b50505050565b6032670de0b6b3a764000061179191906144d7565b34146117c9576040517fbfa3b5b800000000000000000000000000000000000000000000000000000000815260040160405180910390fd5b6117d281612157565b50565b60606117e082613198565b61181f576040517f08c379a000000000000000000000000000000000000000000000000000000000815260040161181690614bc1565b60405180910390fd5b600e61182a836131d9565b60405160200161183b929190614ca0565b6040516020818303038152906040529050919050565b61185961269b565b6000600b60003373ffffffffffffffffffffffffffffffffffffffff1673ffffffffffffffffffffffffffffffffffffffff168152602001908152602001600020604051806040016040529081600082015481526020016001820160009054906101000a900463ffffffff1663ffffffff1663ffffffff1681525050905060008160200151905060008163ffffffff1603611920576040517f89940b8200000000000000000000000000000000000000000000000000000000815260040160405180910390fd5b8063ffffffff16431161195f576040517fc349402d00000000000000000000000000000000000000000000000000000000815260040160405180910390fd5b6101008163ffffffff16611973919061465d565b4311156119ac576040517f387b915400000000000000000000000000000000000000000000000000000000815260040160405180910390fd5b60008163ffffffff164090506000801b81036119f4576040517f92555c0e00000000000000000000000000000000000000000000000000000000815260040160405180910390fd5b8484604051602001611a07929190614ce5565b60405160208183030381529060405280519060200120836000015114611a59576040517f9227a43c00000000000000000000000000000000000000000000000000000000815260040160405180910390fd5b6000612710858333604051602001611a7393929190614d55565b6040516020818303038152906040528051906020012060001c611a969190614dc1565b90506000611aa3826132a7565b9050611aba33611ab360086126f4565b838a612702565b600b60003373ffffffffffffffffffffffffffffffffffffffff1673ffffffffffffffffffffffffffffffffffffffff1681526020019081526020016000206000808201600090556001820160006101000a81549063ffffffff021916905550505050505050611b286126ea565b5050565b611b3461269b565b3373ffffffffffffffffffffffffffffffffffffffff16611b5482611287565b73ffffffffffffffffffffffffffffffffffffffff1614611baa576040517f08c379a0000000000000000000000000000000000000000000000000000000008152600401611ba190614e3e565b60405180910390fd5b6000600a600083815260200190815260200160002090508060030160009054906101000a900460ff1615611c13576040517f08c379a0000000000000000000000000000000000000000000000000000000008152600401611c0a90614eaa565b60405180910390fd5b6000600960008360030160019054906101000a900460ff1660ff1660ff1681526020019081526020016000206040518060400160405290816000820154815260200160018201548152505090506000826000015442611c729190614eca565b905081602001518110611cd15760018360030160006101000a81548160ff021916908315150217905550837fb4228e78dcdc5f8ba5a633070b6bfe900e416549d3d7c65b0a495f0d028426bf60405160405180910390a2816020015190505b6000836001015442611ce39190614eca565b905060006203f4808211611cf75781611cfc565b6203f4805b9050600080856020015111611d15578460000151611d35565b8460200151828660000151611d2a91906144d7565b611d349190614efe565b5b9050600086600201548660000151611d4d9190614eca565b90506000818311611d5e5782611d60565b815b905080886002016000828254611d76919061465d565b92505081905550428860010181905550883373ffffffffffffffffffffffffffffffffffffffff167f8f0c3d4726e2d22ccf850efced91f2d0c1bea40229449223d795a6cff327623683604051611dcd9190613d52565b60405180910390a35050505050505050611de56126ea565b50565b670de0b6b3a764000081565b6064670de0b6b3a7640000611e0991906144d7565b3414611e41576040517fbfa3b5b800000000000000000000000000000000000000000000000000000000815260040160405180910390fd5b611e4a81612157565b50565b611e5561269b565b611e71828260036019611e68919061469f565b61ffff16612b29565b611e796126ea565b5050565b670de0b6b3a76400003414611ebe576040517f4046b62500000000000000000000000000000000000000000000000000000000815260040160405180910390fd5b611ec781612157565b50565b6000600560008473ffffffffffffffffffffffffffffffffffffffff1673ffffffffffffffffffffffffffffffffffffffff16815260200190815260200160002060008373ffffffffffffffffffffffffffffffffffffffff1673ffffffffffffffffffffffffffffffffffffffff16815260200190815260200160002060009054906101000a900460ff16905092915050565b611f6661228f565b600073ffffffffffffffffffffffffffffffffffffffff168173ffffffffffffffffffffffffffffffffffffffff1603611fd5576040517f08c379a0000000000000000000000000000000000000000000000000000000008152600401611fcc90614fa1565b60405180910390fd5b611fde81612a63565b50565b60007f01ffc9a7000000000000000000000000000000000000000000000000000000007bffffffffffffffffffffffffffffffffffffffffffffffffffffffff1916827bffffffffffffffffffffffffffffffffffffffffffffffffffffffff1916149050919050565b61205481613198565b612093576040517f08c379a000000000000000000000000000000000000000000000000000000000815260040161208a9061499f565b60405180910390fd5b50565b600033905090565b816004600083815260200190815260200160002060006101000a81548173ffffffffffffffffffffffffffffffffffffffff021916908373ffffffffffffffffffffffffffffffffffffffff160217905550808273ffffffffffffffffffffffffffffffffffffffff1661211183611287565b73ffffffffffffffffffffffffffffffffffffffff167f8c5be1e5ebec7d5bd14f71427d1e84f3dd0314c0f7b2291e5b200ac8c7c3b92560405160405180910390a45050565b6000600b60003373ffffffffffffffffffffffffffffffffffffffff1673ffffffffffffffffffffffffffffffffffffffff16815260200190815260200160002090506000801b8160000154146121da576040517fbfec555800000000000000000000000000000000000000000000000000000000815260040160405180910390fd5b818160000181905550438160010160006101000a81548163ffffffff021916908363ffffffff1602179055506000606460053461221791906144d7565b6122219190614efe565b905080600d6000828254612235919061465d565b925050819055503373ffffffffffffffffffffffffffffffffffffffff167f0b6cc2ecff3b94112d44f2dbac8aee8eb02772c07b1e52605f0dc6d726bf0e31846040516122829190614fc1565b60405180910390a2505050565b612297612096565b73ffffffffffffffffffffffffffffffffffffffff166122b5611584565b73ffffffffffffffffffffffffffffffffffffffff161461230b576040517f08c379a000000000000000000000000000000000000000000000000000000000815260040161230290615028565b60405180910390fd5b565b60008061231983611287565b90508073ffffffffffffffffffffffffffffffffffffffff168473ffffffffffffffffffffffffffffffffffffffff16148061235b575061235a8185611eca565b5b8061239957508373ffffffffffffffffffffffffffffffffffffffff1661238184610b59565b73ffffffffffffffffffffffffffffffffffffffff16145b91505092915050565b8273ffffffffffffffffffffffffffffffffffffffff166123c282611287565b73ffffffffffffffffffffffffffffffffffffffff1614612418576040517f08c379a000000000000000000000000000000000000000000000000000000000815260040161240f906150ba565b60405180910390fd5b600073ffffffffffffffffffffffffffffffffffffffff168273ffffffffffffffffffffffffffffffffffffffff1603612487576040517f08c379a000000000000000000000000000000000000000000000000000000000815260040161247e9061514c565b60405180910390fd5b6124948383836001613339565b8273ffffffffffffffffffffffffffffffffffffffff166124b482611287565b73ffffffffffffffffffffffffffffffffffffffff161461250a576040517f08c379a0000000000000000000000000000000000000000000000000000000008152600401612501906150ba565b60405180910390fd5b6004600082815260200190815260200160002060006101000a81549073ffffffffffffffffffffffffffffffffffffffff02191690556001600360008573ffffffffffffffffffffffffffffffffffffffff1673ffffffffffffffffffffffffffffffffffffffff168152602001908152602001600020600082825403925050819055506001600360008473ffffffffffffffffffffffffffffffffffffffff1673ffffffffffffffffffffffffffffffffffffffff16815260200190815260200160002060008282540192505081905550816002600083815260200190815260200160002060006101000a81548173ffffffffffffffffffffffffffffffffffffffff021916908373ffffffffffffffffffffffffffffffffffffffff160217905550808273ffffffffffffffffffffffffffffffffffffffff168473ffffffffffffffffffffffffffffffffffffffff167fddf252ad1be2c89b69c2b068fc378daa952ba7f163c4a11628f55a4df523b3ef60405160405180910390a4612696838383600161333f565b505050565b6002600754036126e0576040517f08c379a00000000000000000000000000000000000000000000000000000000081526004016126d7906151b8565b60405180910390fd5b6002600781905550565b6001600781905550565b600081600001549050919050565b61270c6008613345565b600061271860086126f4565b9050612724858261335b565b6040518060a00160405280428152602001428152602001600081526020016000151581526020018460ff16815250600a600083815260200190815260200160002060008201518160000155602082015181600101556040820151816002015560608201518160030160006101000a81548160ff02191690831515021790555060808201518160030160016101000a81548160ff021916908360ff160217905550905050808573ffffffffffffffffffffffffffffffffffffffff167f0fe979440580532b621e6c051114b9fb70153abf461fb807b9812ae5b7c86cc285856040516128109291906151d8565b60405180910390a35050505050565b80825114612859576040517f8df760a400000000000000000000000000000000000000000000000000000000815260040160405180910390fd5b6000600b60003373ffffffffffffffffffffffffffffffffffffffff1673ffffffffffffffffffffffffffffffffffffffff168152602001908152602001600020604051806040016040529081600082015481526020016001820160009054906101000a900463ffffffff1663ffffffff1663ffffffff1681525050905060008160200151905060008163ffffffff1603612920576040517f89940b8200000000000000000000000000000000000000000000000000000000815260040160405180910390fd5b6101008163ffffffff16612934919061465d565b431161296c576040517f1a09566900000000000000000000000000000000000000000000000000000000815260040160405180910390fd5b60006005905060005b848110156129bd576129ac3361298b60086126f4565b8489858151811061299f5761299e615208565b5b6020026020010151612702565b806129b690615237565b9050612975565b50600b60003373ffffffffffffffffffffffffffffffffffffffff1673ffffffffffffffffffffffffffffffffffffffff1681526020019081526020016000206000808201600090556001820160006101000a81549063ffffffff021916905550505050505050565b60006002600083815260200190815260200160002060009054906101000a900473ffffffffffffffffffffffffffffffffffffffff169050919050565b6000600660009054906101000a900473ffffffffffffffffffffffffffffffffffffffff16905081600660006101000a81548173ffffffffffffffffffffffffffffffffffffffff021916908373ffffffffffffffffffffffffffffffffffffffff1602179055508173ffffffffffffffffffffffffffffffffffffffff168173ffffffffffffffffffffffffffffffffffffffff167f8be0079c531659141344cd1fd0a4f28419497f9722a3daafe3b4186f6b6457e060405160405180910390a35050565b80835114612b63576040517f8df760a400000000000000000000000000000000000000000000000000000000815260040160405180910390fd5b6000600b60003373ffffffffffffffffffffffffffffffffffffffff1673ffffffffffffffffffffffffffffffffffffffff168152602001908152602001600020905060008160010160009054906101000a900463ffffffff16905060008163ffffffff1603612bff576040517f89940b8200000000000000000000000000000000000000000000000000000000815260040160405180910390fd5b8063ffffffff164311612c3e576040517fc349402d00000000000000000000000000000000000000000000000000000000815260040160405180910390fd5b6101008163ffffffff16612c52919061465d565b431115612c8b576040517f21a0de6c00000000000000000000000000000000000000000000000000000000815260040160405180910390fd5b60008163ffffffff164090506000801b8103612cd3576040517f92555c0e00000000000000000000000000000000000000000000000000000000815260040160405180910390fd5b85600081518110612ce757612ce6615208565b5b602002602001015185604051602001612d01929190614ce5565b60405160208183030381529060405280519060200120836000015414612d53576040517f9227a43c00000000000000000000000000000000000000000000000000000000815260040160405180910390fd5b60005b8651811015612f6657600061271087843385604051602001612d7b94939291906152a0565b6040516020818303038152906040528051906020012060001c612d9e9190614dc1565b90506000603261ffff168261ffff1610612e1d5761015e61ffff168261ffff1610612e155761054661ffff168261ffff1610612e0d57610d1661ffff168261ffff1610612e05576118ce61ffff168261ffff1610612dfd576005612e00565b60045b612e08565b60035b612e10565b60025b612e18565b60015b612e20565b60005b9050612e2c6008613345565b6000612e3860086126f4565b9050612e44338261335b565b6040518060a00160405280428152602001428152602001600081526020016000151581526020018360ff16815250600a600083815260200190815260200160002060008201518160000155602082015181600101556040820151816002015560608201518160030160006101000a81548160ff02191690831515021790555060808201518160030160016101000a81548160ff021916908360ff160217905550905050803373ffffffffffffffffffffffffffffffffffffffff167f0fe979440580532b621e6c051114b9fb70153abf461fb807b9812ae5b7c86cc2848d8881518110612f3457612f33615208565b5b6020026020010151604051612f4a9291906151d8565b60405180910390a350505080612f5f90615237565b9050612d56565b50600b60003373ffffffffffffffffffffffffffffffffffffffff1673ffffffffffffffffffffffffffffffffffffffff1681526020019081526020016000206000808201600090556001820160006101000a81549063ffffffff02191690555050505050505050565b8173ffffffffffffffffffffffffffffffffffffffff168373ffffffffffffffffffffffffffffffffffffffff160361303e576040517f08c379a00000000000000000000000000000000000000000000000000000000081526004016130359061533a565b60405180910390fd5b80600560008573ffffffffffffffffffffffffffffffffffffffff1673ffffffffffffffffffffffffffffffffffffffff16815260200190815260200160002060008473ffffffffffffffffffffffffffffffffffffffff1673ffffffffffffffffffffffffffffffffffffffff16815260200190815260200160002060006101000a81548160ff0219169083151502179055508173ffffffffffffffffffffffffffffffffffffffff168373ffffffffffffffffffffffffffffffffffffffff167f17307eab39ab6107e8899845ad3d59bd9653f200f220920489ca2b5937696c318360405161312f91906139a2565b60405180910390a3505050565b6131478484846123a2565b61315384848484613379565b613192576040517f08c379a0000000000000000000000000000000000000000000000000000000008152600401613189906153cc565b60405180910390fd5b50505050565b60008073ffffffffffffffffffffffffffffffffffffffff166131ba83612a26565b73ffffffffffffffffffffffffffffffffffffffff1614159050919050565b6060600060016131e884613500565b01905060008167ffffffffffffffff81111561320757613206613df9565b5b6040519080825280601f01601f1916602001820160405280156132395781602001600182028036833780820191505090505b509050600082602001820190505b60011561329c578080600190039150507f3031323334353637383961626364656600000000000000000000000000000000600a86061a8153600a85816132905761328f614d92565b5b04945060008503613247575b819350505050919050565b6000603261ffff168261ffff1610156132c35760009050613334565b61015e61ffff168261ffff1610156132de5760019050613334565b61054661ffff168261ffff1610156132f95760029050613334565b610d1661ffff168261ffff1610156133145760039050613334565b6118ce61ffff168261ffff16101561332f5760049050613334565b600590505b919050565b50505050565b50505050565b6001816000016000828254019250508190555050565b613375828260405180602001604052806000815250613653565b5050565b600061339a8473ffffffffffffffffffffffffffffffffffffffff166136ae565b156134f3578373ffffffffffffffffffffffffffffffffffffffff1663150b7a026133c3612096565b8786866040518563ffffffff1660e01b81526004016133e59493929190615441565b6020604051808303816000875af192505050801561342157506040513d601f19601f8201168201806040525081019061341e91906154a2565b60015b6134a3573d8060008114613451576040519150601f19603f3d011682016040523d82523d6000602084013e613456565b606091505b50600081510361349b576040517f08c379a0000000000000000000000000000000000000000000000000000000008152600401613492906153cc565b60405180910390fd5b805181602001fd5b63150b7a0260e01b7bffffffffffffffffffffffffffffffffffffffffffffffffffffffff1916817bffffffffffffffffffffffffffffffffffffffffffffffffffffffff1916149150506134f8565b600190505b949350505050565b600080600090507a184f03e93ff9f4daa797ed6e38ed64bf6a1f010000000000000000831061355e577a184f03e93ff9f4daa797ed6e38ed64bf6a1f010000000000000000838161355457613553614d92565b5b0492506040810190505b6d04ee2d6d415b85acef8100000000831061359b576d04ee2d6d415b85acef8100000000838161359157613590614d92565b5b0492506020810190505b662386f26fc1000083106135ca57662386f26fc1000083816135c0576135bf614d92565b5b0492506010810190505b6305f5e10083106135f3576305f5e10083816135e9576135e8614d92565b5b0492506008810190505b612710831061361857612710838161360e5761360d614d92565b5b0492506004810190505b6064831061363b576064838161363157613630614d92565b5b0492506002810190505b600a831061364a576001810190505b80915050919050565b61365d83836136d1565b61366a6000848484613379565b6136a9576040517f08c379a00000000000000000000000000000000000000000000000000000000081526004016136a0906153cc565b60405180910390fd5b505050565b6000808273ffffffffffffffffffffffffffffffffffffffff163b119050919050565b600073ffffffffffffffffffffffffffffffffffffffff168273ffffffffffffffffffffffffffffffffffffffff1603613740576040517f08c379a00000000000000000000000000000000000000000000000000000000081526004016137379061551b565b60405180910390fd5b61374981613198565b15613789576040517f08c379a000000000000000000000000000000000000000000000000000000000815260040161378090615587565b60405180910390fd5b613797600083836001613339565b6137a081613198565b156137e0576040517f08c379a00000000000000000000000000000000000000000000000000000000081526004016137d790615587565b60405180910390fd5b6001600360008473ffffffffffffffffffffffffffffffffffffffff1673ffffffffffffffffffffffffffffffffffffffff16815260200190815260200160002060008282540192505081905550816002600083815260200190815260200160002060006101000a81548173ffffffffffffffffffffffffffffffffffffffff021916908373ffffffffffffffffffffffffffffffffffffffff160217905550808273ffffffffffffffffffffffffffffffffffffffff16600073ffffffffffffffffffffffffffffffffffffffff167fddf252ad1be2c89b69c2b068fc378daa952ba7f163c4a11628f55a4df523b3ef60405160405180910390a46138ea60008383600161333f565b5050565b6000604051905090565b600080fd5b600080fd5b60007fffffffff0000000000000000000000000000000000000000000000000000000082169050919050565b61393781613902565b811461394257600080fd5b50565b6000813590506139548161392e565b92915050565b6000602082840312156139705761396f6138f8565b5b600061397e84828501613945565b91505092915050565b60008115159050919050565b61399c81613987565b82525050565b60006020820190506139b76000830184613993565b92915050565b600081519050919050565b600082825260208201905092915050565b60005b838110156139f75780820151818401526020810190506139dc565b60008484015250505050565b6000601f19601f8301169050919050565b6000613a1f826139bd565b613a2981856139c8565b9350613a398185602086016139d9565b613a4281613a03565b840191505092915050565b60006020820190508181036000830152613a678184613a14565b905092915050565b6000819050919050565b613a8281613a6f565b8114613a8d57600080fd5b50565b600081359050613a9f81613a79565b92915050565b600060208284031215613abb57613aba6138f8565b5b6000613ac984828501613a90565b91505092915050565b600073ffffffffffffffffffffffffffffffffffffffff82169050919050565b6000613afd82613ad2565b9050919050565b613b0d81613af2565b82525050565b6000602082019050613b286000830184613b04565b92915050565b613b3781613af2565b8114613b4257600080fd5b50565b600081359050613b5481613b2e565b92915050565b60008060408385031215613b7157613b706138f8565b5b6000613b7f85828601613b45565b9250506020613b9085828601613a90565b9150509250929050565b600060208284031215613bb057613baf6138f8565b5b6000613bbe84828501613b45565b91505092915050565b6000819050919050565b613bda81613bc7565b82525050565b600063ffffffff82169050919050565b613bf981613be0565b82525050565b6000604082019050613c146000830185613bd1565b613c216020830184613bf0565b9392505050565b613c3181613a6f565b82525050565b600060ff82169050919050565b613c4d81613c37565b82525050565b600060a082019050613c686000830188613c28565b613c756020830187613c28565b613c826040830186613c28565b613c8f6060830185613993565b613c9c6080830184613c44565b9695505050505050565b613caf81613bc7565b8114613cba57600080fd5b50565b600081359050613ccc81613ca6565b92915050565b600060208284031215613ce857613ce76138f8565b5b6000613cf684828501613cbd565b91505092915050565b600080600060608486031215613d1857613d176138f8565b5b6000613d2686828701613b45565b9350506020613d3786828701613b45565b9250506040613d4886828701613a90565b9150509250925092565b6000602082019050613d676000830184613c28565b92915050565b613d7681613c37565b8114613d8157600080fd5b50565b600081359050613d9381613d6d565b92915050565b600060208284031215613daf57613dae6138f8565b5b6000613dbd84828501613d84565b91505092915050565b6000604082019050613ddb6000830185613c28565b613de86020830184613c28565b9392505050565b600080fd5b600080fd5b7f4e487b7100000000000000000000000000000000000000000000000000000000600052604160045260246000fd5b613e3182613a03565b810181811067ffffffffffffffff82111715613e5057613e4f613df9565b5b80604052505050565b6000613e636138ee565b9050613e6f8282613e28565b919050565b600067ffffffffffffffff821115613e8f57613e8e613df9565b5b613e9882613a03565b9050602081019050919050565b82818337600083830152505050565b6000613ec7613ec284613e74565b613e59565b905082815260208101848484011115613ee357613ee2613df4565b5b613eee848285613ea5565b509392505050565b600082601f830112613f0b57613f0a613def565b5b8135613f1b848260208601613eb4565b91505092915050565b600060208284031215613f3a57613f396138f8565b5b600082013567ffffffffffffffff811115613f5857613f576138fd565b5b613f6484828501613ef6565b91505092915050565b600067ffffffffffffffff821115613f8857613f87613df9565b5b602082029050602081019050919050565b600080fd5b6000613fb1613fac84613f6d565b613e59565b90508083825260208201905060208402830185811115613fd457613fd3613f99565b5b835b8181101561401b57803567ffffffffffffffff811115613ff957613ff8613def565b5b8086016140068982613ef6565b85526020850194505050602081019050613fd6565b5050509392505050565b600082601f83011261403a57614039613def565b5b813561404a848260208601613f9e565b91505092915050565b600060208284031215614069576140686138f8565b5b600082013567ffffffffffffffff811115614087576140866138fd565b5b61409384828501614025565b91505092915050565b600080604083850312156140b3576140b26138f8565b5b600083013567ffffffffffffffff8111156140d1576140d06138fd565b5b6140dd85828601614025565b92505060206140ee85828601613cbd565b9150509250929050565b61410181613987565b811461410c57600080fd5b50565b60008135905061411e816140f8565b92915050565b6000806040838503121561413b5761413a6138f8565b5b600061414985828601613b45565b925050602061415a8582860161410f565b9150509250929050565b600067ffffffffffffffff82111561417f5761417e613df9565b5b61418882613a03565b9050602081019050919050565b60006141a86141a384614164565b613e59565b9050828152602081018484840111156141c4576141c3613df4565b5b6141cf848285613ea5565b509392505050565b600082601f8301126141ec576141eb613def565b5b81356141fc848260208601614195565b91505092915050565b6000806000806080858703121561421f5761421e6138f8565b5b600061422d87828801613b45565b945050602061423e87828801613b45565b935050604061424f87828801613a90565b925050606085013567ffffffffffffffff8111156142705761426f6138fd565b5b61427c878288016141d7565b91505092959194509250565b6000806040838503121561429f5761429e6138f8565b5b600083013567ffffffffffffffff8111156142bd576142bc6138fd565b5b6142c985828601613ef6565b92505060206142da85828601613cbd565b9150509250929050565b600080604083850312156142fb576142fa6138f8565b5b600061430985828601613b45565b925050602061431a85828601613b45565b9150509250929050565b7f4e487b7100000000000000000000000000000000000000000000000000000000600052602260045260246000fd5b6000600282049050600182168061436b57607f821691505b60208210810361437e5761437d614324565b5b50919050565b7f4552433732313a20617070726f76616c20746f2063757272656e74206f776e6560008201527f7200000000000000000000000000000000000000000000000000000000000000602082015250565b60006143e06021836139c8565b91506143eb82614384565b604082019050919050565b6000602082019050818103600083015261440f816143d3565b9050919050565b7f4552433732313a20617070726f76652063616c6c6572206973206e6f7420746f60008201527f6b656e206f776e6572206f7220617070726f76656420666f7220616c6c000000602082015250565b6000614472603d836139c8565b915061447d82614416565b604082019050919050565b600060208201905081810360008301526144a181614465565b9050919050565b7f4e487b7100000000000000000000000000000000000000000000000000000000600052601160045260246000fd5b60006144e282613a6f565b91506144ed83613a6f565b92508282026144fb81613a6f565b91508282048414831517614512576145116144a8565b5b5092915050565b7f4552433732313a2063616c6c6572206973206e6f7420746f6b656e206f776e6560008201527f72206f7220617070726f76656400000000000000000000000000000000000000602082015250565b6000614575602d836139c8565b915061458082614519565b604082019050919050565b600060208201905081810360008301526145a481614568565b9050919050565b600081905092915050565b50565b60006145c66000836145ab565b91506145d1826145b6565b600082019050919050565b60006145e7826145b9565b9150819050919050565b7f446576207769746864726177616c206661696c65640000000000000000000000600082015250565b60006146276015836139c8565b9150614632826145f1565b602082019050919050565b600060208201905081810360008301526146568161461a565b9050919050565b600061466882613a6f565b915061467383613a6f565b925082820190508082111561468b5761468a6144a8565b5b92915050565b600061ffff82169050919050565b60006146aa82614691565b91506146b583614691565b9250828201905061ffff8111156146cf576146ce6144a8565b5b92915050565b60008190508160005260206000209050919050565b60006020601f8301049050919050565b600082821b905092915050565b6000600883026147377fffffffffffffffffffffffffffffffffffffffffffffffffffffffffffffffff826146fa565b61474186836146fa565b95508019841693508086168417925050509392505050565b6000819050919050565b600061477e61477961477484613a6f565b614759565b613a6f565b9050919050565b6000819050919050565b61479883614763565b6147ac6147a482614785565b848454614707565b825550505050565b600090565b6147c16147b4565b6147cc81848461478f565b505050565b5b818110156147f0576147e56000826147b9565b6001810190506147d2565b5050565b601f82111561483557614806816146d5565b61480f846146ea565b8101602085101561481e578190505b61483261482a856146ea565b8301826147d1565b50505b505050565b600082821c905092915050565b60006148586000198460080261483a565b1980831691505092915050565b60006148718383614847565b9150826002028217905092915050565b61488a826139bd565b67ffffffffffffffff8111156148a3576148a2613df9565b5b6148ad8254614353565b6148b88282856147f4565b600060209050601f8311600181146148eb57600084156148d9578287015190505b6148e38582614865565b86555061494b565b601f1984166148f9866146d5565b60005b82811015614921578489015182556001820191506020850194506020810190506148fc565b8683101561493e578489015161493a601f891682614847565b8355505b6001600288020188555050505b505050505050565b7f4552433732313a20696e76616c696420746f6b656e2049440000000000000000600082015250565b60006149896018836139c8565b915061499482614953565b602082019050919050565b600060208201905081810360008301526149b88161497c565b9050919050565b7f4c696c6e61644e46543a20496e73756666696369656e7420636f6e747261637460008201527f2062616c616e6365000000000000000000000000000000000000000000000000602082015250565b6000614a1b6028836139c8565b9150614a26826149bf565b604082019050919050565b60006020820190508181036000830152614a4a81614a0e565b9050919050565b7f4c696c6e61644e46543a204d4f4e207769746864726177616c206661696c6564600082015250565b6000614a876020836139c8565b9150614a9282614a51565b602082019050919050565b60006020820190508181036000830152614ab681614a7a565b9050919050565b7f4552433732313a2061646472657373207a65726f206973206e6f74206120766160008201527f6c6964206f776e65720000000000000000000000000000000000000000000000602082015250565b6000614b196029836139c8565b9150614b2482614abd565b604082019050919050565b60006020820190508181036000830152614b4881614b0c565b9050919050565b7f4552433732314d657461646174613a2055524920717565727920666f72206e6f60008201527f6e6578697374656e7420746f6b656e0000000000000000000000000000000000602082015250565b6000614bab602f836139c8565b9150614bb682614b4f565b604082019050919050565b60006020820190508181036000830152614bda81614b9e565b9050919050565b600081905092915050565b60008154614bf981614353565b614c038186614be1565b94506001821660008114614c1e5760018114614c3357614c66565b60ff1983168652811515820286019350614c66565b614c3c856146d5565b60005b83811015614c5e57815481890152600182019150602081019050614c3f565b838801955050505b50505092915050565b6000614c7a826139bd565b614c848185614be1565b9350614c948185602086016139d9565b80840191505092915050565b6000614cac8285614bec565b9150614cb88284614c6f565b91508190509392505050565b6000819050919050565b614cdf614cda82613bc7565b614cc4565b82525050565b6000614cf18285614c6f565b9150614cfd8284614cce565b6020820191508190509392505050565b60008160601b9050919050565b6000614d2582614d0d565b9050919050565b6000614d3782614d1a565b9050919050565b614d4f614d4a82613af2565b614d2c565b82525050565b6000614d618286614cce565b602082019150614d718285614cce565b602082019150614d818284614d3e565b601482019150819050949350505050565b7f4e487b7100000000000000000000000000000000000000000000000000000000600052601260045260246000fd5b6000614dcc82613a6f565b9150614dd783613a6f565b925082614de757614de6614d92565b5b828206905092915050565b7f4e6f7420746f6b656e206f776e65720000000000000000000000000000000000600082015250565b6000614e28600f836139c8565b9150614e3382614df2565b602082019050919050565b60006020820190508181036000830152614e5781614e1b565b9050919050565b7f546f6b656e206973206465616400000000000000000000000000000000000000600082015250565b6000614e94600d836139c8565b9150614e9f82614e5e565b602082019050919050565b60006020820190508181036000830152614ec381614e87565b9050919050565b6000614ed582613a6f565b9150614ee083613a6f565b9250828203905081811115614ef857614ef76144a8565b5b92915050565b6000614f0982613a6f565b9150614f1483613a6f565b925082614f2457614f23614d92565b5b828204905092915050565b7f4f776e61626c653a206e6577206f776e657220697320746865207a65726f206160008201527f6464726573730000000000000000000000000000000000000000000000000000602082015250565b6000614f8b6026836139c8565b9150614f9682614f2f565b604082019050919050565b60006020820190508181036000830152614fba81614f7e565b9050919050565b6000602082019050614fd66000830184613bd1565b92915050565b7f4f776e61626c653a2063616c6c6572206973206e6f7420746865206f776e6572600082015250565b60006150126020836139c8565b915061501d82614fdc565b602082019050919050565b6000602082019050818103600083015261504181615005565b9050919050565b7f4552433732313a207472616e736665722066726f6d20696e636f72726563742060008201527f6f776e6572000000000000000000000000000000000000000000000000000000602082015250565b60006150a46025836139c8565b91506150af82615048565b604082019050919050565b600060208201905081810360008301526150d381615097565b9050919050565b7f4552433732313a207472616e7366657220746f20746865207a65726f2061646460008201527f7265737300000000000000000000000000000000000000000000000000000000602082015250565b60006151366024836139c8565b9150615141826150da565b604082019050919050565b6000602082019050818103600083015261516581615129565b9050919050565b7f5265656e7472616e637947756172643a207265656e7472616e742063616c6c00600082015250565b60006151a2601f836139c8565b91506151ad8261516c565b602082019050919050565b600060208201905081810360008301526151d181615195565b9050919050565b60006040820190506151ed6000830185613c44565b81810360208301526151ff8184613a14565b90509392505050565b7f4e487b7100000000000000000000000000000000000000000000000000000000600052603260045260246000fd5b600061524282613a6f565b91507fffffffffffffffffffffffffffffffffffffffffffffffffffffffffffffffff8203615274576152736144a8565b5b600182019050919050565b6000819050919050565b61529a61529582613a6f565b61527f565b82525050565b60006152ac8287614cce565b6020820191506152bc8286614cce565b6020820191506152cc8285614d3e565b6014820191506152dc8284615289565b60208201915081905095945050505050565b7f4552433732313a20617070726f766520746f2063616c6c657200000000000000600082015250565b60006153246019836139c8565b915061532f826152ee565b602082019050919050565b6000602082019050818103600083015261535381615317565b9050919050565b7f4552433732313a207472616e7366657220746f206e6f6e20455243373231526560008201527f63656976657220696d706c656d656e7465720000000000000000000000000000602082015250565b60006153b66032836139c8565b91506153c18261535a565b604082019050919050565b600060208201905081810360008301526153e5816153a9565b9050919050565b600081519050919050565b600082825260208201905092915050565b6000615413826153ec565b61541d81856153f7565b935061542d8185602086016139d9565b61543681613a03565b840191505092915050565b60006080820190506154566000830187613b04565b6154636020830186613b04565b6154706040830185613c28565b81810360608301526154828184615408565b905095945050505050565b60008151905061549c8161392e565b92915050565b6000602082840312156154b8576154b76138f8565b5b60006154c68482850161548d565b91505092915050565b7f4552433732313a206d696e7420746f20746865207a65726f2061646472657373600082015250565b60006155056020836139c8565b9150615510826154cf565b602082019050919050565b60006020820190508181036000830152615534816154f8565b9050919050565b7f4552433732313a20746f6b656e20616c7265616479206d696e74656400000000600082015250565b6000615571601c836139c8565b915061557c8261553b565b602082019050919050565b600060208201905081810360008301526155a081615564565b905091905056fea264697066735822122009de0339f48f4a3f9f43baa50b70d5639112617da391938494672b63cf525e5b64736f6c6343000811003368747470733a2f2f6170692e796f7572646170702e636f6d2f7362742f6d657461646174612f",
  "linkReferences": {},
  "deployedLinkReferences": {}
}